{
  "contractName": "ERC721Base",
  "abi": [
    {
      "anonymous": false,
      "inputs": [
        {
          "indexed": true,
          "name": "from",
          "type": "address"
        },
        {
          "indexed": true,
          "name": "to",
          "type": "address"
        },
        {
          "indexed": true,
          "name": "assetId",
          "type": "uint256"
        },
        {
          "indexed": false,
          "name": "operator",
          "type": "address"
        },
        {
          "indexed": false,
          "name": "userData",
          "type": "bytes"
        },
        {
          "indexed": false,
          "name": "operatorData",
          "type": "bytes"
        }
      ],
      "name": "Transfer",
      "type": "event"
    },
    {
      "anonymous": false,
      "inputs": [
        {
          "indexed": true,
          "name": "from",
          "type": "address"
        },
        {
          "indexed": true,
          "name": "to",
          "type": "address"
        },
        {
          "indexed": true,
          "name": "assetId",
          "type": "uint256"
        },
        {
          "indexed": false,
          "name": "operator",
          "type": "address"
        },
        {
          "indexed": false,
          "name": "userData",
          "type": "bytes"
        }
      ],
      "name": "Transfer",
      "type": "event"
    },
    {
      "anonymous": false,
      "inputs": [
        {
          "indexed": true,
          "name": "from",
          "type": "address"
        },
        {
          "indexed": true,
          "name": "to",
          "type": "address"
        },
        {
          "indexed": true,
          "name": "assetId",
          "type": "uint256"
        }
      ],
      "name": "Transfer",
      "type": "event"
    },
    {
      "anonymous": false,
      "inputs": [
        {
          "indexed": true,
          "name": "holder",
          "type": "address"
        },
        {
          "indexed": true,
          "name": "operator",
          "type": "address"
        },
        {
          "indexed": false,
          "name": "authorized",
          "type": "bool"
        }
      ],
      "name": "ApprovalForAll",
      "type": "event"
    },
    {
      "anonymous": false,
      "inputs": [
        {
          "indexed": true,
          "name": "owner",
          "type": "address"
        },
        {
          "indexed": true,
          "name": "operator",
          "type": "address"
        },
        {
          "indexed": true,
          "name": "assetId",
          "type": "uint256"
        }
      ],
      "name": "Approval",
      "type": "event"
    },
    {
      "constant": true,
      "inputs": [],
      "name": "totalSupply",
      "outputs": [
        {
          "name": "",
          "type": "uint256"
        }
      ],
      "payable": false,
      "stateMutability": "view",
      "type": "function"
    },
    {
      "constant": true,
      "inputs": [
        {
          "name": "assetId",
          "type": "uint256"
        }
      ],
      "name": "ownerOf",
      "outputs": [
        {
          "name": "",
          "type": "address"
        }
      ],
      "payable": false,
      "stateMutability": "view",
      "type": "function"
    },
    {
      "constant": true,
      "inputs": [
        {
          "name": "owner",
          "type": "address"
        }
      ],
      "name": "balanceOf",
      "outputs": [
        {
          "name": "",
          "type": "uint256"
        }
      ],
      "payable": false,
      "stateMutability": "view",
      "type": "function"
    },
    {
      "constant": true,
      "inputs": [
        {
          "name": "assetHolder",
          "type": "address"
        },
        {
          "name": "operator",
          "type": "address"
        }
      ],
      "name": "isApprovedForAll",
      "outputs": [
        {
          "name": "",
          "type": "bool"
        }
      ],
      "payable": false,
      "stateMutability": "view",
      "type": "function"
    },
    {
      "constant": true,
      "inputs": [
        {
          "name": "assetId",
          "type": "uint256"
        }
      ],
      "name": "getApproved",
      "outputs": [
        {
          "name": "",
          "type": "address"
        }
      ],
      "payable": false,
      "stateMutability": "view",
      "type": "function"
    },
    {
      "constant": true,
      "inputs": [
        {
          "name": "assetId",
          "type": "uint256"
        }
      ],
      "name": "getApprovedAddress",
      "outputs": [
        {
          "name": "",
          "type": "address"
        }
      ],
      "payable": false,
      "stateMutability": "view",
      "type": "function"
    },
    {
      "constant": true,
      "inputs": [
        {
          "name": "operator",
          "type": "address"
        },
        {
          "name": "assetId",
          "type": "uint256"
        }
      ],
      "name": "isAuthorized",
      "outputs": [
        {
          "name": "",
          "type": "bool"
        }
      ],
      "payable": false,
      "stateMutability": "view",
      "type": "function"
    },
    {
      "constant": false,
      "inputs": [
        {
          "name": "operator",
          "type": "address"
        },
        {
          "name": "authorized",
          "type": "bool"
        }
      ],
      "name": "setApprovalForAll",
      "outputs": [],
      "payable": false,
      "stateMutability": "nonpayable",
      "type": "function"
    },
    {
      "constant": false,
      "inputs": [
        {
          "name": "operator",
          "type": "address"
        },
        {
          "name": "assetId",
          "type": "uint256"
        }
      ],
      "name": "approve",
      "outputs": [],
      "payable": false,
      "stateMutability": "nonpayable",
      "type": "function"
    },
    {
      "constant": false,
      "inputs": [
        {
          "name": "from",
          "type": "address"
        },
        {
          "name": "to",
          "type": "address"
        },
        {
          "name": "assetId",
          "type": "uint256"
        }
      ],
      "name": "safeTransferFrom",
      "outputs": [],
      "payable": false,
      "stateMutability": "nonpayable",
      "type": "function"
    },
    {
      "constant": false,
      "inputs": [
        {
          "name": "from",
          "type": "address"
        },
        {
          "name": "to",
          "type": "address"
        },
        {
          "name": "assetId",
          "type": "uint256"
        },
        {
          "name": "userData",
          "type": "bytes"
        }
      ],
      "name": "safeTransferFrom",
      "outputs": [],
      "payable": false,
      "stateMutability": "nonpayable",
      "type": "function"
    },
    {
      "constant": false,
      "inputs": [
        {
          "name": "from",
          "type": "address"
        },
        {
          "name": "to",
          "type": "address"
        },
        {
          "name": "assetId",
          "type": "uint256"
        }
      ],
      "name": "transferFrom",
      "outputs": [],
      "payable": false,
      "stateMutability": "nonpayable",
      "type": "function"
    },
    {
      "constant": true,
      "inputs": [
        {
          "name": "_interfaceID",
          "type": "bytes4"
        }
      ],
      "name": "supportsInterface",
      "outputs": [
        {
          "name": "",
          "type": "bool"
        }
      ],
      "payable": false,
      "stateMutability": "view",
      "type": "function"
    }
  ],
  "bytecode": "0x608060405234801561001057600080fd5b506117a6806100206000396000f3006080604052600436106100c5576000357c0100000000000000000000000000000000000000000000000000000000900463ffffffff16806301ffc9a7146100ca578063081812fc1461012e578063095ea7b31461019b57806318160ddd146101e857806323b872dd146102135780632972b0f01461028057806342842e0e146102e55780636352211e1461035257806370a08231146103bf578063a22cb46514610416578063b88d4fde14610465578063e985e9c5146104ea578063eca4742a14610565575b600080fd5b3480156100d657600080fd5b5061011460048036038101908080357bffffffffffffffffffffffffffffffffffffffffffffffffffffffff191690602001909291905050506105d2565b604051808215151515815260200191505060405180910390f35b34801561013a57600080fd5b5061015960048036038101908080359060200190929190505050610769565b604051808273ffffffffffffffffffffffffffffffffffffffff1673ffffffffffffffffffffffffffffffffffffffff16815260200191505060405180910390f35b3480156101a757600080fd5b506101e6600480360381019080803573ffffffffffffffffffffffffffffffffffffffff1690602001909291908035906020019092919050505061077b565b005b3480156101f457600080fd5b506101fd6108fe565b6040518082815260200191505060405180910390f35b34801561021f57600080fd5b5061027e600480360381019080803573ffffffffffffffffffffffffffffffffffffffff169060200190929190803573ffffffffffffffffffffffffffffffffffffffff1690602001909291908035906020019092919050505061090d565b005b34801561028c57600080fd5b506102cb600480360381019080803573ffffffffffffffffffffffffffffffffffffffff16906020019092919080359060200190929190505050610930565b604051808215151515815260200191505060405180910390f35b3480156102f157600080fd5b50610350600480360381019080803573ffffffffffffffffffffffffffffffffffffffff169060200190929190803573ffffffffffffffffffffffffffffffffffffffff16906020019092919080359060200190929190505050610944565b005b34801561035e57600080fd5b5061037d60048036038101908080359060200190929190505050610967565b604051808273ffffffffffffffffffffffffffffffffffffffff1673ffffffffffffffffffffffffffffffffffffffff16815260200191505060405180910390f35b3480156103cb57600080fd5b50610400600480360381019080803573ffffffffffffffffffffffffffffffffffffffff169060200190929190505050610979565b6040518082815260200191505060405180910390f35b34801561042257600080fd5b50610463600480360381019080803573ffffffffffffffffffffffffffffffffffffffff16906020019092919080351515906020019092919050505061098b565b005b34801561047157600080fd5b506104e8600480360381019080803573ffffffffffffffffffffffffffffffffffffffff169060200190929190803573ffffffffffffffffffffffffffffffffffffffff16906020019092919080359060200190929190803590602001908201803590602001919091929391929390505050610999565b005b3480156104f657600080fd5b5061054b600480360381019080803573ffffffffffffffffffffffffffffffffffffffff169060200190929190803573ffffffffffffffffffffffffffffffffffffffff1690602001909291905050506109e0565b604051808215151515815260200191505060405180910390f35b34801561057157600080fd5b50610590600480360381019080803590602001909291905050506109f4565b604051808273ffffffffffffffffffffffffffffffffffffffff1673ffffffffffffffffffffffffffffffffffffffff16815260200191505060405180910390f35b600063ffffffff7c010000000000000000000000000000000000000000000000000000000002827bffffffffffffffffffffffffffffffffffffffffffffffffffffffff191614156106275760009050610764565b6301ffc9a77c0100000000000000000000000000000000000000000000000000000000027bffffffffffffffffffffffffffffffffffffffffffffffffffffffff1916827bffffffffffffffffffffffffffffffffffffffffffffffffffffffff191614806106f65750637c0633c67c0100000000000000000000000000000000000000000000000000000000027bffffffffffffffffffffffffffffffffffffffffffffffffffffffff1916827bffffffffffffffffffffffffffffffffffffffffffffffffffffffff1916145b8061076157506380ac58cd7c0100000000000000000000000000000000000000000000000000000000027bffffffffffffffffffffffffffffffffffffffffffffffffffffffff1916827bffffffffffffffffffffffffffffffffffffffffffffffffffffffff1916145b90505b919050565b600061077482610a06565b9050919050565b600061078682610a43565b90508073ffffffffffffffffffffffffffffffffffffffff163373ffffffffffffffffffffffffffffffffffffffff1614806107c857506107c73382610a80565b5b15156107d357600080fd5b8073ffffffffffffffffffffffffffffffffffffffff168373ffffffffffffffffffffffffffffffffffffffff161415151561080e57600080fd5b8273ffffffffffffffffffffffffffffffffffffffff1661082e83610a06565b73ffffffffffffffffffffffffffffffffffffffff161415156108f957826009600084815260200190815260200160002060006101000a81548173ffffffffffffffffffffffffffffffffffffffff021916908373ffffffffffffffffffffffffffffffffffffffff160217905550818373ffffffffffffffffffffffffffffffffffffffff168273ffffffffffffffffffffffffffffffffffffffff167f8c5be1e5ebec7d5bd14f71427d1e84f3dd0314c0f7b2291e5b200ac8c7c3b92560405160405180910390a45b505050565b6000610908610b14565b905090565b61092b83838360206040519081016040528060008152506000610b1e565b505050565b600061093c8383610b49565b905092915050565b61096283838360206040519081016040528060008152506001610b1e565b505050565b600061097282610a43565b9050919050565b600061098482610c0c565b9050919050565b6109958282610c58565b5050565b6109d985858585858080601f0160208091040260200160405190810160405280939291908181526020018383808284378201915050505050506001610b1e565b5050505050565b60006109ec8383610a80565b905092915050565b60006109ff82610a06565b9050919050565b60006009600083815260200190815260200160002060009054906101000a900473ffffffffffffffffffffffffffffffffffffffff169050919050565b60006005600083815260200190815260200160002060009054906101000a900473ffffffffffffffffffffffffffffffffffffffff169050919050565b6000600860008473ffffffffffffffffffffffffffffffffffffffff1673ffffffffffffffffffffffffffffffffffffffff16815260200190815260200160002060008373ffffffffffffffffffffffffffffffffffffffff1673ffffffffffffffffffffffffffffffffffffffff16815260200190815260200160002060009054906101000a900460ff16905092915050565b6000600354905090565b82610b293382610b49565b1515610b3457600080fd5b610b418686868686610d10565b505050505050565b60008060008473ffffffffffffffffffffffffffffffffffffffff1614151515610b7257600080fd5b610b7b83610a43565b90508073ffffffffffffffffffffffffffffffffffffffff168473ffffffffffffffffffffffffffffffffffffffff161415610bba5760019150610c05565b610bc48185610a80565b80610c0257508373ffffffffffffffffffffffffffffffffffffffff16610bea84610a06565b73ffffffffffffffffffffffffffffffffffffffff16145b91505b5092915050565b6000600460008373ffffffffffffffffffffffffffffffffffffffff1673ffffffffffffffffffffffffffffffffffffffff168152602001908152602001600020805490509050919050565b8015610c8357610c683383610a80565b151515610c7457600080fd5b610c7e8233611083565b610ca3565b610c8d3383610a80565b1515610c9857600080fd5b610ca2823361111c565b5b8173ffffffffffffffffffffffffffffffffffffffff163373ffffffffffffffffffffffffffffffffffffffff167f17307eab39ab6107e8899845ad3d59bd9653f200f220920489ca2b5937696c3183604051808215151515815260200191505060405180910390a35050565b60008460008173ffffffffffffffffffffffffffffffffffffffff1614151515610d3957600080fd5b84868073ffffffffffffffffffffffffffffffffffffffff16610d5b83610a43565b73ffffffffffffffffffffffffffffffffffffffff1614151515610d7e57600080fd5b88878173ffffffffffffffffffffffffffffffffffffffff16610da082610a43565b73ffffffffffffffffffffffffffffffffffffffff16141515610dc257600080fd5b600560008a815260200190815260200160002060009054906101000a900473ffffffffffffffffffffffffffffffffffffffff169550610e02868a6111b5565b610e0c868a6112e5565b610e168a8a6115bf565b888a73ffffffffffffffffffffffffffffffffffffffff168773ffffffffffffffffffffffffffffffffffffffff167fddf252ad1be2c89b69c2b068fc378daa952ba7f163c4a11628f55a4df523b3ef60405160405180910390a4868015610e835750610e828a6116c0565b5b156110765763150b7a027c0100000000000000000000000000000000000000000000000000000000027bffffffffffffffffffffffffffffffffffffffffffffffffffffffff19168a73ffffffffffffffffffffffffffffffffffffffff1663150b7a0233898d8d6040518563ffffffff167c0100000000000000000000000000000000000000000000000000000000028152600401808573ffffffffffffffffffffffffffffffffffffffff1673ffffffffffffffffffffffffffffffffffffffff1681526020018473ffffffffffffffffffffffffffffffffffffffff1673ffffffffffffffffffffffffffffffffffffffff16815260200183815260200180602001828103825283818151815260200191508051906020019080838360005b83811015610fc0578082015181840152602081019050610fa5565b50505050905090810190601f168015610fed5780820380516001836020036101000a031916815260200191505b5095505050505050602060405180830381600087803b15801561100f57600080fd5b505af1158015611023573d6000803e3d6000fd5b505050506040513d602081101561103957600080fd5b81019080805190602001909291905050507bffffffffffffffffffffffffffffffffffffffffffffffffffffffff191614151561107557600080fd5b5b5050505050505050505050565b6001600860008373ffffffffffffffffffffffffffffffffffffffff1673ffffffffffffffffffffffffffffffffffffffff16815260200190815260200160002060008473ffffffffffffffffffffffffffffffffffffffff1673ffffffffffffffffffffffffffffffffffffffff16815260200190815260200160002060006101000a81548160ff0219169083151502179055505050565b6000600860008373ffffffffffffffffffffffffffffffffffffffff1673ffffffffffffffffffffffffffffffffffffffff16815260200190815260200160002060008473ffffffffffffffffffffffffffffffffffffffff1673ffffffffffffffffffffffffffffffffffffffff16815260200190815260200160002060006101000a81548160ff0219169083151502179055505050565b8173ffffffffffffffffffffffffffffffffffffffff166111d582610a43565b73ffffffffffffffffffffffffffffffffffffffff16148015611242575060006009600083815260200190815260200160002060009054906101000a900473ffffffffffffffffffffffffffffffffffffffff1673ffffffffffffffffffffffffffffffffffffffff1614155b156112e15760006009600083815260200190815260200160002060006101000a81548173ffffffffffffffffffffffffffffffffffffffff021916908373ffffffffffffffffffffffffffffffffffffffff1602179055508060008373ffffffffffffffffffffffffffffffffffffffff167f8c5be1e5ebec7d5bd14f71427d1e84f3dd0314c0f7b2291e5b200ac8c7c3b92560405160405180910390a45b5050565b60008060006006600085815260200190815260200160002054925061131c600161130e87610c0c565b6116d390919063ffffffff16565b9150600460008673ffffffffffffffffffffffffffffffffffffffff1673ffffffffffffffffffffffffffffffffffffffff1681526020019081526020016000208281548110151561136a57fe5b9060005260206000200154905060006005600086815260200190815260200160002060006101000a81548173ffffffffffffffffffffffffffffffffffffffff021916908373ffffffffffffffffffffffffffffffffffffffff16021790555080600460008773ffffffffffffffffffffffffffffffffffffffff1673ffffffffffffffffffffffffffffffffffffffff1681526020019081526020016000208481548110151561141757fe5b90600052602060002001819055506000600460008773ffffffffffffffffffffffffffffffffffffffff1673ffffffffffffffffffffffffffffffffffffffff1681526020019081526020016000208381548110151561147357fe5b9060005260206000200181905550600460008673ffffffffffffffffffffffffffffffffffffffff1673ffffffffffffffffffffffffffffffffffffffff1681526020019081526020016000208054809190600190036114d39190611708565b506000600460008773ffffffffffffffffffffffffffffffffffffffff1673ffffffffffffffffffffffffffffffffffffffff16815260200190815260200160002080549050141561156b57600460008673ffffffffffffffffffffffffffffffffffffffff1673ffffffffffffffffffffffffffffffffffffffff168152602001908152602001600020600061156a9190611734565b5b600060066000868152602001908152602001600020819055508260066000838152602001908152602001600020819055506115b260016003546116d390919063ffffffff16565b6003819055505050505050565b6000826005600084815260200190815260200160002060006101000a81548173ffffffffffffffffffffffffffffffffffffffff021916908373ffffffffffffffffffffffffffffffffffffffff16021790555061161c83610c0c565b9050600460008473ffffffffffffffffffffffffffffffffffffffff1673ffffffffffffffffffffffffffffffffffffffff1681526020019081526020016000208290806001815401808255809150509060018203906000526020600020016000909192909190915055508060066000848152602001908152602001600020819055506116b560016003546116ec90919063ffffffff16565b600381905550505050565b600080823b905060008111915050919050565b60008282111515156116e157fe5b818303905092915050565b600081830190508281101515156116ff57fe5b80905092915050565b81548183558181111561172f5781836000526020600020918201910161172e9190611755565b5b505050565b50805460008255906000526020600020908101906117529190611755565b50565b61177791905b8082111561177357600081600090555060010161175b565b5090565b905600a165627a7a72305820c376a609ba5743166dbbf50356e8ca4bba46c01b4a955ef88d3887d70a38bd6b0029",
  "source": "pragma solidity ^0.4.18;\n\nimport 'openzeppelin-solidity/contracts/math/SafeMath.sol';\n\nimport './AssetRegistryStorage.sol';\n\nimport './IERC721Base.sol';\n\nimport './IERC721Receiver.sol';\n\nimport './ERC165.sol';\n\ncontract ERC721Base is AssetRegistryStorage, IERC721Base, ERC165 {\n  using SafeMath for uint256;\n\n  // Equals to `bytes4(keccak256(\"onERC721Received(address,address,uint256,bytes)\"))`\n  bytes4 private constant ERC721_RECEIVED = 0x150b7a02;\n\n  bytes4 private constant InterfaceId_ERC165 = 0x01ffc9a7;\n  /*\n   * 0x01ffc9a7 ===\n   *   bytes4(keccak256('supportsInterface(bytes4)'))\n   */\n\n  bytes4 private constant Old_InterfaceId_ERC721 = 0x7c0633c6;\n  bytes4 private constant InterfaceId_ERC721 = 0x80ac58cd;\n   /*\n   * 0x80ac58cd ===\n   *   bytes4(keccak256('balanceOf(address)')) ^\n   *   bytes4(keccak256('ownerOf(uint256)')) ^\n   *   bytes4(keccak256('approve(address,uint256)')) ^\n   *   bytes4(keccak256('getApproved(uint256)')) ^\n   *   bytes4(keccak256('setApprovalForAll(address,bool)')) ^\n   *   bytes4(keccak256('isApprovedForAll(address,address)')) ^\n   *   bytes4(keccak256('transferFrom(address,address,uint256)')) ^\n   *   bytes4(keccak256('safeTransferFrom(address,address,uint256)')) ^\n   *   bytes4(keccak256('safeTransferFrom(address,address,uint256,bytes)'))\n   */\n\n  //\n  // Global Getters\n  //\n\n  /**\n   * @dev Gets the total amount of assets stored by the contract\n   * @return uint256 representing the total amount of assets\n   */\n  function totalSupply() external view returns (uint256) {\n    return _totalSupply();\n  }\n  function _totalSupply() internal view returns (uint256) {\n    return _count;\n  }\n\n  //\n  // Asset-centric getter functions\n  //\n\n  /**\n   * @dev Queries what address owns an asset. This method does not throw.\n   * In order to check if the asset exists, use the `exists` function or check if the\n   * return value of this call is `0`.\n   * @return uint256 the assetId\n   */\n  function ownerOf(uint256 assetId) external view returns (address) {\n    return _ownerOf(assetId);\n  }\n  function _ownerOf(uint256 assetId) internal view returns (address) {\n    return _holderOf[assetId];\n  }\n\n  //\n  // Holder-centric getter functions\n  //\n  /**\n   * @dev Gets the balance of the specified address\n   * @param owner address to query the balance of\n   * @return uint256 representing the amount owned by the passed address\n   */\n  function balanceOf(address owner) external view returns (uint256) {\n    return _balanceOf(owner);\n  }\n  function _balanceOf(address owner) internal view returns (uint256) {\n    return _assetsOf[owner].length;\n  }\n\n  //\n  // Authorization getters\n  //\n\n  /**\n   * @dev Query whether an address has been authorized to move any assets on behalf of someone else\n   * @param operator the address that might be authorized\n   * @param assetHolder the address that provided the authorization\n   * @return bool true if the operator has been authorized to move any assets\n   */\n  function isApprovedForAll(address assetHolder, address operator)\n    external view returns (bool)\n  {\n    return _isApprovedForAll(assetHolder, operator);\n  }\n  function _isApprovedForAll(address assetHolder, address operator)\n    internal view returns (bool)\n  {\n    return _operators[assetHolder][operator];\n  }\n\n  /**\n   * @dev Query what address has been particularly authorized to move an asset\n   * @param assetId the asset to be queried for\n   * @return bool true if the asset has been approved by the holder\n   */\n  function getApproved(uint256 assetId) external view returns (address) {\n    return _getApprovedAddress(assetId);\n  }\n  function getApprovedAddress(uint256 assetId) external view returns (address) {\n    return _getApprovedAddress(assetId);\n  }\n  function _getApprovedAddress(uint256 assetId) internal view returns (address) {\n    return _approval[assetId];\n  }\n\n  /**\n   * @dev Query if an operator can move an asset.\n   * @param operator the address that might be authorized\n   * @param assetId the asset that has been `approved` for transfer\n   * @return bool true if the asset has been approved by the holder\n   */\n  function isAuthorized(address operator, uint256 assetId) external view returns (bool) {\n    return _isAuthorized(operator, assetId);\n  }\n  function _isAuthorized(address operator, uint256 assetId) internal view returns (bool)\n  {\n    require(operator != 0);\n    address owner = _ownerOf(assetId);\n    if (operator == owner) {\n      return true;\n    }\n    return _isApprovedForAll(owner, operator) || _getApprovedAddress(assetId) == operator;\n  }\n\n  //\n  // Authorization\n  //\n\n  /**\n   * @dev Authorize a third party operator to manage (send) msg.sender's asset\n   * @param operator address to be approved\n   * @param authorized bool set to true to authorize, false to withdraw authorization\n   */\n  function setApprovalForAll(address operator, bool authorized) external {\n    return _setApprovalForAll(operator, authorized);\n  }\n  function _setApprovalForAll(address operator, bool authorized) internal {\n    if (authorized) {\n      require(!_isApprovedForAll(msg.sender, operator));\n      _addAuthorization(operator, msg.sender);\n    } else {\n      require(_isApprovedForAll(msg.sender, operator));\n      _clearAuthorization(operator, msg.sender);\n    }\n    emit ApprovalForAll(msg.sender, operator, authorized);\n  }\n\n  /**\n   * @dev Authorize a third party operator to manage one particular asset\n   * @param operator address to be approved\n   * @param assetId asset to approve\n   */\n  function approve(address operator, uint256 assetId) external {\n    address holder = _ownerOf(assetId);\n    require(msg.sender == holder || _isApprovedForAll(msg.sender, holder));\n    require(operator != holder);\n\n    if (_getApprovedAddress(assetId) != operator) {\n      _approval[assetId] = operator;\n      emit Approval(holder, operator, assetId);\n    }\n  }\n\n  function _addAuthorization(address operator, address holder) private {\n    _operators[holder][operator] = true;\n  }\n\n  function _clearAuthorization(address operator, address holder) private {\n    _operators[holder][operator] = false;\n  }\n\n  //\n  // Internal Operations\n  //\n\n  function _addAssetTo(address to, uint256 assetId) internal {\n    _holderOf[assetId] = to;\n\n    uint256 length = _balanceOf(to);\n\n    _assetsOf[to].push(assetId);\n\n    _indexOfAsset[assetId] = length;\n\n    _count = _count.add(1);\n  }\n\n  function _removeAssetFrom(address from, uint256 assetId) internal {\n    uint256 assetIndex = _indexOfAsset[assetId];\n    uint256 lastAssetIndex = _balanceOf(from).sub(1);\n    uint256 lastAssetId = _assetsOf[from][lastAssetIndex];\n\n    _holderOf[assetId] = 0;\n\n    // Insert the last asset into the position previously occupied by the asset to be removed\n    _assetsOf[from][assetIndex] = lastAssetId;\n\n    // Resize the array\n    _assetsOf[from][lastAssetIndex] = 0;\n    _assetsOf[from].length--;\n\n    // Remove the array if no more assets are owned to prevent pollution\n    if (_assetsOf[from].length == 0) {\n      delete _assetsOf[from];\n    }\n\n    // Update the index of positions for the asset\n    _indexOfAsset[assetId] = 0;\n    _indexOfAsset[lastAssetId] = assetIndex;\n\n    _count = _count.sub(1);\n  }\n\n  function _clearApproval(address holder, uint256 assetId) internal {\n    if (_ownerOf(assetId) == holder && _approval[assetId] != 0) {\n      _approval[assetId] = 0;\n      emit Approval(holder, 0, assetId);\n    }\n  }\n\n  //\n  // Supply-altering functions\n  //\n\n  function _generate(uint256 assetId, address beneficiary) internal {\n    require(_holderOf[assetId] == 0);\n\n    _addAssetTo(beneficiary, assetId);\n\n    emit Transfer(0, beneficiary, assetId);\n  }\n\n  function _destroy(uint256 assetId) internal {\n    address holder = _holderOf[assetId];\n    require(holder != 0);\n\n    _removeAssetFrom(holder, assetId);\n\n    emit Transfer(holder, 0, assetId);\n  }\n\n  //\n  // Transaction related operations\n  //\n\n  modifier onlyHolder(uint256 assetId) {\n    require(_ownerOf(assetId) == msg.sender);\n    _;\n  }\n\n  modifier onlyAuthorized(uint256 assetId) {\n    require(_isAuthorized(msg.sender, assetId));\n    _;\n  }\n\n  modifier isCurrentOwner(address from, uint256 assetId) {\n    require(_ownerOf(assetId) == from);\n    _;\n  }\n\n  modifier isDestinataryDefined(address destinatary) {\n    require(destinatary != 0);\n    _;\n  }\n\n  modifier destinataryIsNotHolder(uint256 assetId, address to) {\n    require(_ownerOf(assetId) != to);\n    _;\n  }\n\n  /**\n   * @dev Alias of `safeTransferFrom(from, to, assetId, '')`\n   *\n   * @param from address that currently owns an asset\n   * @param to address to receive the ownership of the asset\n   * @param assetId uint256 ID of the asset to be transferred\n   */\n  function safeTransferFrom(address from, address to, uint256 assetId) external {\n    return _doTransferFrom(from, to, assetId, '', true);\n  }\n\n  /**\n   * @dev Securely transfers the ownership of a given asset from one address to\n   * another address, calling the method `onNFTReceived` on the target address if\n   * there's code associated with it\n   *\n   * @param from address that currently owns an asset\n   * @param to address to receive the ownership of the asset\n   * @param assetId uint256 ID of the asset to be transferred\n   * @param userData bytes arbitrary user information to attach to this transfer\n   */\n  function safeTransferFrom(address from, address to, uint256 assetId, bytes userData) external {\n    return _doTransferFrom(from, to, assetId, userData, true);\n  }\n\n  /**\n   * @dev Transfers the ownership of a given asset from one address to another address\n   * Warning! This function does not attempt to verify that the target address can send\n   * tokens.\n   *\n   * @param from address sending the asset\n   * @param to address to receive the ownership of the asset\n   * @param assetId uint256 ID of the asset to be transferred\n   */\n  function transferFrom(address from, address to, uint256 assetId) external {\n    return _doTransferFrom(from, to, assetId, '', false);\n  }\n\n  function _doTransferFrom(\n    address from,\n    address to,\n    uint256 assetId,\n    bytes userData,\n    bool doCheck\n  )\n    onlyAuthorized(assetId)\n    internal\n  {\n    _moveToken(from, to, assetId, userData, doCheck);\n  }\n\n  function _moveToken(\n    address from,\n    address to,\n    uint256 assetId,\n    bytes userData,\n    bool doCheck\n  )\n    isDestinataryDefined(to)\n    destinataryIsNotHolder(assetId, to)\n    isCurrentOwner(from, assetId)\n    private\n  {\n    address holder = _holderOf[assetId];\n    _clearApproval(holder, assetId);\n    _removeAssetFrom(holder, assetId);\n    _addAssetTo(to, assetId);\n    emit Transfer(holder, to, assetId);\n\n    if (doCheck && _isContract(to)) {\n      // Equals to `bytes4(keccak256(\"onERC721Received(address,address,uint256,bytes)\"))\n      require(\n        IERC721Receiver(to).onERC721Received(\n          msg.sender, holder, assetId, userData\n        ) == ERC721_RECEIVED\n      );\n    }\n  }\n\n  /**\n   * Internal function that moves an asset from one holder to another\n   */\n\n  /**\n   * @dev Returns `true` if the contract implements `interfaceID` and `interfaceID` is not 0xffffffff, `false` otherwise\n   * @param  _interfaceID The interface identifier, as specified in ERC-165\n   */\n  function supportsInterface(bytes4 _interfaceID) external view returns (bool) {\n\n    if (_interfaceID == 0xffffffff) {\n      return false;\n    }\n    return _interfaceID == InterfaceId_ERC165 || _interfaceID == Old_InterfaceId_ERC721 || _interfaceID == InterfaceId_ERC721;\n  }\n\n  //\n  // Utilities\n  //\n\n  function _isContract(address addr) internal view returns (bool) {\n    uint size;\n    assembly { size := extcodesize(addr) }\n    return size > 0;\n  }\n}\n",
  "sourcePath": "erc821\\contracts\\ERC721Base.sol",
  "compiler": {
    "name": "solc",
    "version": "0.4.24+commit.e67f0147.Emscripten.clang"
  },
  "schemaVersion": "3.4.4",
  "updatedAt": "2022-02-04T19:49:00.205Z",
  "devdoc": {
    "methods": {
      "approve(address,uint256)": {
        "details": "Authorize a third party operator to manage one particular asset",
        "params": {
          "assetId": "asset to approve",
          "operator": "address to be approved"
        }
      },
      "balanceOf(address)": {
        "details": "Gets the balance of the specified address",
        "params": {
          "owner": "address to query the balance of"
        },
        "return": "uint256 representing the amount owned by the passed address"
      },
      "getApproved(uint256)": {
        "details": "Query what address has been particularly authorized to move an asset",
        "params": {
          "assetId": "the asset to be queried for"
        },
        "return": "bool true if the asset has been approved by the holder"
      },
      "isApprovedForAll(address,address)": {
        "details": "Query whether an address has been authorized to move any assets on behalf of someone else",
        "params": {
          "assetHolder": "the address that provided the authorization",
          "operator": "the address that might be authorized"
        },
        "return": "bool true if the operator has been authorized to move any assets"
      },
      "isAuthorized(address,uint256)": {
        "details": "Query if an operator can move an asset.",
        "params": {
          "assetId": "the asset that has been `approved` for transfer",
          "operator": "the address that might be authorized"
        },
        "return": "bool true if the asset has been approved by the holder"
      },
      "ownerOf(uint256)": {
        "details": "Queries what address owns an asset. This method does not throw. In order to check if the asset exists, use the `exists` function or check if the return value of this call is `0`.",
        "return": "uint256 the assetId"
      },
      "safeTransferFrom(address,address,uint256)": {
        "details": "Alias of `safeTransferFrom(from, to, assetId, '')`",
        "params": {
          "assetId": "uint256 ID of the asset to be transferred",
          "from": "address that currently owns an asset",
          "to": "address to receive the ownership of the asset"
        }
      },
      "safeTransferFrom(address,address,uint256,bytes)": {
        "details": "Securely transfers the ownership of a given asset from one address to another address, calling the method `onNFTReceived` on the target address if there's code associated with it",
        "params": {
          "assetId": "uint256 ID of the asset to be transferred",
          "from": "address that currently owns an asset",
          "to": "address to receive the ownership of the asset",
          "userData": "bytes arbitrary user information to attach to this transfer"
        }
      },
      "setApprovalForAll(address,bool)": {
        "details": "Authorize a third party operator to manage (send) msg.sender's asset",
        "params": {
          "authorized": "bool set to true to authorize, false to withdraw authorization",
          "operator": "address to be approved"
        }
      },
      "supportsInterface(bytes4)": {
        "details": "Returns `true` if the contract implements `interfaceID` and `interfaceID` is not 0xffffffff, `false` otherwise",
        "params": {
          "_interfaceID": "The interface identifier, as specified in ERC-165"
        }
      },
      "totalSupply()": {
        "details": "Gets the total amount of assets stored by the contract",
        "return": "uint256 representing the total amount of assets"
      },
      "transferFrom(address,address,uint256)": {
        "details": "Transfers the ownership of a given asset from one address to another address Warning! This function does not attempt to verify that the target address can send tokens.",
        "params": {
          "assetId": "uint256 ID of the asset to be transferred",
          "from": "address sending the asset",
          "to": "address to receive the ownership of the asset"
        }
      }
    }
  },
  "userdoc": {
    "methods": {}
  }
}