{
  "contractName": "EstateRegistry",
  "abi": [
    {
      "constant": true,
      "inputs": [
        {
          "name": "_interfaceId",
          "type": "bytes4"
        }
      ],
      "name": "supportsInterface",
      "outputs": [
        {
          "name": "",
          "type": "bool"
        }
      ],
      "payable": false,
      "stateMutability": "view",
      "type": "function"
    },
    {
      "constant": true,
      "inputs": [],
      "name": "name",
      "outputs": [
        {
          "name": "",
          "type": "string"
        }
      ],
      "payable": false,
      "stateMutability": "view",
      "type": "function"
    },
    {
      "constant": true,
      "inputs": [
        {
          "name": "",
          "type": "address"
        },
        {
          "name": "",
          "type": "address"
        }
      ],
      "name": "updateManager",
      "outputs": [
        {
          "name": "",
          "type": "bool"
        }
      ],
      "payable": false,
      "stateMutability": "view",
      "type": "function"
    },
    {
      "constant": true,
      "inputs": [
        {
          "name": "_tokenId",
          "type": "uint256"
        }
      ],
      "name": "getApproved",
      "outputs": [
        {
          "name": "",
          "type": "address"
        }
      ],
      "payable": false,
      "stateMutability": "view",
      "type": "function"
    },
    {
      "constant": false,
      "inputs": [
        {
          "name": "_to",
          "type": "address"
        },
        {
          "name": "_tokenId",
          "type": "uint256"
        }
      ],
      "name": "approve",
      "outputs": [],
      "payable": false,
      "stateMutability": "nonpayable",
      "type": "function"
    },
    {
      "constant": true,
      "inputs": [
        {
          "name": "",
          "type": "uint256"
        }
      ],
      "name": "landIdEstate",
      "outputs": [
        {
          "name": "",
          "type": "uint256"
        }
      ],
      "payable": false,
      "stateMutability": "view",
      "type": "function"
    },
    {
      "constant": true,
      "inputs": [],
      "name": "totalSupply",
      "outputs": [
        {
          "name": "",
          "type": "uint256"
        }
      ],
      "payable": false,
      "stateMutability": "view",
      "type": "function"
    },
    {
      "constant": true,
      "inputs": [
        {
          "name": "_owner",
          "type": "address"
        },
        {
          "name": "_index",
          "type": "uint256"
        }
      ],
      "name": "tokenOfOwnerByIndex",
      "outputs": [
        {
          "name": "",
          "type": "uint256"
        }
      ],
      "payable": false,
      "stateMutability": "view",
      "type": "function"
    },
    {
      "constant": true,
      "inputs": [],
      "name": "estateLandBalance",
      "outputs": [
        {
          "name": "",
          "type": "address"
        }
      ],
      "payable": false,
      "stateMutability": "view",
      "type": "function"
    },
    {
      "constant": true,
      "inputs": [
        {
          "name": "",
          "type": "uint256"
        },
        {
          "name": "",
          "type": "uint256"
        }
      ],
      "name": "estateLandIds",
      "outputs": [
        {
          "name": "",
          "type": "uint256"
        }
      ],
      "payable": false,
      "stateMutability": "view",
      "type": "function"
    },
    {
      "constant": false,
      "inputs": [
        {
          "name": "_from",
          "type": "address"
        },
        {
          "name": "_to",
          "type": "address"
        },
        {
          "name": "_tokenId",
          "type": "uint256"
        }
      ],
      "name": "safeTransferFrom",
      "outputs": [],
      "payable": false,
      "stateMutability": "nonpayable",
      "type": "function"
    },
    {
      "constant": true,
      "inputs": [
        {
          "name": "_tokenId",
          "type": "uint256"
        }
      ],
      "name": "exists",
      "outputs": [
        {
          "name": "",
          "type": "bool"
        }
      ],
      "payable": false,
      "stateMutability": "view",
      "type": "function"
    },
    {
      "constant": true,
      "inputs": [
        {
          "name": "_index",
          "type": "uint256"
        }
      ],
      "name": "tokenByIndex",
      "outputs": [
        {
          "name": "",
          "type": "uint256"
        }
      ],
      "payable": false,
      "stateMutability": "view",
      "type": "function"
    },
    {
      "constant": true,
      "inputs": [
        {
          "name": "",
          "type": "address"
        }
      ],
      "name": "registeredBalance",
      "outputs": [
        {
          "name": "",
          "type": "bool"
        }
      ],
      "payable": false,
      "stateMutability": "view",
      "type": "function"
    },
    {
      "constant": true,
      "inputs": [
        {
          "name": "_tokenId",
          "type": "uint256"
        }
      ],
      "name": "ownerOf",
      "outputs": [
        {
          "name": "",
          "type": "address"
        }
      ],
      "payable": false,
      "stateMutability": "view",
      "type": "function"
    },
    {
      "constant": true,
      "inputs": [
        {
          "name": "_owner",
          "type": "address"
        }
      ],
      "name": "balanceOf",
      "outputs": [
        {
          "name": "",
          "type": "uint256"
        }
      ],
      "payable": false,
      "stateMutability": "view",
      "type": "function"
    },
    {
      "constant": true,
      "inputs": [],
      "name": "registry",
      "outputs": [
        {
          "name": "",
          "type": "address"
        }
      ],
      "payable": false,
      "stateMutability": "view",
      "type": "function"
    },
    {
      "constant": true,
      "inputs": [],
      "name": "owner",
      "outputs": [
        {
          "name": "",
          "type": "address"
        }
      ],
      "payable": false,
      "stateMutability": "view",
      "type": "function"
    },
    {
      "constant": true,
      "inputs": [],
      "name": "symbol",
      "outputs": [
        {
          "name": "",
          "type": "string"
        }
      ],
      "payable": false,
      "stateMutability": "view",
      "type": "function"
    },
    {
      "constant": true,
      "inputs": [
        {
          "name": "",
          "type": "uint256"
        }
      ],
      "name": "updateOperator",
      "outputs": [
        {
          "name": "",
          "type": "address"
        }
      ],
      "payable": false,
      "stateMutability": "view",
      "type": "function"
    },
    {
      "constant": true,
      "inputs": [
        {
          "name": "",
          "type": "uint256"
        },
        {
          "name": "",
          "type": "uint256"
        }
      ],
      "name": "estateLandIndex",
      "outputs": [
        {
          "name": "",
          "type": "uint256"
        }
      ],
      "payable": false,
      "stateMutability": "view",
      "type": "function"
    },
    {
      "constant": false,
      "inputs": [
        {
          "name": "_to",
          "type": "address"
        },
        {
          "name": "_approved",
          "type": "bool"
        }
      ],
      "name": "setApprovalForAll",
      "outputs": [],
      "payable": false,
      "stateMutability": "nonpayable",
      "type": "function"
    },
    {
      "constant": false,
      "inputs": [
        {
          "name": "_from",
          "type": "address"
        },
        {
          "name": "_to",
          "type": "address"
        },
        {
          "name": "_tokenId",
          "type": "uint256"
        },
        {
          "name": "_data",
          "type": "bytes"
        }
      ],
      "name": "safeTransferFrom",
      "outputs": [],
      "payable": false,
      "stateMutability": "nonpayable",
      "type": "function"
    },
    {
      "constant": true,
      "inputs": [
        {
          "name": "contractName",
          "type": "string"
        },
        {
          "name": "migrationId",
          "type": "string"
        }
      ],
      "name": "isMigrated",
      "outputs": [
        {
          "name": "",
          "type": "bool"
        }
      ],
      "payable": false,
      "stateMutability": "view",
      "type": "function"
    },
    {
      "constant": true,
      "inputs": [
        {
          "name": "_tokenId",
          "type": "uint256"
        }
      ],
      "name": "tokenURI",
      "outputs": [
        {
          "name": "",
          "type": "string"
        }
      ],
      "payable": false,
      "stateMutability": "view",
      "type": "function"
    },
    {
      "constant": true,
      "inputs": [
        {
          "name": "_owner",
          "type": "address"
        },
        {
          "name": "_operator",
          "type": "address"
        }
      ],
      "name": "isApprovedForAll",
      "outputs": [
        {
          "name": "",
          "type": "bool"
        }
      ],
      "payable": false,
      "stateMutability": "view",
      "type": "function"
    },
    {
      "constant": false,
      "inputs": [
        {
          "name": "newOwner",
          "type": "address"
        }
      ],
      "name": "transferOwnership",
      "outputs": [],
      "payable": false,
      "stateMutability": "nonpayable",
      "type": "function"
    },
    {
      "anonymous": false,
      "inputs": [
        {
          "indexed": true,
          "name": "previousOwner",
          "type": "address"
        },
        {
          "indexed": true,
          "name": "newOwner",
          "type": "address"
        }
      ],
      "name": "OwnershipTransferred",
      "type": "event"
    },
    {
      "anonymous": false,
      "inputs": [
        {
          "indexed": true,
          "name": "_from",
          "type": "address"
        },
        {
          "indexed": true,
          "name": "_to",
          "type": "address"
        },
        {
          "indexed": true,
          "name": "_tokenId",
          "type": "uint256"
        }
      ],
      "name": "Transfer",
      "type": "event"
    },
    {
      "anonymous": false,
      "inputs": [
        {
          "indexed": true,
          "name": "_owner",
          "type": "address"
        },
        {
          "indexed": true,
          "name": "_approved",
          "type": "address"
        },
        {
          "indexed": true,
          "name": "_tokenId",
          "type": "uint256"
        }
      ],
      "name": "Approval",
      "type": "event"
    },
    {
      "anonymous": false,
      "inputs": [
        {
          "indexed": true,
          "name": "_owner",
          "type": "address"
        },
        {
          "indexed": true,
          "name": "_operator",
          "type": "address"
        },
        {
          "indexed": false,
          "name": "_approved",
          "type": "bool"
        }
      ],
      "name": "ApprovalForAll",
      "type": "event"
    },
    {
      "anonymous": false,
      "inputs": [
        {
          "indexed": true,
          "name": "_owner",
          "type": "address"
        },
        {
          "indexed": true,
          "name": "_estateId",
          "type": "uint256"
        },
        {
          "indexed": false,
          "name": "_data",
          "type": "string"
        }
      ],
      "name": "CreateEstate",
      "type": "event"
    },
    {
      "anonymous": false,
      "inputs": [
        {
          "indexed": true,
          "name": "_estateId",
          "type": "uint256"
        },
        {
          "indexed": true,
          "name": "_landId",
          "type": "uint256"
        }
      ],
      "name": "AddLand",
      "type": "event"
    },
    {
      "anonymous": false,
      "inputs": [
        {
          "indexed": true,
          "name": "_estateId",
          "type": "uint256"
        },
        {
          "indexed": true,
          "name": "_landId",
          "type": "uint256"
        },
        {
          "indexed": true,
          "name": "_destinatary",
          "type": "address"
        }
      ],
      "name": "RemoveLand",
      "type": "event"
    },
    {
      "anonymous": false,
      "inputs": [
        {
          "indexed": true,
          "name": "_assetId",
          "type": "uint256"
        },
        {
          "indexed": true,
          "name": "_holder",
          "type": "address"
        },
        {
          "indexed": true,
          "name": "_operator",
          "type": "address"
        },
        {
          "indexed": false,
          "name": "_data",
          "type": "string"
        }
      ],
      "name": "Update",
      "type": "event"
    },
    {
      "anonymous": false,
      "inputs": [
        {
          "indexed": true,
          "name": "_estateId",
          "type": "uint256"
        },
        {
          "indexed": true,
          "name": "_operator",
          "type": "address"
        }
      ],
      "name": "UpdateOperator",
      "type": "event"
    },
    {
      "anonymous": false,
      "inputs": [
        {
          "indexed": true,
          "name": "_owner",
          "type": "address"
        },
        {
          "indexed": true,
          "name": "_operator",
          "type": "address"
        },
        {
          "indexed": true,
          "name": "_caller",
          "type": "address"
        },
        {
          "indexed": false,
          "name": "_approved",
          "type": "bool"
        }
      ],
      "name": "UpdateManager",
      "type": "event"
    },
    {
      "anonymous": false,
      "inputs": [
        {
          "indexed": true,
          "name": "_registry",
          "type": "address"
        }
      ],
      "name": "SetLANDRegistry",
      "type": "event"
    },
    {
      "anonymous": false,
      "inputs": [
        {
          "indexed": true,
          "name": "_previousEstateLandBalance",
          "type": "address"
        },
        {
          "indexed": true,
          "name": "_newEstateLandBalance",
          "type": "address"
        }
      ],
      "name": "SetEstateLandBalanceToken",
      "type": "event"
    },
    {
      "anonymous": false,
      "inputs": [
        {
          "indexed": false,
          "name": "contractName",
          "type": "string"
        },
        {
          "indexed": false,
          "name": "migrationId",
          "type": "string"
        }
      ],
      "name": "Migrated",
      "type": "event"
    },
    {
      "constant": false,
      "inputs": [
        {
          "name": "to",
          "type": "address"
        },
        {
          "name": "metadata",
          "type": "string"
        }
      ],
      "name": "mint",
      "outputs": [
        {
          "name": "",
          "type": "uint256"
        }
      ],
      "payable": false,
      "stateMutability": "nonpayable",
      "type": "function"
    },
    {
      "constant": false,
      "inputs": [
        {
          "name": "estateId",
          "type": "uint256"
        },
        {
          "name": "landId",
          "type": "uint256"
        },
        {
          "name": "destinatary",
          "type": "address"
        }
      ],
      "name": "transferLand",
      "outputs": [],
      "payable": false,
      "stateMutability": "nonpayable",
      "type": "function"
    },
    {
      "constant": false,
      "inputs": [
        {
          "name": "estateId",
          "type": "uint256"
        },
        {
          "name": "landIds",
          "type": "uint256[]"
        },
        {
          "name": "destinatary",
          "type": "address"
        }
      ],
      "name": "transferManyLands",
      "outputs": [],
      "payable": false,
      "stateMutability": "nonpayable",
      "type": "function"
    },
    {
      "constant": true,
      "inputs": [
        {
          "name": "landId",
          "type": "uint256"
        }
      ],
      "name": "getLandEstateId",
      "outputs": [
        {
          "name": "",
          "type": "uint256"
        }
      ],
      "payable": false,
      "stateMutability": "view",
      "type": "function"
    },
    {
      "constant": false,
      "inputs": [
        {
          "name": "_registry",
          "type": "address"
        }
      ],
      "name": "setLANDRegistry",
      "outputs": [],
      "payable": false,
      "stateMutability": "nonpayable",
      "type": "function"
    },
    {
      "constant": false,
      "inputs": [],
      "name": "ping",
      "outputs": [],
      "payable": false,
      "stateMutability": "nonpayable",
      "type": "function"
    },
    {
      "constant": true,
      "inputs": [
        {
          "name": "estateId",
          "type": "uint256"
        }
      ],
      "name": "getEstateSize",
      "outputs": [
        {
          "name": "",
          "type": "uint256"
        }
      ],
      "payable": false,
      "stateMutability": "view",
      "type": "function"
    },
    {
      "constant": true,
      "inputs": [
        {
          "name": "_owner",
          "type": "address"
        }
      ],
      "name": "getLANDsSize",
      "outputs": [
        {
          "name": "",
          "type": "uint256"
        }
      ],
      "payable": false,
      "stateMutability": "view",
      "type": "function"
    },
    {
      "constant": false,
      "inputs": [
        {
          "name": "estateId",
          "type": "uint256"
        },
        {
          "name": "metadata",
          "type": "string"
        }
      ],
      "name": "updateMetadata",
      "outputs": [],
      "payable": false,
      "stateMutability": "nonpayable",
      "type": "function"
    },
    {
      "constant": true,
      "inputs": [
        {
          "name": "estateId",
          "type": "uint256"
        }
      ],
      "name": "getMetadata",
      "outputs": [
        {
          "name": "",
          "type": "string"
        }
      ],
      "payable": false,
      "stateMutability": "view",
      "type": "function"
    },
    {
      "constant": true,
      "inputs": [
        {
          "name": "operator",
          "type": "address"
        },
        {
          "name": "estateId",
          "type": "uint256"
        }
      ],
      "name": "isUpdateAuthorized",
      "outputs": [
        {
          "name": "",
          "type": "bool"
        }
      ],
      "payable": false,
      "stateMutability": "view",
      "type": "function"
    },
    {
      "constant": false,
      "inputs": [
        {
          "name": "_owner",
          "type": "address"
        },
        {
          "name": "_operator",
          "type": "address"
        },
        {
          "name": "_approved",
          "type": "bool"
        }
      ],
      "name": "setUpdateManager",
      "outputs": [],
      "payable": false,
      "stateMutability": "nonpayable",
      "type": "function"
    },
    {
      "constant": false,
      "inputs": [
        {
          "name": "estateId",
          "type": "uint256"
        },
        {
          "name": "operator",
          "type": "address"
        }
      ],
      "name": "setUpdateOperator",
      "outputs": [],
      "payable": false,
      "stateMutability": "nonpayable",
      "type": "function"
    },
    {
      "constant": false,
      "inputs": [
        {
          "name": "_estateIds",
          "type": "uint256[]"
        },
        {
          "name": "_operator",
          "type": "address"
        }
      ],
      "name": "setManyUpdateOperator",
      "outputs": [],
      "payable": false,
      "stateMutability": "nonpayable",
      "type": "function"
    },
    {
      "constant": false,
      "inputs": [
        {
          "name": "estateId",
          "type": "uint256"
        },
        {
          "name": "landId",
          "type": "uint256"
        },
        {
          "name": "operator",
          "type": "address"
        }
      ],
      "name": "setLandUpdateOperator",
      "outputs": [],
      "payable": false,
      "stateMutability": "nonpayable",
      "type": "function"
    },
    {
      "constant": false,
      "inputs": [
        {
          "name": "_estateId",
          "type": "uint256"
        },
        {
          "name": "_landIds",
          "type": "uint256[]"
        },
        {
          "name": "_operator",
          "type": "address"
        }
      ],
      "name": "setManyLandUpdateOperator",
      "outputs": [],
      "payable": false,
      "stateMutability": "nonpayable",
      "type": "function"
    },
    {
      "constant": false,
      "inputs": [
        {
          "name": "_name",
          "type": "string"
        },
        {
          "name": "_symbol",
          "type": "string"
        },
        {
          "name": "_registry",
          "type": "address"
        }
      ],
      "name": "initialize",
      "outputs": [],
      "payable": false,
      "stateMutability": "nonpayable",
      "type": "function"
    },
    {
      "constant": false,
      "inputs": [
        {
          "name": "_name",
          "type": "string"
        },
        {
          "name": "_symbol",
          "type": "string"
        }
      ],
      "name": "initialize",
      "outputs": [],
      "payable": false,
      "stateMutability": "nonpayable",
      "type": "function"
    },
    {
      "constant": false,
      "inputs": [
        {
          "name": "_sender",
          "type": "address"
        }
      ],
      "name": "initialize",
      "outputs": [],
      "payable": false,
      "stateMutability": "nonpayable",
      "type": "function"
    },
    {
      "constant": false,
      "inputs": [
        {
          "name": "_operator",
          "type": "address"
        },
        {
          "name": "_from",
          "type": "address"
        },
        {
          "name": "_tokenId",
          "type": "uint256"
        },
        {
          "name": "_data",
          "type": "bytes"
        }
      ],
      "name": "onERC721Received",
      "outputs": [
        {
          "name": "",
          "type": "bytes4"
        }
      ],
      "payable": false,
      "stateMutability": "nonpayable",
      "type": "function"
    },
    {
      "constant": true,
      "inputs": [
        {
          "name": "estateId",
          "type": "uint256"
        }
      ],
      "name": "getFingerprint",
      "outputs": [
        {
          "name": "result",
          "type": "bytes32"
        }
      ],
      "payable": false,
      "stateMutability": "view",
      "type": "function"
    },
    {
      "constant": true,
      "inputs": [
        {
          "name": "estateId",
          "type": "uint256"
        },
        {
          "name": "fingerprint",
          "type": "bytes"
        }
      ],
      "name": "verifyFingerprint",
      "outputs": [
        {
          "name": "",
          "type": "bool"
        }
      ],
      "payable": false,
      "stateMutability": "view",
      "type": "function"
    },
    {
      "constant": false,
      "inputs": [
        {
          "name": "from",
          "type": "address"
        },
        {
          "name": "to",
          "type": "address"
        },
        {
          "name": "estateIds",
          "type": "uint256[]"
        }
      ],
      "name": "safeTransferManyFrom",
      "outputs": [],
      "payable": false,
      "stateMutability": "nonpayable",
      "type": "function"
    },
    {
      "constant": false,
      "inputs": [
        {
          "name": "from",
          "type": "address"
        },
        {
          "name": "to",
          "type": "address"
        },
        {
          "name": "estateIds",
          "type": "uint256[]"
        },
        {
          "name": "data",
          "type": "bytes"
        }
      ],
      "name": "safeTransferManyFrom",
      "outputs": [],
      "payable": false,
      "stateMutability": "nonpayable",
      "type": "function"
    },
    {
      "constant": false,
      "inputs": [
        {
          "name": "estateId",
          "type": "uint256"
        },
        {
          "name": "landId",
          "type": "uint256"
        },
        {
          "name": "data",
          "type": "string"
        }
      ],
      "name": "updateLandData",
      "outputs": [],
      "payable": false,
      "stateMutability": "nonpayable",
      "type": "function"
    },
    {
      "constant": false,
      "inputs": [
        {
          "name": "estateId",
          "type": "uint256"
        },
        {
          "name": "landIds",
          "type": "uint256[]"
        },
        {
          "name": "data",
          "type": "string"
        }
      ],
      "name": "updateManyLandData",
      "outputs": [],
      "payable": false,
      "stateMutability": "nonpayable",
      "type": "function"
    },
    {
      "constant": false,
      "inputs": [
        {
          "name": "_from",
          "type": "address"
        },
        {
          "name": "_to",
          "type": "address"
        },
        {
          "name": "_tokenId",
          "type": "uint256"
        }
      ],
      "name": "transferFrom",
      "outputs": [],
      "payable": false,
      "stateMutability": "nonpayable",
      "type": "function"
    },
    {
      "constant": false,
      "inputs": [],
      "name": "registerBalance",
      "outputs": [],
      "payable": false,
      "stateMutability": "nonpayable",
      "type": "function"
    },
    {
      "constant": false,
      "inputs": [],
      "name": "unregisterBalance",
      "outputs": [],
      "payable": false,
      "stateMutability": "nonpayable",
      "type": "function"
    },
    {
      "constant": false,
      "inputs": [],
      "name": "setEstateLandBalanceToken",
      "outputs": [],
      "payable": false,
      "stateMutability": "nonpayable",
      "type": "function"
    }
  ],
  "bytecode": "0x608060405234801561001057600080fd5b5061781780620000216000396000f3006080604052600436106102a9576000357c0100000000000000000000000000000000000000000000000000000000900463ffffffff16806301ffc9a7146102ae57806306fdde0314610312578063077f224a146103a257806307ecec3e14610471578063081812fc146104ec578063095ea7b3146105595780630a354fce146105a6578063150b7a02146105e7578063159a6475146106ec57806318160ddd146107355780631c07cac5146107605780631d11016a1461077757806323b872dd146107ce57806328b34ef61461083b5780632f745c59146108b8578063394c405c146109195780633970bfd3146109705780633dcbeb00146109bb5780634080704914610a4b578063426a0af314610ab057806342842e0e14610b6657806349fea10614610bd35780634cd88b7614610bea5780634f558e7914610c995780634f6ccce714610cde578063535a920c14610d1f57806353c8388e14610d625780635c36b18614610da75780636087de1b14610dbe5780636352211e14610e1957806365937ab914610e8657806370a0823114610eeb57806372554ff514610f4257806373b913fa14610fc85780637b1039991461106e5780638da5cb5b146110c55780638f9f4b631461111c57806395d89b41146111a75780639d40b850146112375780639f813b1b146112a4578063a22cb465146112ef578063a506e5dc1461133e578063a574cea414611395578063b0b02c601461143b578063b88d4fde14611488578063bb9691321461153b578063c0bac1a81461157c578063c2cf1cdc14611643578063c4d66de81461165a578063c87b56dd1461169d578063d0def52114611743578063d5b78dd8146117b2578063d93eeb5c14611809578063e985e9c5146118f5578063ef1db76214611970578063f2fde38b146119df578063f4a4344814611a22575b600080fd5b3480156102ba57600080fd5b506102f860048036038101908080357bffffffffffffffffffffffffffffffffffffffffffffffffffffffff19169060200190929190505050611a63565b604051808215151515815260200191505060405180910390f35b34801561031e57600080fd5b50610327611a75565b6040518080602001828103825283818151815260200191508051906020019080838360005b8381101561036757808201518184015260208101905061034c565b50505050905090810190601f1680156103945780820380516001836020036101000a031916815260200191505b509250505060405180910390f35b3480156103ae57600080fd5b5061046f600480360381019080803590602001908201803590602001908080601f0160208091040260200160405190810160405280939291908181526020018383808284378201915050505050509192919290803590602001908201803590602001908080601f0160208091040260200160405190810160405280939291908181526020018383808284378201915050505050509192919290803573ffffffffffffffffffffffffffffffffffffffff169060200190929190505050611b17565b005b34801561047d57600080fd5b506104d2600480360381019080803573ffffffffffffffffffffffffffffffffffffffff169060200190929190803573ffffffffffffffffffffffffffffffffffffffff169060200190929190505050611e9f565b604051808215151515815260200191505060405180910390f35b3480156104f857600080fd5b5061051760048036038101908080359060200190929190505050611ece565b604051808273ffffffffffffffffffffffffffffffffffffffff1673ffffffffffffffffffffffffffffffffffffffff16815260200191505060405180910390f35b34801561056557600080fd5b506105a4600480360381019080803573ffffffffffffffffffffffffffffffffffffffff16906020019092919080359060200190929190505050611f0b565b005b3480156105b257600080fd5b506105d160048036038101908080359060200190929190505050612050565b6040518082815260200191505060405180910390f35b3480156105f357600080fd5b50610698600480360381019080803573ffffffffffffffffffffffffffffffffffffffff169060200190929190803573ffffffffffffffffffffffffffffffffffffffff16906020019092919080359060200190929190803590602001908201803590602001908080601f0160208091040260200160405190810160405280939291908181526020018383808284378201915050505050509192919290505050612068565b60405180827bffffffffffffffffffffffffffffffffffffffffffffffffffffffff19167bffffffffffffffffffffffffffffffffffffffffffffffffffffffff1916815260200191505060405180910390f35b3480156106f857600080fd5b506107176004803603810190808035906020019092919050505061219a565b60405180826000191660001916815260200191505060405180910390f35b34801561074157600080fd5b5061074a612338565b6040518082815260200191505060405180910390f35b34801561076c57600080fd5b50610775612345565b005b34801561078357600080fd5b506107cc6004803603810190808035906020019092919080359060200190929190803573ffffffffffffffffffffffffffffffffffffffff16906020019092919050505061271d565b005b3480156107da57600080fd5b50610839600480360381019080803573ffffffffffffffffffffffffffffffffffffffff169060200190929190803573ffffffffffffffffffffffffffffffffffffffff169060200190929190803590602001909291905050506129ce565b005b34801561084757600080fd5b506108b66004803603810190808035906020019092919080359060200190929190803590602001908201803590602001908080601f0160208091040260200160405190810160405280939291908181526020018383808284378201915050505050509192919290505050612a52565b005b3480156108c457600080fd5b50610903600480360381019080803573ffffffffffffffffffffffffffffffffffffffff16906020019092919080359060200190929190505050612a62565b6040518082815260200191505060405180910390f35b34801561092557600080fd5b5061092e612ad9565b604051808273ffffffffffffffffffffffffffffffffffffffff1673ffffffffffffffffffffffffffffffffffffffff16815260200191505060405180910390f35b34801561097c57600080fd5b506109a56004803603810190808035906020019092919080359060200190929190505050612aff565b6040518082815260200191505060405180910390f35b3480156109c757600080fd5b50610a496004803603810190808035906020019092919080359060200190820180359060200190808060200260200160405190810160405280939291908181526020018383602002808284378201915050505050509192919290803573ffffffffffffffffffffffffffffffffffffffff169060200190929190505050612b2f565b005b348015610a5757600080fd5b50610aae60048036038101908080359060200190929190803590602001908201803590602001919091929391929390803573ffffffffffffffffffffffffffffffffffffffff169060200190929190505050612e56565b005b348015610abc57600080fd5b50610b646004803603810190808035906020019092919080359060200190820180359060200190808060200260200160405190810160405280939291908181526020018383602002808284378201915050505050509192919290803590602001908201803590602001908080601f0160208091040260200160405190810160405280939291908181526020018383808284378201915050505050509192919290505050612f46565b005b348015610b7257600080fd5b50610bd1600480360381019080803573ffffffffffffffffffffffffffffffffffffffff169060200190929190803573ffffffffffffffffffffffffffffffffffffffff16906020019092919080359060200190929190505050612f90565b005b348015610bdf57600080fd5b50610be8613057565b005b348015610bf657600080fd5b50610c97600480360381019080803590602001908201803590602001908080601f0160208091040260200160405190810160405280939291908181526020018383808284378201915050505050509192919290803590602001908201803590602001908080601f016020809104026020016040519081016040528093929190818152602001838380828437820191505050505050919291929050505061313c565b005b348015610ca557600080fd5b50610cc4600480360381019080803590602001909291905050506133e8565b604051808215151515815260200191505060405180910390f35b348015610cea57600080fd5b50610d096004803603810190808035906020019092919050505061345a565b6040518082815260200191505060405180910390f35b348015610d2b57600080fd5b50610d60600480360381019080803573ffffffffffffffffffffffffffffffffffffffff169060200190929190505050613492565b005b348015610d6e57600080fd5b50610da560048036038101908080359060200190929190803590602001908201803590602001919091929391929390505050613705565b005b348015610db357600080fd5b50610dbc61384e565b005b348015610dca57600080fd5b50610dff600480360381019080803573ffffffffffffffffffffffffffffffffffffffff1690602001909291905050506138ee565b604051808215151515815260200191505060405180910390f35b348015610e2557600080fd5b50610e446004803603810190808035906020019092919050505061390e565b604051808273ffffffffffffffffffffffffffffffffffffffff1673ffffffffffffffffffffffffffffffffffffffff16815260200191505060405180910390f35b348015610e9257600080fd5b50610ed1600480360381019080803573ffffffffffffffffffffffffffffffffffffffff1690602001909291908035906020019092919050505061398c565b604051808215151515815260200191505060405180910390f35b348015610ef757600080fd5b50610f2c600480360381019080803573ffffffffffffffffffffffffffffffffffffffff1690602001909291905050506139a0565b6040518082815260200191505060405180910390f35b348015610f4e57600080fd5b50610fc660048036038101908080359060200190820180359060200190808060200260200160405190810160405280939291908181526020018383602002808284378201915050505050509192919290803573ffffffffffffffffffffffffffffffffffffffff169060200190929190505050613a24565b005b348015610fd457600080fd5b5061106c600480360381019080803573ffffffffffffffffffffffffffffffffffffffff169060200190929190803573ffffffffffffffffffffffffffffffffffffffff16906020019092919080359060200190820180359060200190808060200260200160405190810160405280939291908181526020018383602002808284378201915050505050509192919290505050613a66565b005b34801561107a57600080fd5b50611083613a87565b604051808273ffffffffffffffffffffffffffffffffffffffff1673ffffffffffffffffffffffffffffffffffffffff16815260200191505060405180910390f35b3480156110d157600080fd5b506110da613aad565b604051808273ffffffffffffffffffffffffffffffffffffffff1673ffffffffffffffffffffffffffffffffffffffff16815260200191505060405180910390f35b34801561112857600080fd5b5061118d60048036038101908080359060200190929190803590602001908201803590602001908080601f0160208091040260200160405190810160405280939291908181526020018383808284378201915050505050509192919290505050613ad3565b604051808215151515815260200191505060405180910390f35b3480156111b357600080fd5b506111bc613af8565b6040518080602001828103825283818151815260200191508051906020019080838360005b838110156111fc5780820151818401526020810190506111e1565b50505050905090810190601f1680156112295780820380516001836020036101000a031916815260200191505b509250505060405180910390f35b34801561124357600080fd5b5061126260048036038101908080359060200190929190505050613b9a565b604051808273ffffffffffffffffffffffffffffffffffffffff1673ffffffffffffffffffffffffffffffffffffffff16815260200191505060405180910390f35b3480156112b057600080fd5b506112d96004803603810190808035906020019092919080359060200190929190505050613bcd565b6040518082815260200191505060405180910390f35b3480156112fb57600080fd5b5061133c600480360381019080803573ffffffffffffffffffffffffffffffffffffffff169060200190929190803515159060200190929190505050613bf2565b005b34801561134a57600080fd5b506113936004803603810190808035906020019092919080359060200190929190803573ffffffffffffffffffffffffffffffffffffffff169060200190929190505050613d2e565b005b3480156113a157600080fd5b506113c060048036038101908080359060200190929190505050613de4565b6040518080602001828103825283818151815260200191508051906020019080838360005b838110156114005780820151818401526020810190506113e5565b50505050905090810190601f16801561142d5780820380516001836020036101000a031916815260200191505b509250505060405180910390f35b34801561144757600080fd5b5061148660048036038101908080359060200190929190803573ffffffffffffffffffffffffffffffffffffffff169060200190929190505050613e99565b005b34801561149457600080fd5b50611539600480360381019080803573ffffffffffffffffffffffffffffffffffffffff169060200190929190803573ffffffffffffffffffffffffffffffffffffffff16906020019092919080359060200190929190803590602001908201803590602001908080601f0160208091040260200160405190810160405280939291908181526020018383808284378201915050505050509192919290505050614052565b005b34801561154757600080fd5b5061156660048036038101908080359060200190929190505050614120565b6040518082815260200191505060405180910390f35b34801561158857600080fd5b50611629600480360381019080803590602001908201803590602001908080601f0160208091040260200160405190810160405280939291908181526020018383808284378201915050505050509192919290803590602001908201803590602001908080601f016020809104026020016040519081016040528093929190818152602001838380828437820191505050505050919291929050505061413d565b604051808215151515815260200191505060405180910390f35b34801561164f57600080fd5b50611658614228565b005b34801561166657600080fd5b5061169b600480360381019080803573ffffffffffffffffffffffffffffffffffffffff1690602001909291905050506147b2565b005b3480156116a957600080fd5b506116c860048036038101908080359060200190929190505050614a70565b6040518080602001828103825283818151815260200191508051906020019080838360005b838110156117085780820151818401526020810190506116ed565b50505050905090810190601f1680156117355780820380516001836020036101000a031916815260200191505b509250505060405180910390f35b34801561174f57600080fd5b5061179c600480360381019080803573ffffffffffffffffffffffffffffffffffffffff169060200190929190803590602001908201803590602001919091929391929390505050614b39565b6040518082815260200191505060405180910390f35b3480156117be57600080fd5b506117f3600480360381019080803573ffffffffffffffffffffffffffffffffffffffff169060200190929190505050614c6b565b6040518082815260200191505060405180910390f35b34801561181557600080fd5b506118f3600480360381019080803573ffffffffffffffffffffffffffffffffffffffff169060200190929190803573ffffffffffffffffffffffffffffffffffffffff16906020019092919080359060200190820180359060200190808060200260200160405190810160405280939291908181526020018383602002808284378201915050505050509192919290803590602001908201803590602001908080601f0160208091040260200160405190810160405280939291908181526020018383808284378201915050505050509192919290505050614d4b565b005b34801561190157600080fd5b50611956600480360381019080803573ffffffffffffffffffffffffffffffffffffffff169060200190929190803573ffffffffffffffffffffffffffffffffffffffff169060200190929190505050614d91565b604051808215151515815260200191505060405180910390f35b34801561197c57600080fd5b506119dd600480360381019080803573ffffffffffffffffffffffffffffffffffffffff169060200190929190803573ffffffffffffffffffffffffffffffffffffffff169060200190929190803515159060200190929190505050614e25565b005b3480156119eb57600080fd5b50611a20600480360381019080803573ffffffffffffffffffffffffffffffffffffffff16906020019092919050505061513c565b005b348015611a2e57600080fd5b50611a4d60048036038101908080359060200190929190505050615294565b6040518082815260200191505060405180910390f35b6000611a6e826152b4565b9050919050565b606060058054600181600116156101000203166002900480601f016020809104026020016040519081016040528092919081815260200182805460018160011615610100020316600290048015611b0d5780601f10611ae257610100808354040283529160200191611b0d565b820191906000526020600020905b815481529060010190602001808311611af057829003601f168201915b5050505050905090565b6040805190810160405280600e81526020017f45737461746552656769737472790000000000000000000000000000000000008152506040805190810160405280600581526020017f302e302e32000000000000000000000000000000000000000000000000000000815250611b8d828261413d565b151515611b9957600080fd5b60008373ffffffffffffffffffffffffffffffffffffffff1614151515611c4e576040517f08c379a00000000000000000000000000000000000000000000000000000000081526004018080602001828103825260268152602001807f5468652072656769737472792073686f756c6420626520612076616c6964206181526020017f646472657373000000000000000000000000000000000000000000000000000081525060400191505060405180910390fd5b611c58858561313c565b611c61336147b2565b82600d60006101000a81548173ffffffffffffffffffffffffffffffffffffffff021916908373ffffffffffffffffffffffffffffffffffffffff1602179055507fdd117a11c22118c9dee4b5a67ce578bc44529dce21ee0ccc439588fbb9fb4ea38282604051808060200180602001838103835285818151815260200191508051906020019080838360005b83811015611d09578082015181840152602081019050611cee565b50505050905090810190601f168015611d365780820380516001836020036101000a031916815260200191505b50838103825284818151815260200191508051906020019080838360005b83811015611d6f578082015181840152602081019050611d54565b50505050905090810190601f168015611d9c5780820380516001836020036101000a031916815260200191505b5094505050505060405180910390a160016000836040518082805190602001908083835b602083101515611de55780518252602082019150602081019050602083039250611dc0565b6001836020036101000a0380198251168184511680821785525050505050509050019150509081526020016040518091039020826040518082805190602001908083835b602083101515611e4e5780518252602082019150602081019050602083039250611e29565b6001836020036101000a038019825116818451168082178552505050505050905001915050908152602001604051809103902060006101000a81548160ff0219169083151502179055505050505050565b60136020528160005260406000206020528060005260406000206000915091509054906101000a900460ff1681565b60006002600083815260200190815260200160002060009054906101000a900473ffffffffffffffffffffffffffffffffffffffff169050919050565b6000611f168261390e565b90508073ffffffffffffffffffffffffffffffffffffffff168373ffffffffffffffffffffffffffffffffffffffff1614151515611f5357600080fd5b8073ffffffffffffffffffffffffffffffffffffffff163373ffffffffffffffffffffffffffffffffffffffff161480611f935750611f928133614d91565b5b1515611f9e57600080fd5b826002600084815260200190815260200160002060006101000a81548173ffffffffffffffffffffffffffffffffffffffff021916908373ffffffffffffffffffffffffffffffffffffffff160217905550818373ffffffffffffffffffffffffffffffffffffffff168273ffffffffffffffffffffffffffffffffffffffff167f8c5be1e5ebec7d5bd14f71427d1e84f3dd0314c0f7b2291e5b200ac8c7c3b92560405160405180910390a4505050565b600f6020528060005260406000206000915090505481565b600080600d60009054906101000a900473ffffffffffffffffffffffffffffffffffffffff1673ffffffffffffffffffffffffffffffffffffffff163373ffffffffffffffffffffffffffffffffffffffff16141515612156576040517f08c379a00000000000000000000000000000000000000000000000000000000081526004018080602001828103825260298152602001807f4f6e6c79207468652072656769737472792063616e206d616b6520746869732081526020017f6f7065726174696f6e000000000000000000000000000000000000000000000081525060400191505060405180910390fd5b61215f836153c0565b905061216b81856153d6565b63150b7a027c010000000000000000000000000000000000000000000000000000000002915050949350505050565b60008060008360405160200180807f65737461746549640000000000000000000000000000000000000000000000008152506008018281526020019150506040516020818303038152906040526040518082805190602001908083835b60208310151561221c57805182526020820191506020810190506020830392506121f7565b6001836020036101000a03801982511681845116808217855250505050505090500191505060405180910390209250600e6000858152602001908152602001600020805490509150600090505b8181101561232e57600e60008581526020019081526020016000208181548110151561229157fe5b9060005260206000200154604051602001808281526020019150506040516020818303038152906040526040518082805190602001908083835b6020831015156122f057805182526020820191506020810190506020830392506122cb565b6001836020036101000a0380198251168184511680821785525050505050509050019150506040518091039020831892508080600101915050612269565b8292505050919050565b6000600980549050905090565b6000601560003373ffffffffffffffffffffffffffffffffffffffff1673ffffffffffffffffffffffffffffffffffffffff16815260200190815260200160002060009054906101000a900460ff16151561242e576040517f08c379a000000000000000000000000000000000000000000000000000000000815260040180806020018281038252602b8152602001807f556e72656769737465722042616c616e63653a3a5468652075736572206e6f7481526020017f207265676973746572656400000000000000000000000000000000000000000081525060400191505060405180910390fd5b6000601560003373ffffffffffffffffffffffffffffffffffffffff1673ffffffffffffffffffffffffffffffffffffffff16815260200190815260200160002060006101000a81548160ff021916908315150217905550601460009054906101000a900473ffffffffffffffffffffffffffffffffffffffff1673ffffffffffffffffffffffffffffffffffffffff166370a08231336040518263ffffffff167c0100000000000000000000000000000000000000000000000000000000028152600401808273ffffffffffffffffffffffffffffffffffffffff1673ffffffffffffffffffffffffffffffffffffffff168152602001915050602060405180830381600087803b15801561254357600080fd5b505af1158015612557573d6000803e3d6000fd5b505050506040513d602081101561256d57600080fd5b81019080805190602001909291905050509050601460009054906101000a900473ffffffffffffffffffffffffffffffffffffffff1673ffffffffffffffffffffffffffffffffffffffff1663d3ce77fe33836040518363ffffffff167c0100000000000000000000000000000000000000000000000000000000028152600401808373ffffffffffffffffffffffffffffffffffffffff1673ffffffffffffffffffffffffffffffffffffffff16815260200182815260200192505050602060405180830381600087803b15801561264557600080fd5b505af1158015612659573d6000803e3d6000fd5b505050506040513d602081101561266f57600080fd5b8101908080519060200190929190505050151561271a576040517f08c379a000000000000000000000000000000000000000000000000000000000815260040180806020018281038252602c8152602001807f556e72656769737465722042616c616e63653a3a436f756c64206e6f7420646581526020017f7374726f7920746f6b656e73000000000000000000000000000000000000000081525060400191505060405180910390fd5b50565b8260006127298261390e565b9050612735338361579a565b806127c65750601360008273ffffffffffffffffffffffffffffffffffffffff1673ffffffffffffffffffffffffffffffffffffffff16815260200190815260200160002060003373ffffffffffffffffffffffffffffffffffffffff1673ffffffffffffffffffffffffffffffffffffffff16815260200190815260200160002060009054906101000a900460ff165b151561283a576040517f08c379a00000000000000000000000000000000000000000000000000000000081526004018080602001828103825260118152602001807f756e617574686f72697a6564207573657200000000000000000000000000000081525060200191505060405180910390fd5b84600f6000868152602001908152602001600020541415156128ea576040517f08c379a00000000000000000000000000000000000000000000000000000000081526004018080602001828103825260228152602001807f546865204c414e44206973206e6f742070617274206f6620746865204573746181526020017f746500000000000000000000000000000000000000000000000000000000000081525060400191505060405180910390fd5b600d60009054906101000a900473ffffffffffffffffffffffffffffffffffffffff1673ffffffffffffffffffffffffffffffffffffffff1663b0b02c6085856040518363ffffffff167c0100000000000000000000000000000000000000000000000000000000028152600401808381526020018273ffffffffffffffffffffffffffffffffffffffff1673ffffffffffffffffffffffffffffffffffffffff16815260200192505050600060405180830381600087803b1580156129af57600080fd5b505af11580156129c3573d6000803e3d6000fd5b505050505050505050565b60006012600083815260200190815260200160002060006101000a81548173ffffffffffffffffffffffffffffffffffffffff021916908373ffffffffffffffffffffffffffffffffffffffff160217905550612a428383600e60008581526020019081526020016000208054905061582f565b612a4d838383615adc565b505050565b612a5d838383615c78565b505050565b6000612a6d836139a0565b82101515612a7a57600080fd5b600760008473ffffffffffffffffffffffffffffffffffffffff1673ffffffffffffffffffffffffffffffffffffffff16815260200190815260200160002082815481101515612ac657fe5b9060005260206000200154905092915050565b601460009054906101000a900473ffffffffffffffffffffffffffffffffffffffff1681565b600e60205281600052604060002081815481101515612b1a57fe5b90600052602060002001600091509150505481565b6000836000612b3d8261390e565b9050612b49338361579a565b80612bda5750601360008273ffffffffffffffffffffffffffffffffffffffff1673ffffffffffffffffffffffffffffffffffffffff16815260200190815260200160002060003373ffffffffffffffffffffffffffffffffffffffff1673ffffffffffffffffffffffffffffffffffffffff16815260200190815260200160002060009054906101000a900460ff165b1515612c4e576040517f08c379a00000000000000000000000000000000000000000000000000000000081526004018080602001828103825260118152602001807f756e617574686f72697a6564207573657200000000000000000000000000000081525060200191505060405180910390fd5b600092505b8451831015612d305785600f60008786815181101515612c6f57fe5b90602001906020020151815260200190815260200160002054141515612d23576040517f08c379a00000000000000000000000000000000000000000000000000000000081526004018080602001828103825260228152602001807f546865204c414e44206973206e6f742070617274206f6620746865204573746181526020017f746500000000000000000000000000000000000000000000000000000000000081525060400191505060405180910390fd5b8280600101935050612c53565b600d60009054906101000a900473ffffffffffffffffffffffffffffffffffffffff1673ffffffffffffffffffffffffffffffffffffffff166372554ff586866040518363ffffffff167c010000000000000000000000000000000000000000000000000000000002815260040180806020018373ffffffffffffffffffffffffffffffffffffffff1673ffffffffffffffffffffffffffffffffffffffff168152602001828103825284818151815260200191508051906020019060200280838360005b83811015612e10578082015181840152602081019050612df5565b505050509050019350505050600060405180830381600087803b158015612e3657600080fd5b505af1158015612e4a573d6000803e3d6000fd5b50505050505050505050565b60008085612e64338261579a565b1515612efe576040517f08c379a00000000000000000000000000000000000000000000000000000000081526004018080602001828103825260238152602001807f4f6e6c79206f776e6572206f72206f70657261746f722063616e207472616e7381526020017f666572000000000000000000000000000000000000000000000000000000000081525060400191505060405180910390fd5b858590509250600091505b82821015612f3d57612f30878787858181101515612f2357fe5b9050602002013586615fb0565b8180600101925050612f09565b50505050505050565b60008083519150600090505b81811015612f8957612f7c858583815181101515612f6c57fe5b9060200190602002015185615c78565b8080600101915050612f52565b5050505050565b80612f9b338261579a565b1515613035576040517f08c379a00000000000000000000000000000000000000000000000000000000081526004018080602001828103825260238152602001807f4f6e6c79206f776e6572206f72206f70657261746f722063616e207472616e7381526020017f666572000000000000000000000000000000000000000000000000000000000081525060400191505060405180910390fd5b6130518484846020604051908101604052806000815250614052565b50505050565b600073ffffffffffffffffffffffffffffffffffffffff16601460009054906101000a900473ffffffffffffffffffffffffffffffffffffffff1673ffffffffffffffffffffffffffffffffffffffff1614151561311d576040517f08c379a00000000000000000000000000000000000000000000000000000000081526004018080602001828103825260198152602001807f6573746174654c616e6442616c616e636520776173207365740000000000000081525060200191505060405180910390fd5b61313a738568f23f343694650370fe5e254b55bfb704a6c76163f8565b565b6040805190810160405280600b81526020017f455243373231546f6b656e0000000000000000000000000000000000000000008152506040805190810160405280600581526020017f312e392e300000000000000000000000000000000000000000000000000000008152506131b2828261413d565b1515156131be57600080fd5b83600590805190602001906131d49291906176ee565b5082600690805190602001906131eb9291906176ee565b507fdd117a11c22118c9dee4b5a67ce578bc44529dce21ee0ccc439588fbb9fb4ea38282604051808060200180602001838103835285818151815260200191508051906020019080838360005b83811015613253578082015181840152602081019050613238565b50505050905090810190601f1680156132805780820380516001836020036101000a031916815260200191505b50838103825284818151815260200191508051906020019080838360005b838110156132b957808201518184015260208101905061329e565b50505050905090810190601f1680156132e65780820380516001836020036101000a031916815260200191505b5094505050505060405180910390a160016000836040518082805190602001908083835b60208310151561332f578051825260208201915060208101905060208303925061330a565b6001836020036101000a0380198251168184511680821785525050505050509050019150509081526020016040518091039020826040518082805190602001908083835b6020831015156133985780518252602082019150602081019050602083039250613373565b6001836020036101000a038019825116818451168082178552505050505050905001915050908152602001604051809103902060006101000a81548160ff02191690831515021790555050505050565b6000806001600084815260200190815260200160002060009054906101000a900473ffffffffffffffffffffffffffffffffffffffff169050600073ffffffffffffffffffffffffffffffffffffffff168173ffffffffffffffffffffffffffffffffffffffff161415915050919050565b6000613464612338565b8210151561347157600080fd5b60098281548110151561348057fe5b90600052602060002001549050919050565b600c60009054906101000a900473ffffffffffffffffffffffffffffffffffffffff1673ffffffffffffffffffffffffffffffffffffffff163373ffffffffffffffffffffffffffffffffffffffff161415156134ee57600080fd5b61350d8173ffffffffffffffffffffffffffffffffffffffff16616583565b15156135a7576040517f08c379a000000000000000000000000000000000000000000000000000000000815260040180806020018281038252602e8152602001807f546865204c414e4420726567697374727920616464726573732073686f756c6481526020017f206265206120636f6e747261637400000000000000000000000000000000000081525060400191505060405180910390fd5b60008173ffffffffffffffffffffffffffffffffffffffff161415151561365c576040517f08c379a00000000000000000000000000000000000000000000000000000000081526004018080602001828103825260298152602001807f546865204c414e4420726567697374727920616464726573732073686f756c6481526020017f2062652076616c6964000000000000000000000000000000000000000000000081525060400191505060405180910390fd5b80600d60006101000a81548173ffffffffffffffffffffffffffffffffffffffff021916908373ffffffffffffffffffffffffffffffffffffffff160217905550600d60009054906101000a900473ffffffffffffffffffffffffffffffffffffffff1673ffffffffffffffffffffffffffffffffffffffff167f2e88792af6f2248ed486ffffc86edf9bc197596990f7b406d5f867a1dd930ba560405160405180910390a250565b826137103382616596565b1515613784576040517f08c379a00000000000000000000000000000000000000000000000000000000081526004018080602001828103825260118152602001807f556e617574686f72697a6564207573657200000000000000000000000000000081525060200191505060405180910390fd5b6137c08484848080601f0160208091040260200160405190810160405280939291908181526020018383808284378201915050505050506166b1565b3373ffffffffffffffffffffffffffffffffffffffff166137e08561390e565b73ffffffffffffffffffffffffffffffffffffffff16857f47c705b9219229ad762fca605f08fb024a3415d0ae78af5d319820c72e5104148686604051808060200182810382528484828181526020019250808284378201915050935050505060405180910390a450505050565b600d60009054906101000a900473ffffffffffffffffffffffffffffffffffffffff1673ffffffffffffffffffffffffffffffffffffffff16635c36b1866040518163ffffffff167c0100000000000000000000000000000000000000000000000000000000028152600401600060405180830381600087803b1580156138d457600080fd5b505af11580156138e8573d6000803e3d6000fd5b50505050565b60156020528060005260406000206000915054906101000a900460ff1681565b6000806001600084815260200190815260200160002060009054906101000a900473ffffffffffffffffffffffffffffffffffffffff169050600073ffffffffffffffffffffffffffffffffffffffff168173ffffffffffffffffffffffffffffffffffffffff161415151561398357600080fd5b80915050919050565b60006139988383616596565b905092915050565b60008073ffffffffffffffffffffffffffffffffffffffff168273ffffffffffffffffffffffffffffffffffffffff16141515156139dd57600080fd5b600360008373ffffffffffffffffffffffffffffffffffffffff1673ffffffffffffffffffffffffffffffffffffffff168152602001908152602001600020549050919050565b60008090505b8251811015613a6157613a548382815181101515613a4457fe5b9060200190602002015183613e99565b8080600101915050613a2a565b505050565b613a828383836020604051908101604052806000815250614d4b565b505050565b600d60009054906101000a900473ffffffffffffffffffffffffffffffffffffffff1681565b600c60009054906101000a900473ffffffffffffffffffffffffffffffffffffffff1681565b6000613ade826166dd565b60001916613aeb8461219a565b6000191614905092915050565b606060068054600181600116156101000203166002900480601f016020809104026020016040519081016040528092919081815260200182805460018160011615610100020316600290048015613b905780601f10613b6557610100808354040283529160200191613b90565b820191906000526020600020905b815481529060010190602001808311613b7357829003601f168201915b5050505050905090565b60126020528060005260406000206000915054906101000a900473ffffffffffffffffffffffffffffffffffffffff1681565b6010602052816000526040600020602052806000526040600020600091509150505481565b3373ffffffffffffffffffffffffffffffffffffffff168273ffffffffffffffffffffffffffffffffffffffff1614151515613c2d57600080fd5b80600460003373ffffffffffffffffffffffffffffffffffffffff1673ffffffffffffffffffffffffffffffffffffffff16815260200190815260200160002060008473ffffffffffffffffffffffffffffffffffffffff1673ffffffffffffffffffffffffffffffffffffffff16815260200190815260200160002060006101000a81548160ff0219169083151502179055508173ffffffffffffffffffffffffffffffffffffffff163373ffffffffffffffffffffffffffffffffffffffff167f17307eab39ab6107e8899845ad3d59bd9653f200f220920489ca2b5937696c3183604051808215151515815260200191505060405180910390a35050565b82613d39338261579a565b1515613dd3576040517f08c379a00000000000000000000000000000000000000000000000000000000081526004018080602001828103825260238152602001807f4f6e6c79206f776e6572206f72206f70657261746f722063616e207472616e7381526020017f666572000000000000000000000000000000000000000000000000000000000081525060400191505060405180910390fd5b613dde848484615fb0565b50505050565b6060601160008381526020019081526020016000208054600181600116156101000203166002900480601f016020809104026020016040519081016040528092919081815260200182805460018160011615610100020316600290048015613e8d5780601f10613e6257610100808354040283529160200191613e8d565b820191906000526020600020905b815481529060010190602001808311613e7057829003601f168201915b50505050509050919050565b816000613ea58261390e565b9050613eb1338361579a565b80613f425750601360008273ffffffffffffffffffffffffffffffffffffffff1673ffffffffffffffffffffffffffffffffffffffff16815260200190815260200160002060003373ffffffffffffffffffffffffffffffffffffffff1673ffffffffffffffffffffffffffffffffffffffff16815260200190815260200160002060009054906101000a900460ff165b1515613fb6576040517f08c379a00000000000000000000000000000000000000000000000000000000081526004018080602001828103825260118152602001807f756e617574686f72697a6564207573657200000000000000000000000000000081525060200191505060405180910390fd5b826012600086815260200190815260200160002060006101000a81548173ffffffffffffffffffffffffffffffffffffffff021916908373ffffffffffffffffffffffffffffffffffffffff1602179055508273ffffffffffffffffffffffffffffffffffffffff16847f9d9dd80a56a16f715df6eb40b771e24ff8cbea6eed9de28473ce0f28fe5602a960405160405180910390a350505050565b8161405d338261579a565b15156140f7576040517f08c379a00000000000000000000000000000000000000000000000000000000081526004018080602001828103825260238152602001807f4f6e6c79206f776e6572206f72206f70657261746f722063616e207472616e7381526020017f666572000000000000000000000000000000000000000000000000000000000081525060400191505060405180910390fd5b6141028585856129ce565b61410e858585856167c8565b151561411957600080fd5b5050505050565b6000600f6000838152602001908152602001600020549050919050565b600080836040518082805190602001908083835b6020831015156141765780518252602082019150602081019050602083039250614151565b6001836020036101000a0380198251168184511680821785525050505050509050019150509081526020016040518091039020826040518082805190602001908083835b6020831015156141df57805182526020820191506020810190506020830392506141ba565b6001836020036101000a038019825116818451168082178552505050505050905001915050908152602001604051809103902060009054906101000a900460ff16905092915050565b600080601560003373ffffffffffffffffffffffffffffffffffffffff1673ffffffffffffffffffffffffffffffffffffffff16815260200190815260200160002060009054906101000a900460ff16151515614313576040517f08c379a00000000000000000000000000000000000000000000000000000000081526004018080602001828103825260308152602001807f52656769737465722042616c616e63653a3a546865207573657220697320616c81526020017f726561647920726567697374657265640000000000000000000000000000000081525060400191505060405180910390fd5b601460009054906101000a900473ffffffffffffffffffffffffffffffffffffffff1673ffffffffffffffffffffffffffffffffffffffff166370a08231336040518263ffffffff167c0100000000000000000000000000000000000000000000000000000000028152600401808273ffffffffffffffffffffffffffffffffffffffff1673ffffffffffffffffffffffffffffffffffffffff168152602001915050602060405180830381600087803b1580156143d057600080fd5b505af11580156143e4573d6000803e3d6000fd5b505050506040513d60208110156143fa57600080fd5b8101908080519060200190929190505050915060008211156145b157601460009054906101000a900473ffffffffffffffffffffffffffffffffffffffff1673ffffffffffffffffffffffffffffffffffffffff1663d3ce77fe33846040518363ffffffff167c0100000000000000000000000000000000000000000000000000000000028152600401808373ffffffffffffffffffffffffffffffffffffffff1673ffffffffffffffffffffffffffffffffffffffff16815260200182815260200192505050602060405180830381600087803b1580156144db57600080fd5b505af11580156144ef573d6000803e3d6000fd5b505050506040513d602081101561450557600080fd5b810190808051906020019092919050505015156145b0576040517f08c379a000000000000000000000000000000000000000000000000000000000815260040180806020018281038252602a8152602001807f52656769737465722042616c616e63653a3a436f756c64206e6f74206465737481526020017f726f7920746f6b656e730000000000000000000000000000000000000000000081525060400191505060405180910390fd5b5b6001601560003373ffffffffffffffffffffffffffffffffffffffff1673ffffffffffffffffffffffffffffffffffffffff16815260200190815260200160002060006101000a81548160ff02191690831515021790555061461233614c6b565b9050601460009054906101000a900473ffffffffffffffffffffffffffffffffffffffff1673ffffffffffffffffffffffffffffffffffffffff1663827f32c033836040518363ffffffff167c0100000000000000000000000000000000000000000000000000000000028152600401808373ffffffffffffffffffffffffffffffffffffffff1673ffffffffffffffffffffffffffffffffffffffff16815260200182815260200192505050602060405180830381600087803b1580156146d957600080fd5b505af11580156146ed573d6000803e3d6000fd5b505050506040513d602081101561470357600080fd5b810190808051906020019092919050505015156147ae576040517f08c379a000000000000000000000000000000000000000000000000000000000815260040180806020018281038252602b8152602001807f52656769737465722042616c616e63653a3a436f756c64206e6f742067656e6581526020017f7261746520746f6b656e7300000000000000000000000000000000000000000081525060400191505060405180910390fd5b5050565b6040805190810160405280600781526020017f4f776e61626c65000000000000000000000000000000000000000000000000008152506040805190810160405280600581526020017f312e392e30000000000000000000000000000000000000000000000000000000815250614828828261413d565b15151561483457600080fd5b82600c60006101000a81548173ffffffffffffffffffffffffffffffffffffffff021916908373ffffffffffffffffffffffffffffffffffffffff1602179055507fdd117a11c22118c9dee4b5a67ce578bc44529dce21ee0ccc439588fbb9fb4ea38282604051808060200180602001838103835285818151815260200191508051906020019080838360005b838110156148dc5780820151818401526020810190506148c1565b50505050905090810190601f1680156149095780820380516001836020036101000a031916815260200191505b50838103825284818151815260200191508051906020019080838360005b83811015614942578082015181840152602081019050614927565b50505050905090810190601f16801561496f5780820380516001836020036101000a031916815260200191505b5094505050505060405180910390a160016000836040518082805190602001908083835b6020831015156149b85780518252602082019150602081019050602083039250614993565b6001836020036101000a0380198251168184511680821785525050505050509050019150509081526020016040518091039020826040518082805190602001908083835b602083101515614a2157805182526020820191506020810190506020830392506149fc565b6001836020036101000a038019825116818451168082178552505050505050905001915050908152602001604051809103902060006101000a81548160ff021916908315150217905550505050565b6060614a7b826133e8565b1515614a8657600080fd5b600b60008381526020019081526020016000208054600181600116156101000203166002900480601f016020809104026020016040519081016040528092919081815260200182805460018160011615610100020316600290048015614b2d5780601f10614b0257610100808354040283529160200191614b2d565b820191906000526020600020905b815481529060010190602001808311614b1057829003601f168201915b50505050509050919050565b6000600d60009054906101000a900473ffffffffffffffffffffffffffffffffffffffff1673ffffffffffffffffffffffffffffffffffffffff163373ffffffffffffffffffffffffffffffffffffffff16141515614c26576040517f08c379a00000000000000000000000000000000000000000000000000000000081526004018080602001828103825260298152602001807f4f6e6c79207468652072656769737472792063616e206d616b6520746869732081526020017f6f7065726174696f6e000000000000000000000000000000000000000000000081525060400191505060405180910390fd5b614c628484848080601f0160208091040260200160405190810160405280939291908181526020018383808284378201915050505050506169ea565b90509392505050565b6000806000806000600360008773ffffffffffffffffffffffffffffffffffffffff1673ffffffffffffffffffffffffffffffffffffffff1681526020019081526020016000205492505b82821015614d3f57600760008773ffffffffffffffffffffffffffffffffffffffff1673ffffffffffffffffffffffffffffffffffffffff16815260200190815260200160002082815481101515614d0a57fe5b90600052602060002001549050600e600082815260200190815260200160002080549050840193508180600101925050614cb6565b83945050505050919050565b60008090505b8251811015614d8a57614d7d85858584815181101515614d6d57fe5b9060200190602002015185614052565b8080600101915050614d51565b5050505050565b6000600460008473ffffffffffffffffffffffffffffffffffffffff1673ffffffffffffffffffffffffffffffffffffffff16815260200190815260200160002060008373ffffffffffffffffffffffffffffffffffffffff1673ffffffffffffffffffffffffffffffffffffffff16815260200190815260200160002060009054906101000a900460ff16905092915050565b3373ffffffffffffffffffffffffffffffffffffffff168273ffffffffffffffffffffffffffffffffffffffff1614151515614eef576040517f08c379a000000000000000000000000000000000000000000000000000000000815260040180806020018281038252602b8152602001807f546865206f70657261746f722073686f756c6420626520646966666572656e7481526020017f2066726f6d206f776e657200000000000000000000000000000000000000000081525060400191505060405180910390fd5b3373ffffffffffffffffffffffffffffffffffffffff168373ffffffffffffffffffffffffffffffffffffffff161480614faf5750600460008473ffffffffffffffffffffffffffffffffffffffff1673ffffffffffffffffffffffffffffffffffffffff16815260200190815260200160002060003373ffffffffffffffffffffffffffffffffffffffff1673ffffffffffffffffffffffffffffffffffffffff16815260200190815260200160002060009054906101000a900460ff165b1515615023576040517f08c379a00000000000000000000000000000000000000000000000000000000081526004018080602001828103825260118152602001807f556e617574686f72697a6564207573657200000000000000000000000000000081525060200191505060405180910390fd5b80601360008573ffffffffffffffffffffffffffffffffffffffff1673ffffffffffffffffffffffffffffffffffffffff16815260200190815260200160002060008473ffffffffffffffffffffffffffffffffffffffff1673ffffffffffffffffffffffffffffffffffffffff16815260200190815260200160002060006101000a81548160ff0219169083151502179055503373ffffffffffffffffffffffffffffffffffffffff168273ffffffffffffffffffffffffffffffffffffffff168473ffffffffffffffffffffffffffffffffffffffff167fd79fbfe1644c022b9150727d871532bfcc3e27ffee86fc596a062770ac97b04284604051808215151515815260200191505060405180910390a4505050565b600c60009054906101000a900473ffffffffffffffffffffffffffffffffffffffff1673ffffffffffffffffffffffffffffffffffffffff163373ffffffffffffffffffffffffffffffffffffffff1614151561519857600080fd5b600073ffffffffffffffffffffffffffffffffffffffff168173ffffffffffffffffffffffffffffffffffffffff16141515156151d457600080fd5b8073ffffffffffffffffffffffffffffffffffffffff16600c60009054906101000a900473ffffffffffffffffffffffffffffffffffffffff1673ffffffffffffffffffffffffffffffffffffffff167f8be0079c531659141344cd1fd0a4f28419497f9722a3daafe3b4186f6b6457e060405160405180910390a380600c60006101000a81548173ffffffffffffffffffffffffffffffffffffffff021916908373ffffffffffffffffffffffffffffffffffffffff16021790555050565b6000600e6000838152602001908152602001600020805490509050919050565b60006152bf82616b94565b8061533c575060405180807f6765744d657461646174612875696e7432353629000000000000000000000000815250601401905060405180910390207bffffffffffffffffffffffffffffffffffffffffffffffffffffffff1916827bffffffffffffffffffffffffffffffffffffffffffffffffffffffff1916145b806153b9575060405180807f76657269667946696e6765727072696e742875696e743235362c627974657329815250602001905060405180910390207bffffffffffffffffffffffffffffffffffffffffffffffffffffffff1916827bffffffffffffffffffffffffffffffffffffffffffffffffffffffff1916145b9050919050565b60006153cb826166dd565b600190049050919050565b60006153e1836133e8565b1515615455576040517f08c379a000000000000000000000000000000000000000000000000000000000815260040180806020018281038252601a8152602001807f546865204573746174652069642073686f756c6420657869737400000000000081525060200191505060405180910390fd5b6000600f600084815260200190815260200160002054141515615506576040517f08c379a00000000000000000000000000000000000000000000000000000000081526004018080602001828103825260268152602001807f546865204c414e4420697320616c7265616479206f776e656420627920616e2081526020017f457374617465000000000000000000000000000000000000000000000000000081525060400191505060405180910390fd5b3073ffffffffffffffffffffffffffffffffffffffff16600d60009054906101000a900473ffffffffffffffffffffffffffffffffffffffff1673ffffffffffffffffffffffffffffffffffffffff16636352211e846040518263ffffffff167c010000000000000000000000000000000000000000000000000000000002815260040180828152602001915050602060405180830381600087803b1580156155ae57600080fd5b505af11580156155c2573d6000803e3d6000fd5b505050506040513d60208110156155d857600080fd5b810190808051906020019092919050505073ffffffffffffffffffffffffffffffffffffffff1614151561569a576040517f08c379a00000000000000000000000000000000000000000000000000000000081526004018080602001828103825260298152602001807f5468652045737461746552656769737472792063616e6e6f74206d616e61676581526020017f20746865204c414e44000000000000000000000000000000000000000000000081525060400191505060405180910390fd5b600e600084815260200190815260200160002082908060018154018082558091505090600182039060005260206000200160009091929091909150555082600f600084815260200190815260200160002081905550600e600084815260200190815260200160002080549050601060008581526020019081526020016000206000848152602001908152602001600020819055506157378361390e565b9050615767600d60009054906101000a900473ffffffffffffffffffffffffffffffffffffffff1682600161582f565b81837fff0e52667d53255667dc777a00af81038a4646367b0d73d8ee8540ca5b0c9a2e60405160405180910390a3505050565b6000806157a68361390e565b90508073ffffffffffffffffffffffffffffffffffffffff168473ffffffffffffffffffffffffffffffffffffffff16148061581557508373ffffffffffffffffffffffffffffffffffffffff166157fd84611ece565b73ffffffffffffffffffffffffffffffffffffffff16145b8061582657506158258185614d91565b5b91505092915050565b601560008473ffffffffffffffffffffffffffffffffffffffff1673ffffffffffffffffffffffffffffffffffffffff16815260200190815260200160002060009054906101000a900460ff161561598357601460009054906101000a900473ffffffffffffffffffffffffffffffffffffffff1673ffffffffffffffffffffffffffffffffffffffff1663d3ce77fe84836040518363ffffffff167c0100000000000000000000000000000000000000000000000000000000028152600401808373ffffffffffffffffffffffffffffffffffffffff1673ffffffffffffffffffffffffffffffffffffffff16815260200182815260200192505050602060405180830381600087803b15801561594657600080fd5b505af115801561595a573d6000803e3d6000fd5b505050506040513d602081101561597057600080fd5b8101908080519060200190929190505050505b601560008373ffffffffffffffffffffffffffffffffffffffff1673ffffffffffffffffffffffffffffffffffffffff16815260200190815260200160002060009054906101000a900460ff1615615ad757601460009054906101000a900473ffffffffffffffffffffffffffffffffffffffff1673ffffffffffffffffffffffffffffffffffffffff1663827f32c083836040518363ffffffff167c0100000000000000000000000000000000000000000000000000000000028152600401808373ffffffffffffffffffffffffffffffffffffffff1673ffffffffffffffffffffffffffffffffffffffff16815260200182815260200192505050602060405180830381600087803b158015615a9a57600080fd5b505af1158015615aae573d6000803e3d6000fd5b505050506040513d6020811015615ac457600080fd5b8101908080519060200190929190505050505b505050565b80615ae7338261579a565b1515615b81576040517f08c379a00000000000000000000000000000000000000000000000000000000081526004018080602001828103825260238152602001807f4f6e6c79206f776e6572206f72206f70657261746f722063616e207472616e7381526020017f666572000000000000000000000000000000000000000000000000000000000081525060400191505060405180910390fd5b600073ffffffffffffffffffffffffffffffffffffffff168473ffffffffffffffffffffffffffffffffffffffff1614151515615bbd57600080fd5b600073ffffffffffffffffffffffffffffffffffffffff168373ffffffffffffffffffffffffffffffffffffffff1614151515615bf957600080fd5b615c038483616c7c565b615c0d8483616d7f565b615c178383616f97565b818373ffffffffffffffffffffffffffffffffffffffff168573ffffffffffffffffffffffffffffffffffffffff167fddf252ad1be2c89b69c2b068fc378daa952ba7f163c4a11628f55a4df523b3ef60405160405180910390a450505050565b6000808484615c8833838361706e565b1515615cfc576040517f08c379a00000000000000000000000000000000000000000000000000000000081526004018080602001828103825260118152602001807f756e617574686f72697a6564207573657200000000000000000000000000000081525060200191505060405180910390fd5b86600f600088815260200190815260200160002054141515615dac576040517f08c379a00000000000000000000000000000000000000000000000000000000081526004018080602001828103825260228152602001807f546865204c414e44206973206e6f742070617274206f6620746865204573746181526020017f746500000000000000000000000000000000000000000000000000000000000081525060400191505060405180910390fd5b600d60009054906101000a900473ffffffffffffffffffffffffffffffffffffffff1673ffffffffffffffffffffffffffffffffffffffff16637efd9112876040518263ffffffff167c0100000000000000000000000000000000000000000000000000000000028152600401808281526020019150506040805180830381600087803b158015615e3c57600080fd5b505af1158015615e50573d6000803e3d6000fd5b505050506040513d6040811015615e6657600080fd5b8101908080519060200190929190805190602001909291905050508094508195505050600d60009054906101000a900473ffffffffffffffffffffffffffffffffffffffff1673ffffffffffffffffffffffffffffffffffffffff1663d4dd15948585886040518463ffffffff167c01000000000000000000000000000000000000000000000000000000000281526004018084815260200183815260200180602001828103825283818151815260200191508051906020019080838360005b83811015615f41578082015181840152602081019050615f26565b50505050905090810190601f168015615f6e5780820380516001836020036101000a031916815260200191505b50945050505050600060405180830381600087803b158015615f8f57600080fd5b505af1158015615fa3573d6000803e3d6000fd5b5050505050505050505050565b600080600080600080600073ffffffffffffffffffffffffffffffffffffffff168773ffffffffffffffffffffffffffffffffffffffff1614151515616084576040517f08c379a000000000000000000000000000000000000000000000000000000000815260040180806020018281038252602d8152602001807f596f752063616e206e6f74207472616e73666572204c414e4420746f20616e2081526020017f656d70747920616464726573730000000000000000000000000000000000000081525060400191505060405180910390fd5b600e60008a81526020019081526020016000209550601060008a8152602001908152602001600020945060008560008a8152602001908152602001600020541415151561615f576040517f08c379a00000000000000000000000000000000000000000000000000000000081526004018080602001828103825260228152602001807f546865204c414e44206973206e6f742070617274206f6620746865204573746181526020017f746500000000000000000000000000000000000000000000000000000000000081525060400191505060405180910390fd5b6161776001878054905061718490919063ffffffff16565b935061619f60018660008b81526020019081526020016000205461718490919063ffffffff16565b925085848154811015156161af57fe5b906000526020600020015491506161d060018461719d90919063ffffffff16565b856000848152602001908152602001600020819055508186848154811015156161f557fe5b9060005260206000200181905550858481548110151561621157fe5b906000526020600020016000905583868161622c919061776e565b5060008560008a8152602001908152602001600020819055506000600f60008a8152602001908152602001600020819055506162678961390e565b905061629781600d60009054906101000a900473ffffffffffffffffffffffffffffffffffffffff16600161582f565b600d60009054906101000a900473ffffffffffffffffffffffffffffffffffffffff1673ffffffffffffffffffffffffffffffffffffffff166342842e0e30898b6040518463ffffffff167c0100000000000000000000000000000000000000000000000000000000028152600401808473ffffffffffffffffffffffffffffffffffffffff1673ffffffffffffffffffffffffffffffffffffffff1681526020018373ffffffffffffffffffffffffffffffffffffffff1673ffffffffffffffffffffffffffffffffffffffff1681526020018281526020019350505050600060405180830381600087803b15801561639057600080fd5b505af11580156163a4573d6000803e3d6000fd5b505050508673ffffffffffffffffffffffffffffffffffffffff16888a7f7932eb5ab0d4d4d172776074ee15d13d708465ff5476902ed15a4965434fcab160405160405180910390a4505050505050505050565b600073ffffffffffffffffffffffffffffffffffffffff168173ffffffffffffffffffffffffffffffffffffffff16141515156164c3576040517f08c379a00000000000000000000000000000000000000000000000000000000081526004018080602001828103825260308152602001807f4e6577206573746174654c616e6442616c616e63652073686f756c64206e6f7481526020017f206265207a65726f20616464726573730000000000000000000000000000000081525060400191505060405180910390fd5b8073ffffffffffffffffffffffffffffffffffffffff16601460009054906101000a900473ffffffffffffffffffffffffffffffffffffffff1673ffffffffffffffffffffffffffffffffffffffff167fcc7ee4598f9db90f9f001c379aeda20a75bb7f42582ea7bac105b79d43c6377560405160405180910390a380601460006101000a81548173ffffffffffffffffffffffffffffffffffffffff021916908373ffffffffffffffffffffffffffffffffffffffff16021790555050565b600080823b905060008111915050919050565b6000806165a28361390e565b90506165ae848461579a565b8061661757508373ffffffffffffffffffffffffffffffffffffffff166012600085815260200190815260200160002060009054906101000a900473ffffffffffffffffffffffffffffffffffffffff1673ffffffffffffffffffffffffffffffffffffffff16145b806166a85750601360008273ffffffffffffffffffffffffffffffffffffffff1673ffffffffffffffffffffffffffffffffffffffff16815260200190815260200160002060008573ffffffffffffffffffffffffffffffffffffffff1673ffffffffffffffffffffffffffffffffffffffff16815260200190815260200160002060009054906101000a900460ff165b91505092915050565b806011600084815260200190815260200160002090805190602001906166d89291906176ee565b505050565b60008060008090505b83518110156167be576167036008826171b990919063ffffffff16565b60ff7f010000000000000000000000000000000000000000000000000000000000000002858381518110151561673557fe5b9060200101517f010000000000000000000000000000000000000000000000000000000000000090047f010000000000000000000000000000000000000000000000000000000000000002167effffffffffffffffffffffffffffffffffffffffffffffffffffffffffffff1916600019169060020a90048217915080806001019150506166e6565b8192505050919050565b6000806167ea8573ffffffffffffffffffffffffffffffffffffffff16616583565b15156167f957600191506169e1565b8473ffffffffffffffffffffffffffffffffffffffff1663150b7a02338887876040518563ffffffff167c0100000000000000000000000000000000000000000000000000000000028152600401808573ffffffffffffffffffffffffffffffffffffffff1673ffffffffffffffffffffffffffffffffffffffff1681526020018473ffffffffffffffffffffffffffffffffffffffff1673ffffffffffffffffffffffffffffffffffffffff16815260200183815260200180602001828103825283818151815260200191508051906020019080838360005b838110156168ee5780820151818401526020810190506168d3565b50505050905090810190601f16801561691b5780820380516001836020036101000a031916815260200191505b5095505050505050602060405180830381600087803b15801561693d57600080fd5b505af1158015616951573d6000803e3d6000fd5b505050506040513d602081101561696757600080fd5b8101908080519060200190929190505050905063150b7a027c0100000000000000000000000000000000000000000000000000000000027bffffffffffffffffffffffffffffffffffffffffffffffffffffffff1916817bffffffffffffffffffffffffffffffffffffffffffffffffffffffff19161491505b50949350505050565b600080600073ffffffffffffffffffffffffffffffffffffffff168473ffffffffffffffffffffffffffffffffffffffff1614151515616ab8576040517f08c379a00000000000000000000000000000000000000000000000000000000081526004018080602001828103825260248152602001807f596f752063616e206e6f74206d696e7420746f20616e20656d7074792061646481526020017f726573730000000000000000000000000000000000000000000000000000000081525060400191505060405180910390fd5b616ac06171f1565b9050616acc8482617213565b616ad681846166b1565b808473ffffffffffffffffffffffffffffffffffffffff167fd66691e9db811aef0bc0900328bd314b23f1f2285d5cb6d4baa4d959b3645a3c856040518080602001828103825283818151815260200191508051906020019080838360005b83811015616b50578082015181840152602081019050616b35565b50505050905090810190601f168015616b7d5780820380516001836020036101000a031916815260200191505b509250505060405180910390a38091505092915050565b6000616b9f8261726a565b80616c0a575063780e9d637c0100000000000000000000000000000000000000000000000000000000027bffffffffffffffffffffffffffffffffffffffffffffffffffffffff1916827bffffffffffffffffffffffffffffffffffffffffffffffffffffffff1916145b80616c755750635b5e139f7c0100000000000000000000000000000000000000000000000000000000027bffffffffffffffffffffffffffffffffffffffffffffffffffffffff1916827bffffffffffffffffffffffffffffffffffffffffffffffffffffffff1916145b9050919050565b8173ffffffffffffffffffffffffffffffffffffffff16616c9c8261390e565b73ffffffffffffffffffffffffffffffffffffffff16141515616cbe57600080fd5b600073ffffffffffffffffffffffffffffffffffffffff166002600083815260200190815260200160002060009054906101000a900473ffffffffffffffffffffffffffffffffffffffff1673ffffffffffffffffffffffffffffffffffffffff16141515616d7b5760006002600083815260200190815260200160002060006101000a81548173ffffffffffffffffffffffffffffffffffffffff021916908373ffffffffffffffffffffffffffffffffffffffff1602179055505b5050565b6000806000616d8e8585617352565b60086000858152602001908152602001600020549250616dfa6001600760008873ffffffffffffffffffffffffffffffffffffffff1673ffffffffffffffffffffffffffffffffffffffff1681526020019081526020016000208054905061718490919063ffffffff16565b9150600760008673ffffffffffffffffffffffffffffffffffffffff1673ffffffffffffffffffffffffffffffffffffffff16815260200190815260200160002082815481101515616e4857fe5b9060005260206000200154905080600760008773ffffffffffffffffffffffffffffffffffffffff1673ffffffffffffffffffffffffffffffffffffffff16815260200190815260200160002084815481101515616ea257fe5b90600052602060002001819055506000600760008773ffffffffffffffffffffffffffffffffffffffff1673ffffffffffffffffffffffffffffffffffffffff16815260200190815260200160002083815481101515616efe57fe5b9060005260206000200181905550600760008673ffffffffffffffffffffffffffffffffffffffff1673ffffffffffffffffffffffffffffffffffffffff168152602001908152602001600020805480919060019003616f5e919061779a565b50600060086000868152602001908152602001600020819055508260086000838152602001908152602001600020819055505050505050565b6000616fa38383617481565b600760008473ffffffffffffffffffffffffffffffffffffffff1673ffffffffffffffffffffffffffffffffffffffff168152602001908152602001600020805490509050600760008473ffffffffffffffffffffffffffffffffffffffff1673ffffffffffffffffffffffffffffffffffffffff168152602001908152602001600020829080600181540180825580915050906001820390600052602060002001600090919290919091505550806008600084815260200190815260200160002081905550505050565b600061707a8484616596565b8061717b57508373ffffffffffffffffffffffffffffffffffffffff16600d60009054906101000a900473ffffffffffffffffffffffffffffffffffffffff1673ffffffffffffffffffffffffffffffffffffffff16639d40b850846040518263ffffffff167c010000000000000000000000000000000000000000000000000000000002815260040180828152602001915050602060405180830381600087803b15801561712857600080fd5b505af115801561713c573d6000803e3d6000fd5b505050506040513d602081101561715257600080fd5b810190808051906020019092919050505073ffffffffffffffffffffffffffffffffffffffff16145b90509392505050565b600082821115151561719257fe5b818303905092915050565b600081830190508281101515156171b057fe5b80905092915050565b6000808314156171cc57600090506171eb565b81830290508183828115156171dd57fe5b041415156171e757fe5b8090505b92915050565b600061720e6001617200612338565b61719d90919063ffffffff16565b905090565b61721d82826175db565b600980549050600a60008381526020019081526020016000208190555060098190806001815401808255809150509060018203906000526020600020016000909192909190915055505050565b600061727582617681565b806172e057506380ac58cd7c0100000000000000000000000000000000000000000000000000000000027bffffffffffffffffffffffffffffffffffffffffffffffffffffffff1916827bffffffffffffffffffffffffffffffffffffffffffffffffffffffff1916145b8061734b5750634f558e797c0100000000000000000000000000000000000000000000000000000000027bffffffffffffffffffffffffffffffffffffffffffffffffffffffff1916827bffffffffffffffffffffffffffffffffffffffffffffffffffffffff1916145b9050919050565b8173ffffffffffffffffffffffffffffffffffffffff166173728261390e565b73ffffffffffffffffffffffffffffffffffffffff1614151561739457600080fd5b6173e76001600360008573ffffffffffffffffffffffffffffffffffffffff1673ffffffffffffffffffffffffffffffffffffffff1681526020019081526020016000205461718490919063ffffffff16565b600360008473ffffffffffffffffffffffffffffffffffffffff1673ffffffffffffffffffffffffffffffffffffffff1681526020019081526020016000208190555060006001600083815260200190815260200160002060006101000a81548173ffffffffffffffffffffffffffffffffffffffff021916908373ffffffffffffffffffffffffffffffffffffffff1602179055505050565b600073ffffffffffffffffffffffffffffffffffffffff166001600083815260200190815260200160002060009054906101000a900473ffffffffffffffffffffffffffffffffffffffff1673ffffffffffffffffffffffffffffffffffffffff161415156174ef57600080fd5b816001600083815260200190815260200160002060006101000a81548173ffffffffffffffffffffffffffffffffffffffff021916908373ffffffffffffffffffffffffffffffffffffffff1602179055506175946001600360008573ffffffffffffffffffffffffffffffffffffffff1673ffffffffffffffffffffffffffffffffffffffff1681526020019081526020016000205461719d90919063ffffffff16565b600360008473ffffffffffffffffffffffffffffffffffffffff1673ffffffffffffffffffffffffffffffffffffffff168152602001908152602001600020819055505050565b600073ffffffffffffffffffffffffffffffffffffffff168273ffffffffffffffffffffffffffffffffffffffff161415151561761757600080fd5b6176218282616f97565b808273ffffffffffffffffffffffffffffffffffffffff16600073ffffffffffffffffffffffffffffffffffffffff167fddf252ad1be2c89b69c2b068fc378daa952ba7f163c4a11628f55a4df523b3ef60405160405180910390a45050565b60006301ffc9a77c0100000000000000000000000000000000000000000000000000000000027bffffffffffffffffffffffffffffffffffffffffffffffffffffffff1916827bffffffffffffffffffffffffffffffffffffffffffffffffffffffff1916149050919050565b828054600181600116156101000203166002900490600052602060002090601f016020900481019282601f1061772f57805160ff191683800117855561775d565b8280016001018555821561775d579182015b8281111561775c578251825591602001919060010190617741565b5b50905061776a91906177c6565b5090565b8154818355818111156177955781836000526020600020918201910161779491906177c6565b5b505050565b8154818355818111156177c1578183600052602060002091820191016177c091906177c6565b5b505050565b6177e891905b808211156177e45760008160009055506001016177cc565b5090565b905600a165627a7a723058204ba22d0176a9b559f2020694fa4b1fb049ce45c9692936237225e2bac2a0f3e00029",
  "source": "pragma solidity ^0.4.23;\r\n\r\n\r\nimport \"openzeppelin-zos/contracts/token/ERC721/ERC721Token.sol\";\r\nimport \"openzeppelin-zos/contracts/token/ERC721/ERC721Receiver.sol\";\r\nimport \"openzeppelin-zos/contracts/ownership/Ownable.sol\";\r\nimport \"zos-lib/contracts/migrations/Migratable.sol\";\r\n\r\nimport \"./IEstateRegistry.sol\";\r\nimport \"./EstateStorage.sol\";\r\n\r\n\r\n/**\r\n * @title ERC721 registry of every minted Estate and their owned LANDs\r\n * @dev Usings we are inheriting and depending on:\r\n * From ERC721Token:\r\n *   - using SafeMath for uint256;\r\n *   - using AddressUtils for address;\r\n */\r\n// solium-disable-next-line max-len\r\ncontract EstateRegistry is Migratable, IEstateRegistry, ERC721Token, ERC721Receiver, Ownable, EstateStorage {\r\n  modifier canTransfer(uint256 estateId) {\r\n    require(isApprovedOrOwner(msg.sender, estateId), \"Only owner or operator can transfer\");\r\n    _;\r\n  }\r\n\r\n  modifier onlyRegistry() {\r\n    require(msg.sender == address(registry), \"Only the registry can make this operation\");\r\n    _;\r\n  }\r\n\r\n  modifier onlyUpdateAuthorized(uint256 estateId) {\r\n    require(_isUpdateAuthorized(msg.sender, estateId), \"Unauthorized user\");\r\n    _;\r\n  }\r\n\r\n  modifier onlyLandUpdateAuthorized(uint256 estateId, uint256 landId) {\r\n    require(_isLandUpdateAuthorized(msg.sender, estateId, landId), \"unauthorized user\");\r\n    _;\r\n  }\r\n\r\n  modifier canSetUpdateOperator(uint256 estateId) {\r\n    address owner = ownerOf(estateId);\r\n    require(\r\n      isApprovedOrOwner(msg.sender, estateId) || updateManager[owner][msg.sender],\r\n      \"unauthorized user\"\r\n    );\r\n    _;\r\n  }\r\n\r\n  /**\r\n   * @dev Mint a new Estate with some metadata\r\n   * @param to The address that will own the minted token\r\n   * @param metadata Set an initial metadata\r\n   * @return An uint256 representing the new token id\r\n   */\r\n  function mint(address to, string metadata) external onlyRegistry returns (uint256) {\r\n    return _mintEstate(to, metadata);\r\n  }\r\n\r\n  /**\r\n   * @notice Transfer a LAND owned by an Estate to a new owner\r\n   * @param estateId Current owner of the token\r\n   * @param landId LAND to be transfered\r\n   * @param destinatary New owner\r\n   */\r\n  function transferLand(\r\n    uint256 estateId,\r\n    uint256 landId,\r\n    address destinatary\r\n  )\r\n    external\r\n    canTransfer(estateId)\r\n  {\r\n    return _transferLand(estateId, landId, destinatary);\r\n  }\r\n\r\n  /**\r\n   * @notice Transfer many tokens owned by an Estate to a new owner\r\n   * @param estateId Current owner of the token\r\n   * @param landIds LANDs to be transfered\r\n   * @param destinatary New owner\r\n   */\r\n  function transferManyLands(\r\n    uint256 estateId,\r\n    uint256[] landIds,\r\n    address destinatary\r\n  )\r\n    external\r\n    canTransfer(estateId)\r\n  {\r\n    uint length = landIds.length;\r\n    for (uint i = 0; i < length; i++) {\r\n      _transferLand(estateId, landIds[i], destinatary);\r\n    }\r\n  }\r\n\r\n  /**\r\n   * @notice Get the Estate id for a given LAND id\r\n   * @dev This information also lives on estateLandIds,\r\n   *   but it being a mapping you need to know the Estate id beforehand.\r\n   * @param landId LAND to search\r\n   * @return The corresponding Estate id\r\n   */\r\n  function getLandEstateId(uint256 landId) external view returns (uint256) {\r\n    return landIdEstate[landId];\r\n  }\r\n\r\n  function setLANDRegistry(address _registry) external onlyOwner {\r\n    require(_registry.isContract(), \"The LAND registry address should be a contract\");\r\n    require(_registry != 0, \"The LAND registry address should be valid\");\r\n    registry = LANDRegistry(_registry);\r\n    emit SetLANDRegistry(registry);\r\n  }\r\n\r\n  function ping() external {\r\n    registry.ping();\r\n  }\r\n\r\n  /**\r\n   * @notice Return the amount of tokens for a given Estate\r\n   * @param estateId Estate id to search\r\n   * @return Tokens length\r\n   */\r\n  function getEstateSize(uint256 estateId) external view returns (uint256) {\r\n    return estateLandIds[estateId].length;\r\n  }\r\n\r\n  /**\r\n   * @notice Return the amount of LANDs inside the Estates for a given address\r\n   * @param _owner of the estates\r\n   * @return the amount of LANDs\r\n   */\r\n  function getLANDsSize(address _owner) public view returns (uint256) {\r\n    // Avoid balanceOf to not compute an unnecesary require\r\n    uint256 landsSize;\r\n    uint256 balance = ownedTokensCount[_owner];\r\n    for (uint256 i; i < balance; i++) {\r\n      uint256 estateId = ownedTokens[_owner][i];\r\n      landsSize += estateLandIds[estateId].length;\r\n    }\r\n    return landsSize;\r\n  }\r\n\r\n  /**\r\n   * @notice Update the metadata of an Estate\r\n   * @dev Reverts if the Estate does not exist or the user is not authorized\r\n   * @param estateId Estate id to update\r\n   * @param metadata string metadata\r\n   */\r\n  function updateMetadata(\r\n    uint256 estateId,\r\n    string metadata\r\n  )\r\n    external\r\n    onlyUpdateAuthorized(estateId)\r\n  {\r\n    _updateMetadata(estateId, metadata);\r\n\r\n    emit Update(\r\n      estateId,\r\n      ownerOf(estateId),\r\n      msg.sender,\r\n      metadata\r\n    );\r\n  }\r\n\r\n  function getMetadata(uint256 estateId) external view returns (string) {\r\n    return estateData[estateId];\r\n  }\r\n\r\n  function isUpdateAuthorized(address operator, uint256 estateId) external view returns (bool) {\r\n    return _isUpdateAuthorized(operator, estateId);\r\n  }\r\n\r\n  /**\r\n  * @dev Set an updateManager for an account\r\n  * @param _owner - address of the account to set the updateManager\r\n  * @param _operator - address of the account to be set as the updateManager\r\n  * @param _approved - bool whether the address will be approved or not\r\n  */\r\n  function setUpdateManager(address _owner, address _operator, bool _approved) external {\r\n    require(_operator != msg.sender, \"The operator should be different from owner\");\r\n    require(\r\n      _owner == msg.sender\r\n      || operatorApprovals[_owner][msg.sender],\r\n      \"Unauthorized user\"\r\n    );\r\n\r\n    updateManager[_owner][_operator] = _approved;\r\n\r\n    emit UpdateManager(\r\n      _owner,\r\n      _operator,\r\n      msg.sender,\r\n      _approved\r\n    );\r\n  }\r\n\r\n  /**\r\n   * @notice Set Estate updateOperator\r\n   * @param estateId - Estate id\r\n   * @param operator - address of the account to be set as the updateOperator\r\n   */\r\n  function setUpdateOperator(\r\n    uint256 estateId,\r\n    address operator\r\n  )\r\n    public\r\n    canSetUpdateOperator(estateId)\r\n  {\r\n    updateOperator[estateId] = operator;\r\n    emit UpdateOperator(estateId, operator);\r\n  }\r\n\r\n  /**\r\n   * @notice Set Estates updateOperator\r\n   * @param _estateIds - Estate ids\r\n   * @param _operator - address of the account to be set as the updateOperator\r\n   */\r\n  function setManyUpdateOperator(\r\n    uint256[] _estateIds,\r\n    address _operator\r\n  )\r\n    public\r\n  {\r\n    for (uint i = 0; i < _estateIds.length; i++) {\r\n      setUpdateOperator(_estateIds[i], _operator);\r\n    }\r\n  }\r\n\r\n  /**\r\n   * @notice Set LAND updateOperator\r\n   * @param estateId - Estate id\r\n   * @param landId - LAND to set the updateOperator\r\n   * @param operator - address of the account to be set as the updateOperator\r\n   */\r\n  function setLandUpdateOperator(\r\n    uint256 estateId,\r\n    uint256 landId,\r\n    address operator\r\n  )\r\n    public\r\n    canSetUpdateOperator(estateId)\r\n  {\r\n    require(landIdEstate[landId] == estateId, \"The LAND is not part of the Estate\");\r\n    registry.setUpdateOperator(landId, operator);\r\n  }\r\n\r\n /**\r\n   * @notice Set many LAND updateOperator\r\n   * @param _estateId - Estate id\r\n   * @param _landIds - LANDs to set the updateOperator\r\n   * @param _operator - address of the account to be set as the updateOperator\r\n   */\r\n  function setManyLandUpdateOperator(\r\n    uint256 _estateId,\r\n    uint256[] _landIds,\r\n    address _operator\r\n  )\r\n    public\r\n    canSetUpdateOperator(_estateId)\r\n  {\r\n    for (uint i = 0; i < _landIds.length; i++) {\r\n      require(landIdEstate[_landIds[i]] == _estateId, \"The LAND is not part of the Estate\");\r\n    }\r\n    registry.setManyUpdateOperator(_landIds, _operator);\r\n  }\r\n\r\n  function initialize(\r\n    string _name,\r\n    string _symbol,\r\n    address _registry\r\n  )\r\n    public\r\n    isInitializer(\"EstateRegistry\", \"0.0.2\")\r\n  {\r\n    require(_registry != 0, \"The registry should be a valid address\");\r\n\r\n    ERC721Token.initialize(_name, _symbol);\r\n    Ownable.initialize(msg.sender);\r\n    registry = LANDRegistry(_registry);\r\n  }\r\n\r\n  /**\r\n   * @notice Handle the receipt of an NFT\r\n   * @dev The ERC721 smart contract calls this function on the recipient\r\n   * after a `safetransfer`. This function MAY throw to revert and reject the\r\n   * transfer. Return of other than the magic value MUST result in the\r\n   * transaction being reverted.\r\n   * Note: the contract address is always the message sender.\r\n   * @param _operator The address which called `safeTransferFrom` function\r\n   * @param _from The address which previously owned the token\r\n   * @param _tokenId The NFT identifier which is being transferred\r\n   * @param _data Additional data with no specified format\r\n   * @return `bytes4(keccak256(\"onERC721Received(address,address,uint256,bytes)\"))`\r\n   */\r\n  function onERC721Received(\r\n    address _operator,\r\n    address _from,\r\n    uint256 _tokenId,\r\n    bytes _data\r\n  )\r\n    public\r\n    onlyRegistry\r\n    returns (bytes4)\r\n  {\r\n    uint256 estateId = _bytesToUint(_data);\r\n    _pushLandId(estateId, _tokenId);\r\n    return ERC721_RECEIVED;\r\n  }\r\n\r\n  /**\r\n   * @dev Creates a checksum of the contents of the Estate\r\n   * @param estateId the estateId to be verified\r\n   */\r\n  function getFingerprint(uint256 estateId)\r\n    public\r\n    view\r\n    returns (bytes32 result)\r\n  {\r\n    result = keccak256(abi.encodePacked(\"estateId\", estateId));\r\n\r\n    uint256 length = estateLandIds[estateId].length;\r\n    for (uint i = 0; i < length; i++) {\r\n      result ^= keccak256(abi.encodePacked(estateLandIds[estateId][i]));\r\n    }\r\n    return result;\r\n  }\r\n\r\n  /**\r\n   * @dev Verifies a checksum of the contents of the Estate\r\n   * @param estateId the estateid to be verified\r\n   * @param fingerprint the user provided identification of the Estate contents\r\n   */\r\n  function verifyFingerprint(uint256 estateId, bytes fingerprint) public view returns (bool) {\r\n    return getFingerprint(estateId) == _bytesToBytes32(fingerprint);\r\n  }\r\n\r\n  /**\r\n   * @dev Safely transfers the ownership of multiple Estate IDs to another address\r\n   * @dev Delegates to safeTransferFrom for each transfer\r\n   * @dev Requires the msg sender to be the owner, approved, or operator\r\n   * @param from current owner of the token\r\n   * @param to address to receive the ownership of the given token ID\r\n   * @param estateIds uint256 array of IDs to be transferred\r\n  */\r\n  function safeTransferManyFrom(address from, address to, uint256[] estateIds) public {\r\n    safeTransferManyFrom(\r\n      from,\r\n      to,\r\n      estateIds,\r\n      \"\"\r\n    );\r\n  }\r\n\r\n  /**\r\n   * @dev Safely transfers the ownership of multiple Estate IDs to another address\r\n   * @dev Delegates to safeTransferFrom for each transfer\r\n   * @dev Requires the msg sender to be the owner, approved, or operator\r\n   * @param from current owner of the token\r\n   * @param to address to receive the ownership of the given token ID\r\n   * @param estateIds uint256 array of IDs to be transferred\r\n   * @param data bytes data to send along with a safe transfer check\r\n  */\r\n  function safeTransferManyFrom(\r\n    address from,\r\n    address to,\r\n    uint256[] estateIds,\r\n    bytes data\r\n  )\r\n    public\r\n  {\r\n    for (uint i = 0; i < estateIds.length; i++) {\r\n      safeTransferFrom(\r\n        from,\r\n        to,\r\n        estateIds[i],\r\n        data\r\n      );\r\n    }\r\n  }\r\n\r\n  /**\r\n   * @dev update LAND data owned by an Estate\r\n   * @param estateId Estate\r\n   * @param landId LAND to be updated\r\n   * @param data string metadata\r\n   */\r\n  function updateLandData(uint256 estateId, uint256 landId, string data) public {\r\n    _updateLandData(estateId, landId, data);\r\n  }\r\n\r\n  /**\r\n   * @dev update LANDs data owned by an Estate\r\n   * @param estateId Estate id\r\n   * @param landIds LANDs to be updated\r\n   * @param data string metadata\r\n   */\r\n  function updateManyLandData(uint256 estateId, uint256[] landIds, string data) public {\r\n    uint length = landIds.length;\r\n    for (uint i = 0; i < length; i++) {\r\n      _updateLandData(estateId, landIds[i], data);\r\n    }\r\n  }\r\n\r\n  function transferFrom(address _from, address _to, uint256 _tokenId)\r\n  public\r\n  {\r\n    updateOperator[_tokenId] = address(0);\r\n    _updateEstateLandBalance(_from, _to, estateLandIds[_tokenId].length);\r\n    super.transferFrom(_from, _to, _tokenId);\r\n  }\r\n\r\n  // check the supported interfaces via ERC165\r\n  function _supportsInterface(bytes4 _interfaceId) internal view returns (bool) {\r\n    // solium-disable-next-line operator-whitespace\r\n    return super._supportsInterface(_interfaceId)\r\n      || _interfaceId == InterfaceId_GetMetadata\r\n      || _interfaceId == InterfaceId_VerifyFingerprint;\r\n  }\r\n\r\n  /**\r\n   * @dev Internal function to mint a new Estate with some metadata\r\n   * @param to The address that will own the minted token\r\n   * @param metadata Set an initial metadata\r\n   * @return An uint256 representing the new token id\r\n   */\r\n  function _mintEstate(address to, string metadata) internal returns (uint256) {\r\n    require(to != address(0), \"You can not mint to an empty address\");\r\n    uint256 estateId = _getNewEstateId();\r\n    _mint(to, estateId);\r\n    _updateMetadata(estateId, metadata);\r\n    emit CreateEstate(to, estateId, metadata);\r\n    return estateId;\r\n  }\r\n\r\n  /**\r\n   * @dev Internal function to update an Estate metadata\r\n   * @dev Does not require the Estate to exist, for a public interface use `updateMetadata`\r\n   * @param estateId Estate id to update\r\n   * @param metadata string metadata\r\n   */\r\n  function _updateMetadata(uint256 estateId, string metadata) internal {\r\n    estateData[estateId] = metadata;\r\n  }\r\n\r\n  /**\r\n   * @notice Return a new unique id\r\n   * @dev It uses totalSupply to determine the next id\r\n   * @return uint256 Representing the new Estate id\r\n   */\r\n  function _getNewEstateId() internal view returns (uint256) {\r\n    return totalSupply().add(1);\r\n  }\r\n\r\n  /**\r\n   * @dev Appends a new LAND id to an Estate updating all related storage\r\n   * @param estateId Estate where the LAND should go\r\n   * @param landId Transfered LAND\r\n   */\r\n  function _pushLandId(uint256 estateId, uint256 landId) internal {\r\n    require(exists(estateId), \"The Estate id should exist\");\r\n    require(landIdEstate[landId] == 0, \"The LAND is already owned by an Estate\");\r\n    require(registry.ownerOf(landId) == address(this), \"The EstateRegistry cannot manage the LAND\");\r\n\r\n    estateLandIds[estateId].push(landId);\r\n\r\n    landIdEstate[landId] = estateId;\r\n\r\n    estateLandIndex[estateId][landId] = estateLandIds[estateId].length;\r\n\r\n    address owner = ownerOf(estateId);\r\n    _updateEstateLandBalance(address(registry), owner, 1);\r\n\r\n    emit AddLand(estateId, landId);\r\n  }\r\n\r\n  /**\r\n   * @dev Removes a LAND from an Estate and transfers it to a new owner\r\n   * @param estateId Current owner of the LAND\r\n   * @param landId LAND to be transfered\r\n   * @param destinatary New owner\r\n   */\r\n  function _transferLand(\r\n    uint256 estateId,\r\n    uint256 landId,\r\n    address destinatary\r\n  )\r\n    internal\r\n  {\r\n    require(destinatary != address(0), \"You can not transfer LAND to an empty address\");\r\n\r\n    uint256[] storage landIds = estateLandIds[estateId];\r\n    mapping(uint256 => uint256) landIndex = estateLandIndex[estateId];\r\n\r\n    /**\r\n     * Using 1-based indexing to be able to make this check\r\n     */\r\n    require(landIndex[landId] != 0, \"The LAND is not part of the Estate\");\r\n\r\n    uint lastIndexInArray = landIds.length.sub(1);\r\n\r\n    /**\r\n     * Get the landIndex of this token in the landIds list\r\n     */\r\n    uint indexInArray = landIndex[landId].sub(1);\r\n\r\n    /**\r\n     * Get the landId at the end of the landIds list\r\n     */\r\n    uint tempTokenId = landIds[lastIndexInArray];\r\n\r\n    /**\r\n     * Store the last token in the position previously occupied by landId\r\n     */\r\n    landIndex[tempTokenId] = indexInArray.add(1);\r\n    landIds[indexInArray] = tempTokenId;\r\n\r\n    /**\r\n     * Delete the landIds[last element]\r\n     */\r\n    delete landIds[lastIndexInArray];\r\n    landIds.length = lastIndexInArray;\r\n\r\n    /**\r\n     * Drop this landId from both the landIndex and landId list\r\n     */\r\n    landIndex[landId] = 0;\r\n\r\n    /**\r\n     * Drop this landId Estate\r\n     */\r\n    landIdEstate[landId] = 0;\r\n\r\n    address owner = ownerOf(estateId);\r\n    _updateEstateLandBalance(owner, address(registry), 1);\r\n\r\n    registry.safeTransferFrom(this, destinatary, landId);\r\n\r\n\r\n    emit RemoveLand(estateId, landId, destinatary);\r\n  }\r\n\r\n  function _isUpdateAuthorized(address operator, uint256 estateId) internal view returns (bool) {\r\n    address owner = ownerOf(estateId);\r\n\r\n    return isApprovedOrOwner(operator, estateId)\r\n      || updateOperator[estateId] == operator\r\n      || updateManager[owner][operator];\r\n  }\r\n\r\n  function _isLandUpdateAuthorized(\r\n    address operator,\r\n    uint256 estateId,\r\n    uint256 landId\r\n  )\r\n    internal returns (bool)\r\n  {\r\n    return _isUpdateAuthorized(operator, estateId) || registry.updateOperator(landId) == operator;\r\n  }\r\n\r\n  function _bytesToUint(bytes b) internal pure returns (uint256) {\r\n    return uint256(_bytesToBytes32(b));\r\n  }\r\n\r\n  function _bytesToBytes32(bytes b) internal pure returns (bytes32) {\r\n    bytes32 out;\r\n\r\n    for (uint i = 0; i < b.length; i++) {\r\n      out |= bytes32(b[i] & 0xFF) >> i.mul(8);\r\n    }\r\n\r\n    return out;\r\n  }\r\n\r\n  function _updateLandData(\r\n    uint256 estateId,\r\n    uint256 landId,\r\n    string data\r\n  )\r\n    internal\r\n    onlyLandUpdateAuthorized(estateId, landId)\r\n  {\r\n    require(landIdEstate[landId] == estateId, \"The LAND is not part of the Estate\");\r\n    int x;\r\n    int y;\r\n    (x, y) = registry.decodeTokenId(landId);\r\n    registry.updateLandData(x, y, data);\r\n  }\r\n\r\n  /**\r\n   * @dev Set a new estate land balance minime token\r\n   * @param _newEstateLandBalance address of the new estate land balance token\r\n   */\r\n  function _setEstateLandBalanceToken(address _newEstateLandBalance) internal {\r\n    require(_newEstateLandBalance != address(0), \"New estateLandBalance should not be zero address\");\r\n    emit SetEstateLandBalanceToken(estateLandBalance, _newEstateLandBalance);\r\n    estateLandBalance = IMiniMeToken(_newEstateLandBalance);\r\n  }\r\n\r\n   /**\r\n   * @dev Register an account balance\r\n   * @notice Register land Balance\r\n   */\r\n  function registerBalance() external {\r\n    require(!registeredBalance[msg.sender], \"Register Balance::The user is already registered\");\r\n\r\n    // Get balance of the sender\r\n    uint256 currentBalance = estateLandBalance.balanceOf(msg.sender);\r\n    if (currentBalance > 0) {\r\n      require(\r\n        estateLandBalance.destroyTokens(msg.sender, currentBalance),\r\n        \"Register Balance::Could not destroy tokens\"\r\n      );\r\n    }\r\n\r\n    // Set balance as registered\r\n    registeredBalance[msg.sender] = true;\r\n\r\n    // Get LAND balance\r\n    uint256 newBalance = getLANDsSize(msg.sender);\r\n\r\n    // Generate Tokens\r\n    require(\r\n      estateLandBalance.generateTokens(msg.sender, newBalance),\r\n      \"Register Balance::Could not generate tokens\"\r\n    );\r\n  }\r\n\r\n  /**\r\n   * @dev Unregister an account balance\r\n   * @notice Unregister land Balance\r\n   */\r\n  function unregisterBalance() external {\r\n    require(registeredBalance[msg.sender], \"Unregister Balance::The user not registered\");\r\n\r\n    // Set balance as unregistered\r\n    registeredBalance[msg.sender] = false;\r\n\r\n    // Get balance\r\n    uint256 currentBalance = estateLandBalance.balanceOf(msg.sender);\r\n\r\n    // Destroy Tokens\r\n    require(\r\n      estateLandBalance.destroyTokens(msg.sender, currentBalance),\r\n      \"Unregister Balance::Could not destroy tokens\"\r\n    );\r\n  }\r\n\r\n  /**\r\n   * @dev Update account balances\r\n   * @param _from account\r\n   * @param _to account\r\n   * @param _amount to update\r\n   */\r\n  function _updateEstateLandBalance(address _from, address _to, uint256 _amount) internal {\r\n    if (registeredBalance[_from]) {\r\n      estateLandBalance.destroyTokens(_from, _amount);\r\n    }\r\n\r\n    if (registeredBalance[_to]) {\r\n      estateLandBalance.generateTokens(_to, _amount);\r\n    }\r\n  }\r\n\r\n  /**\r\n   * @dev Set a estate land balance minime token hardcoded because of the\r\n   * contraint of the proxy for using an owner\r\n   * Mainnet: 0x8568f23f343694650370fe5e254b55bfb704a6c7\r\n   */\r\n  function setEstateLandBalanceToken() external {\r\n    require(estateLandBalance == address(0), \"estateLandBalance was set\");\r\n    _setEstateLandBalanceToken(address(0x8568f23f343694650370fe5e254b55bfb704a6c7));\r\n  }\r\n}\r\n",
  "sourcePath": "B:\\Block Chain Development\\Advanced Blockchain Technology\\Decentraland\\Truffle\\contracts\\estate\\EstateRegistry.sol",
  "compiler": {
    "name": "solc",
    "version": "0.4.24+commit.e67f0147.Emscripten.clang"
  },
  "schemaVersion": "3.4.4",
  "updatedAt": "2022-02-04T19:49:00.327Z",
  "devdoc": {
    "methods": {
      "approve(address,uint256)": {
        "details": "Approves another address to transfer the given token ID The zero address indicates there is no approved address. There can only be one approved address per token at a given time. Can only be called by the token owner or an approved operator.",
        "params": {
          "_to": "address to be approved for the given token ID",
          "_tokenId": "uint256 ID of the token to be approved"
        }
      },
      "balanceOf(address)": {
        "details": "Gets the balance of the specified address",
        "params": {
          "_owner": "address to query the balance of"
        },
        "return": "uint256 representing the amount owned by the passed address"
      },
      "exists(uint256)": {
        "details": "Returns whether the specified token exists",
        "params": {
          "_tokenId": "uint256 ID of the token to query the existence of"
        },
        "return": "whether the token exists"
      },
      "getApproved(uint256)": {
        "details": "Gets the approved address for a token ID, or zero if no address set",
        "params": {
          "_tokenId": "uint256 ID of the token to query the approval of"
        },
        "return": "address currently approved for the given token ID"
      },
      "getEstateSize(uint256)": {
        "params": {
          "estateId": "Estate id to search\r"
        },
        "return": "Tokens length\r"
      },
      "getFingerprint(uint256)": {
        "details": "Creates a checksum of the contents of the Estate\r",
        "params": {
          "estateId": "the estateId to be verified\r"
        }
      },
      "getLANDsSize(address)": {
        "params": {
          "_owner": "of the estates\r"
        },
        "return": "the amount of LANDs\r"
      },
      "getLandEstateId(uint256)": {
        "details": "This information also lives on estateLandIds,\r  but it being a mapping you need to know the Estate id beforehand.\r",
        "params": {
          "landId": "LAND to search\r"
        },
        "return": "The corresponding Estate id\r"
      },
      "initialize(address)": {
        "details": "The Ownable constructor sets the original `owner` of the contract to the sender account."
      },
      "initialize(string,string)": {
        "details": "Constructor function"
      },
      "isApprovedForAll(address,address)": {
        "details": "Tells whether an operator is approved by a given owner",
        "params": {
          "_operator": "operator address which you want to query the approval of",
          "_owner": "owner address which you want to query the approval of"
        },
        "return": "bool whether the given operator is approved by the given owner"
      },
      "isMigrated(string,string)": {
        "params": {
          "contractName": "Contract name",
          "migrationId": "migration id"
        },
        "return": "if the contract was already migrated with given migration"
      },
      "mint(address,string)": {
        "details": "Mint a new Estate with some metadata\r",
        "params": {
          "metadata": "Set an initial metadata\r",
          "to": "The address that will own the minted token\r"
        },
        "return": "An uint256 representing the new token id\r"
      },
      "name()": {
        "details": "Gets the token name",
        "return": "string representing the token name"
      },
      "onERC721Received(address,address,uint256,bytes)": {
        "details": "The ERC721 smart contract calls this function on the recipient\r after a `safetransfer`. This function MAY throw to revert and reject the\r transfer. Return of other than the magic value MUST result in the\r transaction being reverted.\r Note: the contract address is always the message sender.\r",
        "params": {
          "_data": "Additional data with no specified format\r",
          "_from": "The address which previously owned the token\r",
          "_operator": "The address which called `safeTransferFrom` function\r",
          "_tokenId": "The NFT identifier which is being transferred\r"
        },
        "return": "`bytes4(keccak256(\"onERC721Received(address,address,uint256,bytes)\"))`\r"
      },
      "ownerOf(uint256)": {
        "details": "Gets the owner of the specified token ID",
        "params": {
          "_tokenId": "uint256 ID of the token to query the owner of"
        },
        "return": "owner address currently marked as the owner of the given token ID"
      },
      "registerBalance()": {
        "details": "Register an account balance\r"
      },
      "safeTransferFrom(address,address,uint256)": {
        "details": "Safely transfers the ownership of a given token ID to another address If the target address is a contract, it must implement `onERC721Received`, which is called upon a safe transfer, and return the magic value `bytes4(keccak256(\"onERC721Received(address,address,uint256,bytes)\"))`; otherwise, the transfer is reverted.   * Requires the msg sender to be the owner, approved, or operator",
        "params": {
          "_from": "current owner of the token",
          "_to": "address to receive the ownership of the given token ID",
          "_tokenId": "uint256 ID of the token to be transferred"
        }
      },
      "safeTransferFrom(address,address,uint256,bytes)": {
        "details": "Safely transfers the ownership of a given token ID to another address If the target address is a contract, it must implement `onERC721Received`, which is called upon a safe transfer, and return the magic value `bytes4(keccak256(\"onERC721Received(address,address,uint256,bytes)\"))`; otherwise, the transfer is reverted. Requires the msg sender to be the owner, approved, or operator",
        "params": {
          "_data": "bytes data to send along with a safe transfer check",
          "_from": "current owner of the token",
          "_to": "address to receive the ownership of the given token ID",
          "_tokenId": "uint256 ID of the token to be transferred"
        }
      },
      "safeTransferManyFrom(address,address,uint256[])": {
        "details": "Safely transfers the ownership of multiple Estate IDs to another address\rDelegates to safeTransferFrom for each transfer\rRequires the msg sender to be the owner, approved, or operator\r",
        "params": {
          "estateIds": "uint256 array of IDs to be transferred\r",
          "from": "current owner of the token\r",
          "to": "address to receive the ownership of the given token ID\r"
        }
      },
      "safeTransferManyFrom(address,address,uint256[],bytes)": {
        "details": "Safely transfers the ownership of multiple Estate IDs to another address\rDelegates to safeTransferFrom for each transfer\rRequires the msg sender to be the owner, approved, or operator\r",
        "params": {
          "data": "bytes data to send along with a safe transfer check\r",
          "estateIds": "uint256 array of IDs to be transferred\r",
          "from": "current owner of the token\r",
          "to": "address to receive the ownership of the given token ID\r"
        }
      },
      "setApprovalForAll(address,bool)": {
        "details": "Sets or unsets the approval of a given operator An operator is allowed to transfer all tokens of the sender on their behalf",
        "params": {
          "_approved": "representing the status of the approval to be set",
          "_to": "operator address to set the approval"
        }
      },
      "setEstateLandBalanceToken()": {
        "details": "Set a estate land balance minime token hardcoded because of the\r contraint of the proxy for using an owner\r Mainnet: 0x8568f23f343694650370fe5e254b55bfb704a6c7\r"
      },
      "setLandUpdateOperator(uint256,uint256,address)": {
        "params": {
          "estateId": "- Estate id\r",
          "landId": "- LAND to set the updateOperator\r",
          "operator": "- address of the account to be set as the updateOperator\r"
        }
      },
      "setManyLandUpdateOperator(uint256,uint256[],address)": {
        "params": {
          "_estateId": "- Estate id\r",
          "_landIds": "- LANDs to set the updateOperator\r",
          "_operator": "- address of the account to be set as the updateOperator\r"
        }
      },
      "setManyUpdateOperator(uint256[],address)": {
        "params": {
          "_estateIds": "- Estate ids\r",
          "_operator": "- address of the account to be set as the updateOperator\r"
        }
      },
      "setUpdateManager(address,address,bool)": {
        "details": "Set an updateManager for an account\r",
        "params": {
          "_approved": "- bool whether the address will be approved or not\r",
          "_operator": "- address of the account to be set as the updateManager\r",
          "_owner": "- address of the account to set the updateManager\r"
        }
      },
      "setUpdateOperator(uint256,address)": {
        "params": {
          "estateId": "- Estate id\r",
          "operator": "- address of the account to be set as the updateOperator\r"
        }
      },
      "symbol()": {
        "details": "Gets the token symbol",
        "return": "string representing the token symbol"
      },
      "tokenByIndex(uint256)": {
        "details": "Gets the token ID at a given index of all the tokens in this contract Reverts if the index is greater or equal to the total number of tokens",
        "params": {
          "_index": "uint256 representing the index to be accessed of the tokens list"
        },
        "return": "uint256 token ID at the given index of the tokens list"
      },
      "tokenOfOwnerByIndex(address,uint256)": {
        "details": "Gets the token ID at a given index of the tokens list of the requested owner",
        "params": {
          "_index": "uint256 representing the index to be accessed of the requested tokens list",
          "_owner": "address owning the tokens list to be accessed"
        },
        "return": "uint256 token ID at the given index of the tokens list owned by the requested address"
      },
      "tokenURI(uint256)": {
        "details": "Returns an URI for a given token ID Throws if the token ID does not exist. May return an empty string.",
        "params": {
          "_tokenId": "uint256 ID of the token to query"
        }
      },
      "totalSupply()": {
        "details": "Gets the total amount of tokens stored by the contract",
        "return": "uint256 representing the total amount of tokens"
      },
      "transferLand(uint256,uint256,address)": {
        "params": {
          "destinatary": "New owner\r",
          "estateId": "Current owner of the token\r",
          "landId": "LAND to be transfered\r"
        }
      },
      "transferManyLands(uint256,uint256[],address)": {
        "params": {
          "destinatary": "New owner\r",
          "estateId": "Current owner of the token\r",
          "landIds": "LANDs to be transfered\r"
        }
      },
      "transferOwnership(address)": {
        "details": "Allows the current owner to transfer control of the contract to a newOwner.",
        "params": {
          "newOwner": "The address to transfer ownership to."
        }
      },
      "unregisterBalance()": {
        "details": "Unregister an account balance\r"
      },
      "updateLandData(uint256,uint256,string)": {
        "details": "update LAND data owned by an Estate\r",
        "params": {
          "data": "string metadata\r",
          "estateId": "Estate\r",
          "landId": "LAND to be updated\r"
        }
      },
      "updateManyLandData(uint256,uint256[],string)": {
        "details": "update LANDs data owned by an Estate\r",
        "params": {
          "data": "string metadata\r",
          "estateId": "Estate id\r",
          "landIds": "LANDs to be updated\r"
        }
      },
      "updateMetadata(uint256,string)": {
        "details": "Reverts if the Estate does not exist or the user is not authorized\r",
        "params": {
          "estateId": "Estate id to update\r",
          "metadata": "string metadata\r"
        }
      },
      "verifyFingerprint(uint256,bytes)": {
        "details": "Verifies a checksum of the contents of the Estate\r",
        "params": {
          "estateId": "the estateid to be verified\r",
          "fingerprint": "the user provided identification of the Estate contents\r"
        }
      }
    },
    "title": "ERC721 registry of every minted Estate and their owned LANDs\r"
  },
  "userdoc": {
    "methods": {
      "getEstateSize(uint256)": {
        "notice": "Return the amount of tokens for a given Estate\r"
      },
      "getLANDsSize(address)": {
        "notice": "Return the amount of LANDs inside the Estates for a given address\r"
      },
      "getLandEstateId(uint256)": {
        "notice": "Get the Estate id for a given LAND id\r"
      },
      "onERC721Received(address,address,uint256,bytes)": {
        "notice": "Handle the receipt of an NFT\r"
      },
      "registerBalance()": {
        "notice": "Register land Balance\r"
      },
      "setLandUpdateOperator(uint256,uint256,address)": {
        "notice": "Set LAND updateOperator\r"
      },
      "setManyLandUpdateOperator(uint256,uint256[],address)": {
        "notice": "Set many LAND updateOperator\r"
      },
      "setManyUpdateOperator(uint256[],address)": {
        "notice": "Set Estates updateOperator\r"
      },
      "setUpdateOperator(uint256,address)": {
        "notice": "Set Estate updateOperator\r"
      },
      "supportsInterface(bytes4)": {
        "notice": "0x01ffc9a7 ===  bytes4(keccak256('supportsInterface(bytes4)'))"
      },
      "transferLand(uint256,uint256,address)": {
        "notice": "Transfer a LAND owned by an Estate to a new owner\r"
      },
      "transferManyLands(uint256,uint256[],address)": {
        "notice": "Transfer many tokens owned by an Estate to a new owner\r"
      },
      "unregisterBalance()": {
        "notice": "Unregister land Balance\r"
      },
      "updateMetadata(uint256,string)": {
        "notice": "Update the metadata of an Estate\r"
      }
    }
  }
}