{
  "contractName": "EstateStorage",
  "abi": [
    {
      "constant": true,
      "inputs": [
        {
          "name": "",
          "type": "address"
        },
        {
          "name": "",
          "type": "address"
        }
      ],
      "name": "updateManager",
      "outputs": [
        {
          "name": "",
          "type": "bool"
        }
      ],
      "payable": false,
      "stateMutability": "view",
      "type": "function"
    },
    {
      "constant": true,
      "inputs": [
        {
          "name": "",
          "type": "uint256"
        }
      ],
      "name": "landIdEstate",
      "outputs": [
        {
          "name": "",
          "type": "uint256"
        }
      ],
      "payable": false,
      "stateMutability": "view",
      "type": "function"
    },
    {
      "constant": true,
      "inputs": [],
      "name": "estateLandBalance",
      "outputs": [
        {
          "name": "",
          "type": "address"
        }
      ],
      "payable": false,
      "stateMutability": "view",
      "type": "function"
    },
    {
      "constant": true,
      "inputs": [
        {
          "name": "",
          "type": "uint256"
        },
        {
          "name": "",
          "type": "uint256"
        }
      ],
      "name": "estateLandIds",
      "outputs": [
        {
          "name": "",
          "type": "uint256"
        }
      ],
      "payable": false,
      "stateMutability": "view",
      "type": "function"
    },
    {
      "constant": true,
      "inputs": [
        {
          "name": "",
          "type": "address"
        }
      ],
      "name": "registeredBalance",
      "outputs": [
        {
          "name": "",
          "type": "bool"
        }
      ],
      "payable": false,
      "stateMutability": "view",
      "type": "function"
    },
    {
      "constant": true,
      "inputs": [],
      "name": "registry",
      "outputs": [
        {
          "name": "",
          "type": "address"
        }
      ],
      "payable": false,
      "stateMutability": "view",
      "type": "function"
    },
    {
      "constant": true,
      "inputs": [
        {
          "name": "",
          "type": "uint256"
        }
      ],
      "name": "updateOperator",
      "outputs": [
        {
          "name": "",
          "type": "address"
        }
      ],
      "payable": false,
      "stateMutability": "view",
      "type": "function"
    },
    {
      "constant": true,
      "inputs": [
        {
          "name": "",
          "type": "uint256"
        },
        {
          "name": "",
          "type": "uint256"
        }
      ],
      "name": "estateLandIndex",
      "outputs": [
        {
          "name": "",
          "type": "uint256"
        }
      ],
      "payable": false,
      "stateMutability": "view",
      "type": "function"
    }
  ],
  "bytecode": "0x608060405234801561001057600080fd5b506104c1806100206000396000f30060806040526004361061008e576000357c0100000000000000000000000000000000000000000000000000000000900463ffffffff16806307ecec3e146100935780630a354fce1461010e578063394c405c1461014f5780633970bfd3146101a65780636087de1b146101f15780637b1039991461024c5780639d40b850146102a35780639f813b1b14610310575b600080fd5b34801561009f57600080fd5b506100f4600480360381019080803573ffffffffffffffffffffffffffffffffffffffff169060200190929190803573ffffffffffffffffffffffffffffffffffffffff16906020019092919050505061035b565b604051808215151515815260200191505060405180910390f35b34801561011a57600080fd5b506101396004803603810190808035906020019092919050505061038a565b6040518082815260200191505060405180910390f35b34801561015b57600080fd5b506101646103a2565b604051808273ffffffffffffffffffffffffffffffffffffffff1673ffffffffffffffffffffffffffffffffffffffff16815260200191505060405180910390f35b3480156101b257600080fd5b506101db60048036038101908080359060200190929190803590602001909291905050506103c8565b6040518082815260200191505060405180910390f35b3480156101fd57600080fd5b50610232600480360381019080803573ffffffffffffffffffffffffffffffffffffffff1690602001909291905050506103f8565b604051808215151515815260200191505060405180910390f35b34801561025857600080fd5b50610261610418565b604051808273ffffffffffffffffffffffffffffffffffffffff1673ffffffffffffffffffffffffffffffffffffffff16815260200191505060405180910390f35b3480156102af57600080fd5b506102ce6004803603810190808035906020019092919050505061043d565b604051808273ffffffffffffffffffffffffffffffffffffffff1673ffffffffffffffffffffffffffffffffffffffff16815260200191505060405180910390f35b34801561031c57600080fd5b506103456004803603810190808035906020019092919080359060200190929190505050610470565b6040518082815260200191505060405180910390f35b60066020528160005260406000206020528060005260406000206000915091509054906101000a900460ff1681565b60026020528060005260406000206000915090505481565b600760009054906101000a900473ffffffffffffffffffffffffffffffffffffffff1681565b6001602052816000526040600020818154811015156103e357fe5b90600052602060002001600091509150505481565b60086020528060005260406000206000915054906101000a900460ff1681565b6000809054906101000a900473ffffffffffffffffffffffffffffffffffffffff1681565b60056020528060005260406000206000915054906101000a900473ffffffffffffffffffffffffffffffffffffffff1681565b60036020528160005260406000206020528060005260406000206000915091505054815600a165627a7a72305820870cf82dc53fb60859ea5ec7bfc3b3e4b69047fb3fd63d1141a7de6dcf3bd4870029",
  "source": "pragma solidity ^0.4.23;\r\n\r\nimport \"../minimeToken/IMinimeToken.sol\";\r\n\r\ncontract LANDRegistry {\r\n  function decodeTokenId(uint value) external pure returns (int, int);\r\n  function updateLandData(int x, int y, string data) external;\r\n  function setUpdateOperator(uint256 assetId, address operator) external;\r\n  function setManyUpdateOperator(uint256[] landIds, address operator) external;\r\n  function ping() public;\r\n  function ownerOf(uint256 tokenId) public returns (address);\r\n  function safeTransferFrom(address, address, uint256) public;\r\n  function updateOperator(uint256 landId) public returns (address);\r\n}\r\n\r\n\r\ncontract EstateStorage {\r\n  bytes4 internal constant InterfaceId_GetMetadata = bytes4(keccak256(\"getMetadata(uint256)\"));\r\n  bytes4 internal constant InterfaceId_VerifyFingerprint = bytes4(\r\n    keccak256(\"verifyFingerprint(uint256,bytes)\")\r\n  );\r\n\r\n  LANDRegistry public registry;\r\n\r\n  // From Estate to list of owned LAND ids (LANDs)\r\n  mapping(uint256 => uint256[]) public estateLandIds;\r\n\r\n  // From LAND id (LAND) to its owner Estate id\r\n  mapping(uint256 => uint256) public landIdEstate;\r\n\r\n  // From Estate id to mapping of LAND id to index on the array above (estateLandIds)\r\n  mapping(uint256 => mapping(uint256 => uint256)) public estateLandIndex;\r\n\r\n  // Metadata of the Estate\r\n  mapping(uint256 => string) internal estateData;\r\n\r\n  // Operator of the Estate\r\n  mapping (uint256 => address) public updateOperator;\r\n\r\n  // From account to mapping of operator to bool whether is allowed to update content or not\r\n  mapping(address => mapping(address => bool)) public updateManager;\r\n\r\n  // Land balance minime token\r\n  IMiniMeToken public estateLandBalance;\r\n\r\n  // Registered balance accounts\r\n  mapping(address => bool) public registeredBalance;\r\n\r\n}\r\n",
  "sourcePath": "B:\\Block Chain Development\\Advanced Blockchain Technology\\Decentraland\\Truffle\\contracts\\estate\\EstateStorage.sol",
  "compiler": {
    "name": "solc",
    "version": "0.4.24+commit.e67f0147.Emscripten.clang"
  },
  "schemaVersion": "3.4.4",
  "updatedAt": "2022-02-03T17:24:10.809Z",
  "devdoc": {
    "methods": {}
  },
  "userdoc": {
    "methods": {}
  }
}