{
  "contractName": "FullAssetRegistry",
  "abi": [
    {
      "constant": true,
      "inputs": [
        {
          "name": "_interfaceID",
          "type": "bytes4"
        }
      ],
      "name": "supportsInterface",
      "outputs": [
        {
          "name": "",
          "type": "bool"
        }
      ],
      "payable": false,
      "stateMutability": "view",
      "type": "function"
    },
    {
      "constant": true,
      "inputs": [],
      "name": "name",
      "outputs": [
        {
          "name": "",
          "type": "string"
        }
      ],
      "payable": false,
      "stateMutability": "view",
      "type": "function"
    },
    {
      "constant": true,
      "inputs": [
        {
          "name": "assetId",
          "type": "uint256"
        }
      ],
      "name": "getApproved",
      "outputs": [
        {
          "name": "",
          "type": "address"
        }
      ],
      "payable": false,
      "stateMutability": "view",
      "type": "function"
    },
    {
      "constant": false,
      "inputs": [
        {
          "name": "operator",
          "type": "address"
        },
        {
          "name": "assetId",
          "type": "uint256"
        }
      ],
      "name": "approve",
      "outputs": [],
      "payable": false,
      "stateMutability": "nonpayable",
      "type": "function"
    },
    {
      "constant": true,
      "inputs": [],
      "name": "totalSupply",
      "outputs": [
        {
          "name": "",
          "type": "uint256"
        }
      ],
      "payable": false,
      "stateMutability": "view",
      "type": "function"
    },
    {
      "constant": false,
      "inputs": [
        {
          "name": "from",
          "type": "address"
        },
        {
          "name": "to",
          "type": "address"
        },
        {
          "name": "assetId",
          "type": "uint256"
        }
      ],
      "name": "transferFrom",
      "outputs": [],
      "payable": false,
      "stateMutability": "nonpayable",
      "type": "function"
    },
    {
      "constant": true,
      "inputs": [
        {
          "name": "operator",
          "type": "address"
        },
        {
          "name": "assetId",
          "type": "uint256"
        }
      ],
      "name": "isAuthorized",
      "outputs": [
        {
          "name": "",
          "type": "bool"
        }
      ],
      "payable": false,
      "stateMutability": "view",
      "type": "function"
    },
    {
      "constant": true,
      "inputs": [
        {
          "name": "owner",
          "type": "address"
        },
        {
          "name": "index",
          "type": "uint256"
        }
      ],
      "name": "tokenOfOwnerByIndex",
      "outputs": [
        {
          "name": "assetId",
          "type": "uint256"
        }
      ],
      "payable": false,
      "stateMutability": "view",
      "type": "function"
    },
    {
      "constant": false,
      "inputs": [
        {
          "name": "from",
          "type": "address"
        },
        {
          "name": "to",
          "type": "address"
        },
        {
          "name": "assetId",
          "type": "uint256"
        }
      ],
      "name": "safeTransferFrom",
      "outputs": [],
      "payable": false,
      "stateMutability": "nonpayable",
      "type": "function"
    },
    {
      "constant": true,
      "inputs": [
        {
          "name": "owner",
          "type": "address"
        }
      ],
      "name": "tokensOf",
      "outputs": [
        {
          "name": "",
          "type": "uint256[]"
        }
      ],
      "payable": false,
      "stateMutability": "view",
      "type": "function"
    },
    {
      "constant": true,
      "inputs": [
        {
          "name": "assetId",
          "type": "uint256"
        }
      ],
      "name": "ownerOf",
      "outputs": [
        {
          "name": "",
          "type": "address"
        }
      ],
      "payable": false,
      "stateMutability": "view",
      "type": "function"
    },
    {
      "constant": true,
      "inputs": [
        {
          "name": "assetId",
          "type": "uint256"
        }
      ],
      "name": "tokenMetadata",
      "outputs": [
        {
          "name": "",
          "type": "string"
        }
      ],
      "payable": false,
      "stateMutability": "view",
      "type": "function"
    },
    {
      "constant": true,
      "inputs": [
        {
          "name": "owner",
          "type": "address"
        }
      ],
      "name": "balanceOf",
      "outputs": [
        {
          "name": "",
          "type": "uint256"
        }
      ],
      "payable": false,
      "stateMutability": "view",
      "type": "function"
    },
    {
      "constant": true,
      "inputs": [],
      "name": "description",
      "outputs": [
        {
          "name": "",
          "type": "string"
        }
      ],
      "payable": false,
      "stateMutability": "view",
      "type": "function"
    },
    {
      "constant": true,
      "inputs": [],
      "name": "symbol",
      "outputs": [
        {
          "name": "",
          "type": "string"
        }
      ],
      "payable": false,
      "stateMutability": "view",
      "type": "function"
    },
    {
      "constant": false,
      "inputs": [
        {
          "name": "operator",
          "type": "address"
        },
        {
          "name": "authorized",
          "type": "bool"
        }
      ],
      "name": "setApprovalForAll",
      "outputs": [],
      "payable": false,
      "stateMutability": "nonpayable",
      "type": "function"
    },
    {
      "constant": false,
      "inputs": [
        {
          "name": "from",
          "type": "address"
        },
        {
          "name": "to",
          "type": "address"
        },
        {
          "name": "assetId",
          "type": "uint256"
        },
        {
          "name": "userData",
          "type": "bytes"
        }
      ],
      "name": "safeTransferFrom",
      "outputs": [],
      "payable": false,
      "stateMutability": "nonpayable",
      "type": "function"
    },
    {
      "constant": true,
      "inputs": [
        {
          "name": "assetHolder",
          "type": "address"
        },
        {
          "name": "operator",
          "type": "address"
        }
      ],
      "name": "isApprovedForAll",
      "outputs": [
        {
          "name": "",
          "type": "bool"
        }
      ],
      "payable": false,
      "stateMutability": "view",
      "type": "function"
    },
    {
      "constant": true,
      "inputs": [
        {
          "name": "assetId",
          "type": "uint256"
        }
      ],
      "name": "getApprovedAddress",
      "outputs": [
        {
          "name": "",
          "type": "address"
        }
      ],
      "payable": false,
      "stateMutability": "view",
      "type": "function"
    },
    {
      "inputs": [],
      "payable": false,
      "stateMutability": "nonpayable",
      "type": "constructor"
    },
    {
      "anonymous": false,
      "inputs": [
        {
          "indexed": true,
          "name": "from",
          "type": "address"
        },
        {
          "indexed": true,
          "name": "to",
          "type": "address"
        },
        {
          "indexed": true,
          "name": "assetId",
          "type": "uint256"
        },
        {
          "indexed": false,
          "name": "operator",
          "type": "address"
        },
        {
          "indexed": false,
          "name": "userData",
          "type": "bytes"
        },
        {
          "indexed": false,
          "name": "operatorData",
          "type": "bytes"
        }
      ],
      "name": "Transfer",
      "type": "event"
    },
    {
      "anonymous": false,
      "inputs": [
        {
          "indexed": true,
          "name": "from",
          "type": "address"
        },
        {
          "indexed": true,
          "name": "to",
          "type": "address"
        },
        {
          "indexed": true,
          "name": "assetId",
          "type": "uint256"
        },
        {
          "indexed": false,
          "name": "operator",
          "type": "address"
        },
        {
          "indexed": false,
          "name": "userData",
          "type": "bytes"
        }
      ],
      "name": "Transfer",
      "type": "event"
    },
    {
      "anonymous": false,
      "inputs": [
        {
          "indexed": true,
          "name": "from",
          "type": "address"
        },
        {
          "indexed": true,
          "name": "to",
          "type": "address"
        },
        {
          "indexed": true,
          "name": "assetId",
          "type": "uint256"
        }
      ],
      "name": "Transfer",
      "type": "event"
    },
    {
      "anonymous": false,
      "inputs": [
        {
          "indexed": true,
          "name": "holder",
          "type": "address"
        },
        {
          "indexed": true,
          "name": "operator",
          "type": "address"
        },
        {
          "indexed": false,
          "name": "authorized",
          "type": "bool"
        }
      ],
      "name": "ApprovalForAll",
      "type": "event"
    },
    {
      "anonymous": false,
      "inputs": [
        {
          "indexed": true,
          "name": "owner",
          "type": "address"
        },
        {
          "indexed": true,
          "name": "operator",
          "type": "address"
        },
        {
          "indexed": true,
          "name": "assetId",
          "type": "uint256"
        }
      ],
      "name": "Approval",
      "type": "event"
    },
    {
      "constant": true,
      "inputs": [
        {
          "name": "assetId",
          "type": "uint256"
        }
      ],
      "name": "exists",
      "outputs": [
        {
          "name": "",
          "type": "bool"
        }
      ],
      "payable": false,
      "stateMutability": "view",
      "type": "function"
    },
    {
      "constant": true,
      "inputs": [],
      "name": "decimals",
      "outputs": [
        {
          "name": "",
          "type": "uint256"
        }
      ],
      "payable": false,
      "stateMutability": "pure",
      "type": "function"
    }
  ],
  "bytecode": "0x608060405234801561001057600080fd5b5061202e806100206000396000f30060806040526004361061011d576000357c0100000000000000000000000000000000000000000000000000000000900463ffffffff16806301ffc9a71461012257806306fdde0314610186578063081812fc14610216578063095ea7b31461028357806318160ddd146102d057806323b872dd146102fb5780632972b0f0146103685780632f745c59146103cd578063313ce5671461042e57806342842e0e146104595780634f558e79146104c65780635a3f26721461050b5780636352211e146105a35780636914db601461061057806370a08231146106b65780637284e4161461070d57806395d89b411461079d578063a22cb4651461082d578063b88d4fde1461087c578063e985e9c514610901578063eca4742a1461097c575b600080fd5b34801561012e57600080fd5b5061016c60048036038101908080357bffffffffffffffffffffffffffffffffffffffffffffffffffffffff191690602001909291905050506109e9565b604051808215151515815260200191505060405180910390f35b34801561019257600080fd5b5061019b610b80565b6040518080602001828103825283818151815260200191508051906020019080838360005b838110156101db5780820151818401526020810190506101c0565b50505050905090810190601f1680156102085780820380516001836020036101000a031916815260200191505b509250505060405180910390f35b34801561022257600080fd5b5061024160048036038101908080359060200190929190505050610c22565b604051808273ffffffffffffffffffffffffffffffffffffffff1673ffffffffffffffffffffffffffffffffffffffff16815260200191505060405180910390f35b34801561028f57600080fd5b506102ce600480360381019080803573ffffffffffffffffffffffffffffffffffffffff16906020019092919080359060200190929190505050610c34565b005b3480156102dc57600080fd5b506102e5610db7565b6040518082815260200191505060405180910390f35b34801561030757600080fd5b50610366600480360381019080803573ffffffffffffffffffffffffffffffffffffffff169060200190929190803573ffffffffffffffffffffffffffffffffffffffff16906020019092919080359060200190929190505050610dc6565b005b34801561037457600080fd5b506103b3600480360381019080803573ffffffffffffffffffffffffffffffffffffffff16906020019092919080359060200190929190505050610de9565b604051808215151515815260200191505060405180910390f35b3480156103d957600080fd5b50610418600480360381019080803573ffffffffffffffffffffffffffffffffffffffff16906020019092919080359060200190929190505050610dfd565b6040518082815260200191505060405180910390f35b34801561043a57600080fd5b50610443610ecc565b6040518082815260200191505060405180910390f35b34801561046557600080fd5b506104c4600480360381019080803573ffffffffffffffffffffffffffffffffffffffff169060200190929190803573ffffffffffffffffffffffffffffffffffffffff16906020019092919080359060200190929190505050610ed4565b005b3480156104d257600080fd5b506104f160048036038101908080359060200190929190505050610ef7565b604051808215151515815260200191505060405180910390f35b34801561051757600080fd5b5061054c600480360381019080803573ffffffffffffffffffffffffffffffffffffffff169060200190929190505050610f09565b6040518080602001828103825283818151815260200191508051906020019060200280838360005b8381101561058f578082015181840152602081019050610574565b505050509050019250505060405180910390f35b3480156105af57600080fd5b506105ce60048036038101908080359060200190929190505050610fa0565b604051808273ffffffffffffffffffffffffffffffffffffffff1673ffffffffffffffffffffffffffffffffffffffff16815260200191505060405180910390f35b34801561061c57600080fd5b5061063b60048036038101908080359060200190929190505050610fb2565b6040518080602001828103825283818151815260200191508051906020019080838360005b8381101561067b578082015181840152602081019050610660565b50505050905090810190601f1680156106a85780820380516001836020036101000a031916815260200191505b509250505060405180910390f35b3480156106c257600080fd5b506106f7600480360381019080803573ffffffffffffffffffffffffffffffffffffffff169060200190929190505050611067565b6040518082815260200191505060405180910390f35b34801561071957600080fd5b50610722611079565b6040518080602001828103825283818151815260200191508051906020019080838360005b83811015610762578082015181840152602081019050610747565b50505050905090810190601f16801561078f5780820380516001836020036101000a031916815260200191505b509250505060405180910390f35b3480156107a957600080fd5b506107b261111b565b6040518080602001828103825283818151815260200191508051906020019080838360005b838110156107f25780820151818401526020810190506107d7565b50505050905090810190601f16801561081f5780820380516001836020036101000a031916815260200191505b509250505060405180910390f35b34801561083957600080fd5b5061087a600480360381019080803573ffffffffffffffffffffffffffffffffffffffff1690602001909291908035151590602001909291905050506111bd565b005b34801561088857600080fd5b506108ff600480360381019080803573ffffffffffffffffffffffffffffffffffffffff169060200190929190803573ffffffffffffffffffffffffffffffffffffffff169060200190929190803590602001909291908035906020019082018035906020019190919293919293905050506111cb565b005b34801561090d57600080fd5b50610962600480360381019080803573ffffffffffffffffffffffffffffffffffffffff169060200190929190803573ffffffffffffffffffffffffffffffffffffffff169060200190929190505050611212565b604051808215151515815260200191505060405180910390f35b34801561098857600080fd5b506109a760048036038101908080359060200190929190505050611226565b604051808273ffffffffffffffffffffffffffffffffffffffff1673ffffffffffffffffffffffffffffffffffffffff16815260200191505060405180910390f35b600063ffffffff7c010000000000000000000000000000000000000000000000000000000002827bffffffffffffffffffffffffffffffffffffffffffffffffffffffff19161415610a3e5760009050610b7b565b6301ffc9a77c0100000000000000000000000000000000000000000000000000000000027bffffffffffffffffffffffffffffffffffffffffffffffffffffffff1916827bffffffffffffffffffffffffffffffffffffffffffffffffffffffff19161480610b0d5750637c0633c67c0100000000000000000000000000000000000000000000000000000000027bffffffffffffffffffffffffffffffffffffffffffffffffffffffff1916827bffffffffffffffffffffffffffffffffffffffffffffffffffffffff1916145b80610b7857506380ac58cd7c0100000000000000000000000000000000000000000000000000000000027bffffffffffffffffffffffffffffffffffffffffffffffffffffffff1916827bffffffffffffffffffffffffffffffffffffffffffffffffffffffff1916145b90505b919050565b606060008054600181600116156101000203166002900480601f016020809104026020016040519081016040528092919081815260200182805460018160011615610100020316600290048015610c185780601f10610bed57610100808354040283529160200191610c18565b820191906000526020600020905b815481529060010190602001808311610bfb57829003601f168201915b5050505050905090565b6000610c2d82611238565b9050919050565b6000610c3f82611275565b90508073ffffffffffffffffffffffffffffffffffffffff163373ffffffffffffffffffffffffffffffffffffffff161480610c815750610c8033826112b2565b5b1515610c8c57600080fd5b8073ffffffffffffffffffffffffffffffffffffffff168373ffffffffffffffffffffffffffffffffffffffff1614151515610cc757600080fd5b8273ffffffffffffffffffffffffffffffffffffffff16610ce783611238565b73ffffffffffffffffffffffffffffffffffffffff16141515610db257826009600084815260200190815260200160002060006101000a81548173ffffffffffffffffffffffffffffffffffffffff021916908373ffffffffffffffffffffffffffffffffffffffff160217905550818373ffffffffffffffffffffffffffffffffffffffff168273ffffffffffffffffffffffffffffffffffffffff167f8c5be1e5ebec7d5bd14f71427d1e84f3dd0314c0f7b2291e5b200ac8c7c3b92560405160405180910390a45b505050565b6000610dc1611346565b905090565b610de483838360206040519081016040528060008152506000611350565b505050565b6000610df5838361137b565b905092915050565b6000600460008473ffffffffffffffffffffffffffffffffffffffff1673ffffffffffffffffffffffffffffffffffffffff1681526020019081526020016000208054905082101515610e4f57600080fd5b6f8000000000000000000000000000000082101515610e6d57600080fd5b600460008473ffffffffffffffffffffffffffffffffffffffff1673ffffffffffffffffffffffffffffffffffffffff16815260200190815260200160002082815481101515610eb957fe5b9060005260206000200154905092915050565b600080905090565b610ef283838360206040519081016040528060008152506001611350565b505050565b6000610f028261143e565b9050919050565b6060600460008373ffffffffffffffffffffffffffffffffffffffff1673ffffffffffffffffffffffffffffffffffffffff168152602001908152602001600020805480602002602001604051908101604052809291908181526020018280548015610f9457602002820191906000526020600020905b815481526020019060010190808311610f80575b50505050509050919050565b6000610fab82611275565b9050919050565b6060600760008381526020019081526020016000208054600181600116156101000203166002900480601f01602080910402602001604051908101604052809291908181526020018280546001816001161561010002031660029004801561105b5780601f106110305761010080835404028352916020019161105b565b820191906000526020600020905b81548152906001019060200180831161103e57829003601f168201915b50505050509050919050565b600061107282611494565b9050919050565b606060028054600181600116156101000203166002900480601f0160208091040260200160405190810160405280929190818152602001828054600181600116156101000203166002900480156111115780601f106110e657610100808354040283529160200191611111565b820191906000526020600020905b8154815290600101906020018083116110f457829003601f168201915b5050505050905090565b606060018054600181600116156101000203166002900480601f0160208091040260200160405190810160405280929190818152602001828054600181600116156101000203166002900480156111b35780601f10611188576101008083540402835291602001916111b3565b820191906000526020600020905b81548152906001019060200180831161119657829003601f168201915b5050505050905090565b6111c782826114e0565b5050565b61120b85858585858080601f0160208091040260200160405190810160405280939291908181526020018383808284378201915050505050506001611350565b5050505050565b600061121e83836112b2565b905092915050565b600061123182611238565b9050919050565b60006009600083815260200190815260200160002060009054906101000a900473ffffffffffffffffffffffffffffffffffffffff169050919050565b60006005600083815260200190815260200160002060009054906101000a900473ffffffffffffffffffffffffffffffffffffffff169050919050565b6000600860008473ffffffffffffffffffffffffffffffffffffffff1673ffffffffffffffffffffffffffffffffffffffff16815260200190815260200160002060008373ffffffffffffffffffffffffffffffffffffffff1673ffffffffffffffffffffffffffffffffffffffff16815260200190815260200160002060009054906101000a900460ff16905092915050565b6000600354905090565b8261135b338261137b565b151561136657600080fd5b6113738686868686611598565b505050505050565b60008060008473ffffffffffffffffffffffffffffffffffffffff16141515156113a457600080fd5b6113ad83611275565b90508073ffffffffffffffffffffffffffffffffffffffff168473ffffffffffffffffffffffffffffffffffffffff1614156113ec5760019150611437565b6113f681856112b2565b8061143457508373ffffffffffffffffffffffffffffffffffffffff1661141c84611238565b73ffffffffffffffffffffffffffffffffffffffff16145b91505b5092915050565b6000806005600084815260200190815260200160002060009054906101000a900473ffffffffffffffffffffffffffffffffffffffff1673ffffffffffffffffffffffffffffffffffffffff1614159050919050565b6000600460008373ffffffffffffffffffffffffffffffffffffffff1673ffffffffffffffffffffffffffffffffffffffff168152602001908152602001600020805490509050919050565b801561150b576114f033836112b2565b1515156114fc57600080fd5b611506823361190b565b61152b565b61151533836112b2565b151561152057600080fd5b61152a82336119a4565b5b8173ffffffffffffffffffffffffffffffffffffffff163373ffffffffffffffffffffffffffffffffffffffff167f17307eab39ab6107e8899845ad3d59bd9653f200f220920489ca2b5937696c3183604051808215151515815260200191505060405180910390a35050565b60008460008173ffffffffffffffffffffffffffffffffffffffff16141515156115c157600080fd5b84868073ffffffffffffffffffffffffffffffffffffffff166115e383611275565b73ffffffffffffffffffffffffffffffffffffffff161415151561160657600080fd5b88878173ffffffffffffffffffffffffffffffffffffffff1661162882611275565b73ffffffffffffffffffffffffffffffffffffffff1614151561164a57600080fd5b600560008a815260200190815260200160002060009054906101000a900473ffffffffffffffffffffffffffffffffffffffff16955061168a868a611a3d565b611694868a611b6d565b61169e8a8a611e47565b888a73ffffffffffffffffffffffffffffffffffffffff168773ffffffffffffffffffffffffffffffffffffffff167fddf252ad1be2c89b69c2b068fc378daa952ba7f163c4a11628f55a4df523b3ef60405160405180910390a486801561170b575061170a8a611f48565b5b156118fe5763150b7a027c0100000000000000000000000000000000000000000000000000000000027bffffffffffffffffffffffffffffffffffffffffffffffffffffffff19168a73ffffffffffffffffffffffffffffffffffffffff1663150b7a0233898d8d6040518563ffffffff167c0100000000000000000000000000000000000000000000000000000000028152600401808573ffffffffffffffffffffffffffffffffffffffff1673ffffffffffffffffffffffffffffffffffffffff1681526020018473ffffffffffffffffffffffffffffffffffffffff1673ffffffffffffffffffffffffffffffffffffffff16815260200183815260200180602001828103825283818151815260200191508051906020019080838360005b8381101561184857808201518184015260208101905061182d565b50505050905090810190601f1680156118755780820380516001836020036101000a031916815260200191505b5095505050505050602060405180830381600087803b15801561189757600080fd5b505af11580156118ab573d6000803e3d6000fd5b505050506040513d60208110156118c157600080fd5b81019080805190602001909291905050507bffffffffffffffffffffffffffffffffffffffffffffffffffffffff19161415156118fd57600080fd5b5b5050505050505050505050565b6001600860008373ffffffffffffffffffffffffffffffffffffffff1673ffffffffffffffffffffffffffffffffffffffff16815260200190815260200160002060008473ffffffffffffffffffffffffffffffffffffffff1673ffffffffffffffffffffffffffffffffffffffff16815260200190815260200160002060006101000a81548160ff0219169083151502179055505050565b6000600860008373ffffffffffffffffffffffffffffffffffffffff1673ffffffffffffffffffffffffffffffffffffffff16815260200190815260200160002060008473ffffffffffffffffffffffffffffffffffffffff1673ffffffffffffffffffffffffffffffffffffffff16815260200190815260200160002060006101000a81548160ff0219169083151502179055505050565b8173ffffffffffffffffffffffffffffffffffffffff16611a5d82611275565b73ffffffffffffffffffffffffffffffffffffffff16148015611aca575060006009600083815260200190815260200160002060009054906101000a900473ffffffffffffffffffffffffffffffffffffffff1673ffffffffffffffffffffffffffffffffffffffff1614155b15611b695760006009600083815260200190815260200160002060006101000a81548173ffffffffffffffffffffffffffffffffffffffff021916908373ffffffffffffffffffffffffffffffffffffffff1602179055508060008373ffffffffffffffffffffffffffffffffffffffff167f8c5be1e5ebec7d5bd14f71427d1e84f3dd0314c0f7b2291e5b200ac8c7c3b92560405160405180910390a45b5050565b600080600060066000858152602001908152602001600020549250611ba46001611b9687611494565b611f5b90919063ffffffff16565b9150600460008673ffffffffffffffffffffffffffffffffffffffff1673ffffffffffffffffffffffffffffffffffffffff16815260200190815260200160002082815481101515611bf257fe5b9060005260206000200154905060006005600086815260200190815260200160002060006101000a81548173ffffffffffffffffffffffffffffffffffffffff021916908373ffffffffffffffffffffffffffffffffffffffff16021790555080600460008773ffffffffffffffffffffffffffffffffffffffff1673ffffffffffffffffffffffffffffffffffffffff16815260200190815260200160002084815481101515611c9f57fe5b90600052602060002001819055506000600460008773ffffffffffffffffffffffffffffffffffffffff1673ffffffffffffffffffffffffffffffffffffffff16815260200190815260200160002083815481101515611cfb57fe5b9060005260206000200181905550600460008673ffffffffffffffffffffffffffffffffffffffff1673ffffffffffffffffffffffffffffffffffffffff168152602001908152602001600020805480919060019003611d5b9190611f90565b506000600460008773ffffffffffffffffffffffffffffffffffffffff1673ffffffffffffffffffffffffffffffffffffffff168152602001908152602001600020805490501415611df357600460008673ffffffffffffffffffffffffffffffffffffffff1673ffffffffffffffffffffffffffffffffffffffff1681526020019081526020016000206000611df29190611fbc565b5b60006006600086815260200190815260200160002081905550826006600083815260200190815260200160002081905550611e3a6001600354611f5b90919063ffffffff16565b6003819055505050505050565b6000826005600084815260200190815260200160002060006101000a81548173ffffffffffffffffffffffffffffffffffffffff021916908373ffffffffffffffffffffffffffffffffffffffff160217905550611ea483611494565b9050600460008473ffffffffffffffffffffffffffffffffffffffff1673ffffffffffffffffffffffffffffffffffffffff168152602001908152602001600020829080600181540180825580915050906001820390600052602060002001600090919290919091505550806006600084815260200190815260200160002081905550611f3d6001600354611f7490919063ffffffff16565b600381905550505050565b600080823b905060008111915050919050565b6000828211151515611f6957fe5b818303905092915050565b60008183019050828110151515611f8757fe5b80905092915050565b815481835581811115611fb757818360005260206000209182019101611fb69190611fdd565b5b505050565b5080546000825590600052602060002090810190611fda9190611fdd565b50565b611fff91905b80821115611ffb576000816000905550600101611fe3565b5090565b905600a165627a7a723058208f8720735260a8e611cad8438a0a42c4c462c0b9e933223bdb964214239036390029",
  "source": "pragma solidity ^0.4.18;\n\nimport './ERC721Base.sol';\nimport './ERC721Enumerable.sol';\nimport './ERC721Metadata.sol';\n\ncontract FullAssetRegistry is ERC721Base, ERC721Enumerable, ERC721Metadata {\n  constructor() public {\n  }\n\n  /**\n   * @dev Method to check if an asset identified by the given id exists under this DAR.\n   * @return uint256 the assetId\n   */\n  function exists(uint256 assetId) external view returns (bool) {\n    return _exists(assetId);\n  }\n  function _exists(uint256 assetId) internal view returns (bool) {\n    return _holderOf[assetId] != 0;\n  }\n\n  function decimals() external pure returns (uint256) {\n    return 0;\n  }\n}\n",
  "sourcePath": "erc821\\contracts\\FullAssetRegistry.sol",
  "compiler": {
    "name": "solc",
    "version": "0.4.24+commit.e67f0147.Emscripten.clang"
  },
  "schemaVersion": "3.4.4",
  "updatedAt": "2022-02-03T17:24:10.754Z",
  "devdoc": {
    "methods": {
      "approve(address,uint256)": {
        "details": "Authorize a third party operator to manage one particular asset",
        "params": {
          "assetId": "asset to approve",
          "operator": "address to be approved"
        }
      },
      "balanceOf(address)": {
        "details": "Gets the balance of the specified address",
        "params": {
          "owner": "address to query the balance of"
        },
        "return": "uint256 representing the amount owned by the passed address"
      },
      "exists(uint256)": {
        "details": "Method to check if an asset identified by the given id exists under this DAR.",
        "return": "uint256 the assetId"
      },
      "getApproved(uint256)": {
        "details": "Query what address has been particularly authorized to move an asset",
        "params": {
          "assetId": "the asset to be queried for"
        },
        "return": "bool true if the asset has been approved by the holder"
      },
      "isApprovedForAll(address,address)": {
        "details": "Query whether an address has been authorized to move any assets on behalf of someone else",
        "params": {
          "assetHolder": "the address that provided the authorization",
          "operator": "the address that might be authorized"
        },
        "return": "bool true if the operator has been authorized to move any assets"
      },
      "isAuthorized(address,uint256)": {
        "details": "Query if an operator can move an asset.",
        "params": {
          "assetId": "the asset that has been `approved` for transfer",
          "operator": "the address that might be authorized"
        },
        "return": "bool true if the asset has been approved by the holder"
      },
      "ownerOf(uint256)": {
        "details": "Queries what address owns an asset. This method does not throw. In order to check if the asset exists, use the `exists` function or check if the return value of this call is `0`.",
        "return": "uint256 the assetId"
      },
      "safeTransferFrom(address,address,uint256)": {
        "details": "Alias of `safeTransferFrom(from, to, assetId, '')`",
        "params": {
          "assetId": "uint256 ID of the asset to be transferred",
          "from": "address that currently owns an asset",
          "to": "address to receive the ownership of the asset"
        }
      },
      "safeTransferFrom(address,address,uint256,bytes)": {
        "details": "Securely transfers the ownership of a given asset from one address to another address, calling the method `onNFTReceived` on the target address if there's code associated with it",
        "params": {
          "assetId": "uint256 ID of the asset to be transferred",
          "from": "address that currently owns an asset",
          "to": "address to receive the ownership of the asset",
          "userData": "bytes arbitrary user information to attach to this transfer"
        }
      },
      "setApprovalForAll(address,bool)": {
        "details": "Authorize a third party operator to manage (send) msg.sender's asset",
        "params": {
          "authorized": "bool set to true to authorize, false to withdraw authorization",
          "operator": "address to be approved"
        }
      },
      "supportsInterface(bytes4)": {
        "details": "Returns `true` if the contract implements `interfaceID` and `interfaceID` is not 0xffffffff, `false` otherwise",
        "params": {
          "_interfaceID": "The interface identifier, as specified in ERC-165"
        }
      },
      "tokenOfOwnerByIndex(address,uint256)": {
        "details": "Throws if `index` >= `balanceOf(owner)` or if `owner` is the zero address, representing invalid assets. Otherwise this must not throw.",
        "params": {
          "index": "A counter less than `balanceOf(owner)`",
          "owner": "An address where we are interested in assets owned by them"
        },
        "return": "The identifier for the `index`th asset assigned to `owner`,  (sort order not specified)"
      },
      "tokensOf(address)": {
        "details": "This is not intended to be used on-chain",
        "params": {
          "owner": "address of the owner to query"
        },
        "return": "a list of all assetIds of a user"
      },
      "totalSupply()": {
        "details": "Gets the total amount of assets stored by the contract",
        "return": "uint256 representing the total amount of assets"
      },
      "transferFrom(address,address,uint256)": {
        "details": "Transfers the ownership of a given asset from one address to another address Warning! This function does not attempt to verify that the target address can send tokens.",
        "params": {
          "assetId": "uint256 ID of the asset to be transferred",
          "from": "address sending the asset",
          "to": "address to receive the ownership of the asset"
        }
      }
    }
  },
  "userdoc": {
    "methods": {
      "tokenOfOwnerByIndex(address,uint256)": {
        "notice": "Enumerate tokens assigned to an owner"
      },
      "tokensOf(address)": {
        "notice": "Get all tokens of a given address"
      }
    }
  }
}