{
  "contractName": "LANDRegistry",
  "abi": [
    {
      "constant": true,
      "inputs": [
        {
          "name": "_interfaceID",
          "type": "bytes4"
        }
      ],
      "name": "supportsInterface",
      "outputs": [
        {
          "name": "",
          "type": "bool"
        }
      ],
      "payable": false,
      "stateMutability": "view",
      "type": "function"
    },
    {
      "constant": true,
      "inputs": [],
      "name": "proxyOwner",
      "outputs": [
        {
          "name": "",
          "type": "address"
        }
      ],
      "payable": false,
      "stateMutability": "view",
      "type": "function"
    },
    {
      "constant": true,
      "inputs": [],
      "name": "name",
      "outputs": [
        {
          "name": "",
          "type": "string"
        }
      ],
      "payable": false,
      "stateMutability": "view",
      "type": "function"
    },
    {
      "constant": true,
      "inputs": [
        {
          "name": "",
          "type": "address"
        },
        {
          "name": "",
          "type": "address"
        }
      ],
      "name": "updateManager",
      "outputs": [
        {
          "name": "",
          "type": "bool"
        }
      ],
      "payable": false,
      "stateMutability": "view",
      "type": "function"
    },
    {
      "constant": true,
      "inputs": [
        {
          "name": "assetId",
          "type": "uint256"
        }
      ],
      "name": "getApproved",
      "outputs": [
        {
          "name": "",
          "type": "address"
        }
      ],
      "payable": false,
      "stateMutability": "view",
      "type": "function"
    },
    {
      "constant": false,
      "inputs": [
        {
          "name": "operator",
          "type": "address"
        },
        {
          "name": "assetId",
          "type": "uint256"
        }
      ],
      "name": "approve",
      "outputs": [],
      "payable": false,
      "stateMutability": "nonpayable",
      "type": "function"
    },
    {
      "constant": true,
      "inputs": [],
      "name": "totalSupply",
      "outputs": [
        {
          "name": "",
          "type": "uint256"
        }
      ],
      "payable": false,
      "stateMutability": "view",
      "type": "function"
    },
    {
      "constant": true,
      "inputs": [
        {
          "name": "",
          "type": "address"
        }
      ],
      "name": "latestPing",
      "outputs": [
        {
          "name": "",
          "type": "uint256"
        }
      ],
      "payable": false,
      "stateMutability": "view",
      "type": "function"
    },
    {
      "constant": true,
      "inputs": [
        {
          "name": "operator",
          "type": "address"
        },
        {
          "name": "assetId",
          "type": "uint256"
        }
      ],
      "name": "isAuthorized",
      "outputs": [
        {
          "name": "",
          "type": "bool"
        }
      ],
      "payable": false,
      "stateMutability": "view",
      "type": "function"
    },
    {
      "constant": true,
      "inputs": [
        {
          "name": "",
          "type": "address"
        }
      ],
      "name": "authorizedDeploy",
      "outputs": [
        {
          "name": "",
          "type": "bool"
        }
      ],
      "payable": false,
      "stateMutability": "view",
      "type": "function"
    },
    {
      "constant": true,
      "inputs": [
        {
          "name": "owner",
          "type": "address"
        },
        {
          "name": "index",
          "type": "uint256"
        }
      ],
      "name": "tokenOfOwnerByIndex",
      "outputs": [
        {
          "name": "assetId",
          "type": "uint256"
        }
      ],
      "payable": false,
      "stateMutability": "view",
      "type": "function"
    },
    {
      "constant": true,
      "inputs": [],
      "name": "decimals",
      "outputs": [
        {
          "name": "",
          "type": "uint256"
        }
      ],
      "payable": false,
      "stateMutability": "pure",
      "type": "function"
    },
    {
      "constant": false,
      "inputs": [
        {
          "name": "from",
          "type": "address"
        },
        {
          "name": "to",
          "type": "address"
        },
        {
          "name": "assetId",
          "type": "uint256"
        }
      ],
      "name": "safeTransferFrom",
      "outputs": [],
      "payable": false,
      "stateMutability": "nonpayable",
      "type": "function"
    },
    {
      "constant": true,
      "inputs": [
        {
          "name": "owner",
          "type": "address"
        }
      ],
      "name": "tokensOf",
      "outputs": [
        {
          "name": "",
          "type": "uint256[]"
        }
      ],
      "payable": false,
      "stateMutability": "view",
      "type": "function"
    },
    {
      "constant": true,
      "inputs": [
        {
          "name": "",
          "type": "address"
        }
      ],
      "name": "registeredBalance",
      "outputs": [
        {
          "name": "",
          "type": "bool"
        }
      ],
      "payable": false,
      "stateMutability": "view",
      "type": "function"
    },
    {
      "constant": true,
      "inputs": [
        {
          "name": "assetId",
          "type": "uint256"
        }
      ],
      "name": "ownerOf",
      "outputs": [
        {
          "name": "",
          "type": "address"
        }
      ],
      "payable": false,
      "stateMutability": "view",
      "type": "function"
    },
    {
      "constant": true,
      "inputs": [],
      "name": "GET_METADATA",
      "outputs": [
        {
          "name": "",
          "type": "bytes4"
        }
      ],
      "payable": false,
      "stateMutability": "view",
      "type": "function"
    },
    {
      "constant": true,
      "inputs": [
        {
          "name": "owner",
          "type": "address"
        }
      ],
      "name": "balanceOf",
      "outputs": [
        {
          "name": "",
          "type": "uint256"
        }
      ],
      "payable": false,
      "stateMutability": "view",
      "type": "function"
    },
    {
      "constant": true,
      "inputs": [],
      "name": "currentContract",
      "outputs": [
        {
          "name": "",
          "type": "address"
        }
      ],
      "payable": false,
      "stateMutability": "view",
      "type": "function"
    },
    {
      "constant": true,
      "inputs": [],
      "name": "description",
      "outputs": [
        {
          "name": "",
          "type": "string"
        }
      ],
      "payable": false,
      "stateMutability": "view",
      "type": "function"
    },
    {
      "constant": true,
      "inputs": [],
      "name": "landBalance",
      "outputs": [
        {
          "name": "",
          "type": "address"
        }
      ],
      "payable": false,
      "stateMutability": "view",
      "type": "function"
    },
    {
      "constant": true,
      "inputs": [],
      "name": "owner",
      "outputs": [
        {
          "name": "",
          "type": "address"
        }
      ],
      "payable": false,
      "stateMutability": "view",
      "type": "function"
    },
    {
      "constant": true,
      "inputs": [],
      "name": "symbol",
      "outputs": [
        {
          "name": "",
          "type": "string"
        }
      ],
      "payable": false,
      "stateMutability": "view",
      "type": "function"
    },
    {
      "constant": true,
      "inputs": [
        {
          "name": "",
          "type": "uint256"
        }
      ],
      "name": "updateOperator",
      "outputs": [
        {
          "name": "",
          "type": "address"
        }
      ],
      "payable": false,
      "stateMutability": "view",
      "type": "function"
    },
    {
      "constant": false,
      "inputs": [
        {
          "name": "operator",
          "type": "address"
        },
        {
          "name": "authorized",
          "type": "bool"
        }
      ],
      "name": "setApprovalForAll",
      "outputs": [],
      "payable": false,
      "stateMutability": "nonpayable",
      "type": "function"
    },
    {
      "constant": false,
      "inputs": [
        {
          "name": "from",
          "type": "address"
        },
        {
          "name": "to",
          "type": "address"
        },
        {
          "name": "assetId",
          "type": "uint256"
        },
        {
          "name": "userData",
          "type": "bytes"
        }
      ],
      "name": "safeTransferFrom",
      "outputs": [],
      "payable": false,
      "stateMutability": "nonpayable",
      "type": "function"
    },
    {
      "constant": true,
      "inputs": [],
      "name": "estateRegistry",
      "outputs": [
        {
          "name": "",
          "type": "address"
        }
      ],
      "payable": false,
      "stateMutability": "view",
      "type": "function"
    },
    {
      "constant": true,
      "inputs": [
        {
          "name": "assetHolder",
          "type": "address"
        },
        {
          "name": "operator",
          "type": "address"
        }
      ],
      "name": "isApprovedForAll",
      "outputs": [
        {
          "name": "",
          "type": "bool"
        }
      ],
      "payable": false,
      "stateMutability": "view",
      "type": "function"
    },
    {
      "constant": true,
      "inputs": [
        {
          "name": "assetId",
          "type": "uint256"
        }
      ],
      "name": "getApprovedAddress",
      "outputs": [
        {
          "name": "",
          "type": "address"
        }
      ],
      "payable": false,
      "stateMutability": "view",
      "type": "function"
    },
    {
      "constant": false,
      "inputs": [
        {
          "name": "_newOwner",
          "type": "address"
        }
      ],
      "name": "transferOwnership",
      "outputs": [],
      "payable": false,
      "stateMutability": "nonpayable",
      "type": "function"
    },
    {
      "anonymous": false,
      "inputs": [
        {
          "indexed": true,
          "name": "registry",
          "type": "address"
        }
      ],
      "name": "EstateRegistrySet",
      "type": "event"
    },
    {
      "anonymous": false,
      "inputs": [
        {
          "indexed": true,
          "name": "assetId",
          "type": "uint256"
        },
        {
          "indexed": true,
          "name": "holder",
          "type": "address"
        },
        {
          "indexed": true,
          "name": "operator",
          "type": "address"
        },
        {
          "indexed": false,
          "name": "data",
          "type": "string"
        }
      ],
      "name": "Update",
      "type": "event"
    },
    {
      "anonymous": false,
      "inputs": [
        {
          "indexed": true,
          "name": "assetId",
          "type": "uint256"
        },
        {
          "indexed": true,
          "name": "operator",
          "type": "address"
        }
      ],
      "name": "UpdateOperator",
      "type": "event"
    },
    {
      "anonymous": false,
      "inputs": [
        {
          "indexed": true,
          "name": "_owner",
          "type": "address"
        },
        {
          "indexed": true,
          "name": "_operator",
          "type": "address"
        },
        {
          "indexed": true,
          "name": "_caller",
          "type": "address"
        },
        {
          "indexed": false,
          "name": "_approved",
          "type": "bool"
        }
      ],
      "name": "UpdateManager",
      "type": "event"
    },
    {
      "anonymous": false,
      "inputs": [
        {
          "indexed": true,
          "name": "_caller",
          "type": "address"
        },
        {
          "indexed": true,
          "name": "_deployer",
          "type": "address"
        }
      ],
      "name": "DeployAuthorized",
      "type": "event"
    },
    {
      "anonymous": false,
      "inputs": [
        {
          "indexed": true,
          "name": "_caller",
          "type": "address"
        },
        {
          "indexed": true,
          "name": "_deployer",
          "type": "address"
        }
      ],
      "name": "DeployForbidden",
      "type": "event"
    },
    {
      "anonymous": false,
      "inputs": [
        {
          "indexed": true,
          "name": "_previousLandBalance",
          "type": "address"
        },
        {
          "indexed": true,
          "name": "_newLandBalance",
          "type": "address"
        }
      ],
      "name": "SetLandBalanceToken",
      "type": "event"
    },
    {
      "anonymous": false,
      "inputs": [
        {
          "indexed": true,
          "name": "from",
          "type": "address"
        },
        {
          "indexed": true,
          "name": "to",
          "type": "address"
        },
        {
          "indexed": true,
          "name": "assetId",
          "type": "uint256"
        },
        {
          "indexed": false,
          "name": "operator",
          "type": "address"
        },
        {
          "indexed": false,
          "name": "userData",
          "type": "bytes"
        },
        {
          "indexed": false,
          "name": "operatorData",
          "type": "bytes"
        }
      ],
      "name": "Transfer",
      "type": "event"
    },
    {
      "anonymous": false,
      "inputs": [
        {
          "indexed": true,
          "name": "from",
          "type": "address"
        },
        {
          "indexed": true,
          "name": "to",
          "type": "address"
        },
        {
          "indexed": true,
          "name": "assetId",
          "type": "uint256"
        },
        {
          "indexed": false,
          "name": "operator",
          "type": "address"
        },
        {
          "indexed": false,
          "name": "userData",
          "type": "bytes"
        }
      ],
      "name": "Transfer",
      "type": "event"
    },
    {
      "anonymous": false,
      "inputs": [
        {
          "indexed": true,
          "name": "from",
          "type": "address"
        },
        {
          "indexed": true,
          "name": "to",
          "type": "address"
        },
        {
          "indexed": true,
          "name": "assetId",
          "type": "uint256"
        }
      ],
      "name": "Transfer",
      "type": "event"
    },
    {
      "anonymous": false,
      "inputs": [
        {
          "indexed": true,
          "name": "holder",
          "type": "address"
        },
        {
          "indexed": true,
          "name": "operator",
          "type": "address"
        },
        {
          "indexed": false,
          "name": "authorized",
          "type": "bool"
        }
      ],
      "name": "ApprovalForAll",
      "type": "event"
    },
    {
      "anonymous": false,
      "inputs": [
        {
          "indexed": true,
          "name": "owner",
          "type": "address"
        },
        {
          "indexed": true,
          "name": "operator",
          "type": "address"
        },
        {
          "indexed": true,
          "name": "assetId",
          "type": "uint256"
        }
      ],
      "name": "Approval",
      "type": "event"
    },
    {
      "anonymous": false,
      "inputs": [
        {
          "indexed": false,
          "name": "_prevOwner",
          "type": "address"
        },
        {
          "indexed": false,
          "name": "_newOwner",
          "type": "address"
        }
      ],
      "name": "OwnerUpdate",
      "type": "event"
    },
    {
      "constant": false,
      "inputs": [
        {
          "name": "",
          "type": "bytes"
        }
      ],
      "name": "initialize",
      "outputs": [],
      "payable": false,
      "stateMutability": "nonpayable",
      "type": "function"
    },
    {
      "constant": true,
      "inputs": [
        {
          "name": "operator",
          "type": "address"
        },
        {
          "name": "assetId",
          "type": "uint256"
        }
      ],
      "name": "isUpdateAuthorized",
      "outputs": [
        {
          "name": "",
          "type": "bool"
        }
      ],
      "payable": false,
      "stateMutability": "view",
      "type": "function"
    },
    {
      "constant": false,
      "inputs": [
        {
          "name": "beneficiary",
          "type": "address"
        }
      ],
      "name": "authorizeDeploy",
      "outputs": [],
      "payable": false,
      "stateMutability": "nonpayable",
      "type": "function"
    },
    {
      "constant": false,
      "inputs": [
        {
          "name": "beneficiary",
          "type": "address"
        }
      ],
      "name": "forbidDeploy",
      "outputs": [],
      "payable": false,
      "stateMutability": "nonpayable",
      "type": "function"
    },
    {
      "constant": false,
      "inputs": [
        {
          "name": "x",
          "type": "int256"
        },
        {
          "name": "y",
          "type": "int256"
        },
        {
          "name": "beneficiary",
          "type": "address"
        }
      ],
      "name": "assignNewParcel",
      "outputs": [],
      "payable": false,
      "stateMutability": "nonpayable",
      "type": "function"
    },
    {
      "constant": false,
      "inputs": [
        {
          "name": "x",
          "type": "int256[]"
        },
        {
          "name": "y",
          "type": "int256[]"
        },
        {
          "name": "beneficiary",
          "type": "address"
        }
      ],
      "name": "assignMultipleParcels",
      "outputs": [],
      "payable": false,
      "stateMutability": "nonpayable",
      "type": "function"
    },
    {
      "constant": false,
      "inputs": [],
      "name": "ping",
      "outputs": [],
      "payable": false,
      "stateMutability": "nonpayable",
      "type": "function"
    },
    {
      "constant": false,
      "inputs": [
        {
          "name": "user",
          "type": "address"
        }
      ],
      "name": "setLatestToNow",
      "outputs": [],
      "payable": false,
      "stateMutability": "nonpayable",
      "type": "function"
    },
    {
      "constant": true,
      "inputs": [
        {
          "name": "x",
          "type": "int256"
        },
        {
          "name": "y",
          "type": "int256"
        }
      ],
      "name": "encodeTokenId",
      "outputs": [
        {
          "name": "",
          "type": "uint256"
        }
      ],
      "payable": false,
      "stateMutability": "pure",
      "type": "function"
    },
    {
      "constant": true,
      "inputs": [
        {
          "name": "value",
          "type": "uint256"
        }
      ],
      "name": "decodeTokenId",
      "outputs": [
        {
          "name": "",
          "type": "int256"
        },
        {
          "name": "",
          "type": "int256"
        }
      ],
      "payable": false,
      "stateMutability": "pure",
      "type": "function"
    },
    {
      "constant": true,
      "inputs": [
        {
          "name": "assetId",
          "type": "uint256"
        }
      ],
      "name": "exists",
      "outputs": [
        {
          "name": "",
          "type": "bool"
        }
      ],
      "payable": false,
      "stateMutability": "view",
      "type": "function"
    },
    {
      "constant": true,
      "inputs": [
        {
          "name": "x",
          "type": "int256"
        },
        {
          "name": "y",
          "type": "int256"
        }
      ],
      "name": "exists",
      "outputs": [
        {
          "name": "",
          "type": "bool"
        }
      ],
      "payable": false,
      "stateMutability": "view",
      "type": "function"
    },
    {
      "constant": true,
      "inputs": [
        {
          "name": "x",
          "type": "int256"
        },
        {
          "name": "y",
          "type": "int256"
        }
      ],
      "name": "ownerOfLand",
      "outputs": [
        {
          "name": "",
          "type": "address"
        }
      ],
      "payable": false,
      "stateMutability": "view",
      "type": "function"
    },
    {
      "constant": true,
      "inputs": [
        {
          "name": "x",
          "type": "int256[]"
        },
        {
          "name": "y",
          "type": "int256[]"
        }
      ],
      "name": "ownerOfLandMany",
      "outputs": [
        {
          "name": "",
          "type": "address[]"
        }
      ],
      "payable": false,
      "stateMutability": "view",
      "type": "function"
    },
    {
      "constant": true,
      "inputs": [
        {
          "name": "owner",
          "type": "address"
        }
      ],
      "name": "landOf",
      "outputs": [
        {
          "name": "",
          "type": "int256[]"
        },
        {
          "name": "",
          "type": "int256[]"
        }
      ],
      "payable": false,
      "stateMutability": "view",
      "type": "function"
    },
    {
      "constant": true,
      "inputs": [
        {
          "name": "assetId",
          "type": "uint256"
        }
      ],
      "name": "tokenMetadata",
      "outputs": [
        {
          "name": "",
          "type": "string"
        }
      ],
      "payable": false,
      "stateMutability": "view",
      "type": "function"
    },
    {
      "constant": true,
      "inputs": [
        {
          "name": "x",
          "type": "int256"
        },
        {
          "name": "y",
          "type": "int256"
        }
      ],
      "name": "landData",
      "outputs": [
        {
          "name": "",
          "type": "string"
        }
      ],
      "payable": false,
      "stateMutability": "view",
      "type": "function"
    },
    {
      "constant": false,
      "inputs": [
        {
          "name": "from",
          "type": "address"
        },
        {
          "name": "to",
          "type": "address"
        },
        {
          "name": "assetId",
          "type": "uint256"
        }
      ],
      "name": "transferFrom",
      "outputs": [],
      "payable": false,
      "stateMutability": "nonpayable",
      "type": "function"
    },
    {
      "constant": false,
      "inputs": [
        {
          "name": "x",
          "type": "int256"
        },
        {
          "name": "y",
          "type": "int256"
        },
        {
          "name": "to",
          "type": "address"
        }
      ],
      "name": "transferLand",
      "outputs": [],
      "payable": false,
      "stateMutability": "nonpayable",
      "type": "function"
    },
    {
      "constant": false,
      "inputs": [
        {
          "name": "x",
          "type": "int256[]"
        },
        {
          "name": "y",
          "type": "int256[]"
        },
        {
          "name": "to",
          "type": "address"
        }
      ],
      "name": "transferManyLand",
      "outputs": [],
      "payable": false,
      "stateMutability": "nonpayable",
      "type": "function"
    },
    {
      "constant": false,
      "inputs": [
        {
          "name": "x",
          "type": "int256"
        },
        {
          "name": "y",
          "type": "int256"
        },
        {
          "name": "estateId",
          "type": "uint256"
        }
      ],
      "name": "transferLandToEstate",
      "outputs": [],
      "payable": false,
      "stateMutability": "nonpayable",
      "type": "function"
    },
    {
      "constant": false,
      "inputs": [
        {
          "name": "x",
          "type": "int256[]"
        },
        {
          "name": "y",
          "type": "int256[]"
        },
        {
          "name": "estateId",
          "type": "uint256"
        }
      ],
      "name": "transferManyLandToEstate",
      "outputs": [],
      "payable": false,
      "stateMutability": "nonpayable",
      "type": "function"
    },
    {
      "constant": false,
      "inputs": [
        {
          "name": "assetId",
          "type": "uint256"
        },
        {
          "name": "operator",
          "type": "address"
        }
      ],
      "name": "setUpdateOperator",
      "outputs": [],
      "payable": false,
      "stateMutability": "nonpayable",
      "type": "function"
    },
    {
      "constant": false,
      "inputs": [
        {
          "name": "_assetIds",
          "type": "uint256[]"
        },
        {
          "name": "_operator",
          "type": "address"
        }
      ],
      "name": "setManyUpdateOperator",
      "outputs": [],
      "payable": false,
      "stateMutability": "nonpayable",
      "type": "function"
    },
    {
      "constant": false,
      "inputs": [
        {
          "name": "_owner",
          "type": "address"
        },
        {
          "name": "_operator",
          "type": "address"
        },
        {
          "name": "_approved",
          "type": "bool"
        }
      ],
      "name": "setUpdateManager",
      "outputs": [],
      "payable": false,
      "stateMutability": "nonpayable",
      "type": "function"
    },
    {
      "constant": false,
      "inputs": [
        {
          "name": "registry",
          "type": "address"
        }
      ],
      "name": "setEstateRegistry",
      "outputs": [],
      "payable": false,
      "stateMutability": "nonpayable",
      "type": "function"
    },
    {
      "constant": false,
      "inputs": [
        {
          "name": "x",
          "type": "int256[]"
        },
        {
          "name": "y",
          "type": "int256[]"
        },
        {
          "name": "beneficiary",
          "type": "address"
        }
      ],
      "name": "createEstate",
      "outputs": [
        {
          "name": "",
          "type": "uint256"
        }
      ],
      "payable": false,
      "stateMutability": "nonpayable",
      "type": "function"
    },
    {
      "constant": false,
      "inputs": [
        {
          "name": "x",
          "type": "int256[]"
        },
        {
          "name": "y",
          "type": "int256[]"
        },
        {
          "name": "beneficiary",
          "type": "address"
        },
        {
          "name": "metadata",
          "type": "string"
        }
      ],
      "name": "createEstateWithMetadata",
      "outputs": [
        {
          "name": "",
          "type": "uint256"
        }
      ],
      "payable": false,
      "stateMutability": "nonpayable",
      "type": "function"
    },
    {
      "constant": false,
      "inputs": [
        {
          "name": "x",
          "type": "int256"
        },
        {
          "name": "y",
          "type": "int256"
        },
        {
          "name": "data",
          "type": "string"
        }
      ],
      "name": "updateLandData",
      "outputs": [],
      "payable": false,
      "stateMutability": "nonpayable",
      "type": "function"
    },
    {
      "constant": false,
      "inputs": [
        {
          "name": "x",
          "type": "int256[]"
        },
        {
          "name": "y",
          "type": "int256[]"
        },
        {
          "name": "data",
          "type": "string"
        }
      ],
      "name": "updateManyLandData",
      "outputs": [],
      "payable": false,
      "stateMutability": "nonpayable",
      "type": "function"
    },
    {
      "constant": false,
      "inputs": [
        {
          "name": "_newLandBalance",
          "type": "address"
        }
      ],
      "name": "setLandBalanceToken",
      "outputs": [],
      "payable": false,
      "stateMutability": "nonpayable",
      "type": "function"
    },
    {
      "constant": false,
      "inputs": [],
      "name": "registerBalance",
      "outputs": [],
      "payable": false,
      "stateMutability": "nonpayable",
      "type": "function"
    },
    {
      "constant": false,
      "inputs": [],
      "name": "unregisterBalance",
      "outputs": [],
      "payable": false,
      "stateMutability": "nonpayable",
      "type": "function"
    }
  ],
  "bytecode": "0x608060405233600260006101000a81548173ffffffffffffffffffffffffffffffffffffffff021916908373ffffffffffffffffffffffffffffffffffffffff160217905550617403806100546000396000f3006080604052600436106102eb576000357c0100000000000000000000000000000000000000000000000000000000900463ffffffff16806301ffc9a7146102f0578063025313a21461035457806306fdde03146103ab57806307ecec3e1461043b578063081812fc146104b6578063095ea7b3146105235780631080f25114610570578063133cbe3a146105e757806318160ddd1461062a5780631c07cac5146106555780631cc69ac11461066c5780631d4b11e4146106c35780631e3759011461076b5780631e4c7736146107c257806323b872dd1461082d5780632972b0f01461089a57806329ffab3b146108ff5780632f745c591461095a578063313ce567146109bb578063341f13f2146109e657806335e64aaa14610a2957806342842e0e14610a80578063439fab9114610aed5780634c4bf93614610b285780634dad900314610bd85780634f558e7914610c4b5780635a3f267214610c905780635c36b18614610d285780636087de1b14610d3f57806361a822f914610d9a5780636352211e14610ddd57806365181ad314610e4a57806365937ab914610eb35780636914db6014610f185780636fb7e58814610fbe57806370a0823114611009578063721d7d8e1461106057806372554ff5146110b75780637284e4161461113d5780637efd9112146111cd57806384b80004146112155780638668a4161461126c578063881eeaa5146112df578063885363eb1461137e5780638da5cb5b1461145e5780638de74aa1146114b557806395d89b41146114f85780639d40b85014611588578063a22cb465146115f5578063a8d8812714611644578063b0b02c6014611693578063b88d4fde146116e0578063c2cf1cdc14611765578063ca8a2c081461177c578063d4dd159414611803578063e387d31a14611852578063e985e9c5146118a9578063eca4742a14611924578063ef1db76214611991578063f2fde38b14611a00578063f5f83a6114611a43578063f9cbec4314611aa0578063fd7a1b0014611ae1575b600080fd5b3480156102fc57600080fd5b5061033a60048036038101908080357bffffffffffffffffffffffffffffffffffffffffffffffffffffffff19169060200190929190505050611b24565b604051808215151515815260200191505060405180910390f35b34801561036057600080fd5b50610369611cbb565b604051808273ffffffffffffffffffffffffffffffffffffffff1673ffffffffffffffffffffffffffffffffffffffff16815260200191505060405180910390f35b3480156103b757600080fd5b506103c0611ce1565b6040518080602001828103825283818151815260200191508051906020019080838360005b838110156104005780820151818401526020810190506103e5565b50505050905090810190601f16801561042d5780820380516001836020036101000a031916815260200191505b509250505060405180910390f35b34801561044757600080fd5b5061049c600480360381019080803573ffffffffffffffffffffffffffffffffffffffff169060200190929190803573ffffffffffffffffffffffffffffffffffffffff169060200190929190505050611d83565b604051808215151515815260200191505060405180910390f35b3480156104c257600080fd5b506104e160048036038101908080359060200190929190505050611db2565b604051808273ffffffffffffffffffffffffffffffffffffffff1673ffffffffffffffffffffffffffffffffffffffff16815260200191505060405180910390f35b34801561052f57600080fd5b5061056e600480360381019080803573ffffffffffffffffffffffffffffffffffffffff16906020019092919080359060200190929190505050611dc4565b005b34801561057c57600080fd5b506105a56004803603810190808035906020019092919080359060200190929190505050611f47565b604051808273ffffffffffffffffffffffffffffffffffffffff1673ffffffffffffffffffffffffffffffffffffffff16815260200191505060405180910390f35b3480156105f357600080fd5b50610628600480360381019080803573ffffffffffffffffffffffffffffffffffffffff169060200190929190505050611f5b565b005b34801561063657600080fd5b5061063f612078565b6040518082815260200191505060405180910390f35b34801561066157600080fd5b5061066a612087565b005b34801561067857600080fd5b506106c16004803603810190808035906020019092919080359060200190929190803573ffffffffffffffffffffffffffffffffffffffff16906020019092919050505061245f565b005b3480156106cf57600080fd5b506107146004803603810190808035906020019082018035906020019190919293919293908035906020019082018035906020019190919293919293905050506125c1565b6040518080602001828103825283818151815260200191508051906020019060200280838360005b8381101561075757808201518184015260208101905061073c565b505050509050019250505060405180910390f35b34801561077757600080fd5b506107ac600480360381019080803573ffffffffffffffffffffffffffffffffffffffff1690602001909291905050506127e4565b6040518082815260200191505060405180910390f35b3480156107ce57600080fd5b5061082b6004803603810190808035906020019082018035906020019190919293919293908035906020019082018035906020019190919293919293908035906020019082018035906020019190919293919293905050506127fc565b005b34801561083957600080fd5b50610898600480360381019080803573ffffffffffffffffffffffffffffffffffffffff169060200190929190803573ffffffffffffffffffffffffffffffffffffffff169060200190929190803590602001909291905050506129cc565b005b3480156108a657600080fd5b506108e5600480360381019080803573ffffffffffffffffffffffffffffffffffffffff16906020019092919080359060200190929190505050612adb565b604051808215151515815260200191505060405180910390f35b34801561090b57600080fd5b50610940600480360381019080803573ffffffffffffffffffffffffffffffffffffffff169060200190929190505050612aef565b604051808215151515815260200191505060405180910390f35b34801561096657600080fd5b506109a5600480360381019080803573ffffffffffffffffffffffffffffffffffffffff16906020019092919080359060200190929190505050612b0f565b6040518082815260200191505060405180910390f35b3480156109c757600080fd5b506109d0612bde565b6040518082815260200191505060405180910390f35b3480156109f257600080fd5b50610a27600480360381019080803573ffffffffffffffffffffffffffffffffffffffff169060200190929190505050612be6565b005b348015610a3557600080fd5b50610a7e6004803603810190808035906020019092919080359060200190929190803573ffffffffffffffffffffffffffffffffffffffff169060200190929190505050612ef3565b005b348015610a8c57600080fd5b50610aeb600480360381019080803573ffffffffffffffffffffffffffffffffffffffff169060200190929190803573ffffffffffffffffffffffffffffffffffffffff16906020019092919080359060200190929190505050612f2d565b005b348015610af957600080fd5b50610b26600480360381019080803590602001908201803590602001919091929391929390505050612f50565b005b348015610b3457600080fd5b50610b5d600480360381019080803590602001909291908035906020019092919050505061305f565b6040518080602001828103825283818151815260200191508051906020019080838360005b83811015610b9d578082015181840152602081019050610b82565b50505050905090810190601f168015610bca5780820380516001836020036101000a031916815260200191505b509250505060405180910390f35b348015610be457600080fd5b50610c49600480360381019080803590602001908201803590602001919091929391929390803590602001908201803590602001919091929391929390803573ffffffffffffffffffffffffffffffffffffffff16906020019092919050505061307b565b005b348015610c5757600080fd5b50610c7660048036038101908080359060200190929190505050613242565b604051808215151515815260200191505060405180910390f35b348015610c9c57600080fd5b50610cd1600480360381019080803573ffffffffffffffffffffffffffffffffffffffff169060200190929190505050613254565b6040518080602001828103825283818151815260200191508051906020019060200280838360005b83811015610d14578082015181840152602081019050610cf9565b505050509050019250505060405180910390f35b348015610d3457600080fd5b50610d3d6132eb565b005b348015610d4b57600080fd5b50610d80600480360381019080803573ffffffffffffffffffffffffffffffffffffffff169060200190929190505050613331565b604051808215151515815260200191505060405180910390f35b348015610da657600080fd5b50610ddb600480360381019080803573ffffffffffffffffffffffffffffffffffffffff169060200190929190505050613351565b005b348015610de957600080fd5b50610e08600480360381019080803590602001909291905050506135c7565b604051808273ffffffffffffffffffffffffffffffffffffffff1673ffffffffffffffffffffffffffffffffffffffff16815260200191505060405180910390f35b348015610e5657600080fd5b50610e5f6135d9565b60405180827bffffffffffffffffffffffffffffffffffffffffffffffffffffffff19167bffffffffffffffffffffffffffffffffffffffffffffffffffffffff1916815260200191505060405180910390f35b348015610ebf57600080fd5b50610efe600480360381019080803573ffffffffffffffffffffffffffffffffffffffff16906020019092919080359060200190929190505050613612565b604051808215151515815260200191505060405180910390f35b348015610f2457600080fd5b50610f4360048036038101908080359060200190929190505050613626565b6040518080602001828103825283818151815260200191508051906020019080838360005b83811015610f83578082015181840152602081019050610f68565b50505050905090810190601f168015610fb05780820380516001836020036101000a031916815260200191505b509250505060405180910390f35b348015610fca57600080fd5b50610ff36004803603810190808035906020019092919080359060200190929190505050613638565b6040518082815260200191505060405180910390f35b34801561101557600080fd5b5061104a600480360381019080803573ffffffffffffffffffffffffffffffffffffffff16906020019092919050505061364c565b6040518082815260200191505060405180910390f35b34801561106c57600080fd5b5061107561365e565b604051808273ffffffffffffffffffffffffffffffffffffffff1673ffffffffffffffffffffffffffffffffffffffff16815260200191505060405180910390f35b3480156110c357600080fd5b5061113b60048036038101908080359060200190820180359060200190808060200260200160405190810160405280939291908181526020018383602002808284378201915050505050509192919290803573ffffffffffffffffffffffffffffffffffffffff169060200190929190505050613683565b005b34801561114957600080fd5b506111526136c5565b6040518080602001828103825283818151815260200191508051906020019080838360005b83811015611192578082015181840152602081019050611177565b50505050905090810190601f1680156111bf5780820380516001836020036101000a031916815260200191505b509250505060405180910390f35b3480156111d957600080fd5b506111f860048036038101908080359060200190929190505050613767565b604051808381526020018281526020019250505060405180910390f35b34801561122157600080fd5b5061122a61377c565b604051808273ffffffffffffffffffffffffffffffffffffffff1673ffffffffffffffffffffffffffffffffffffffff16815260200191505060405180910390f35b34801561127857600080fd5b506112dd600480360381019080803590602001908201803590602001919091929391929390803590602001908201803590602001919091929391929390803573ffffffffffffffffffffffffffffffffffffffff1690602001909291905050506137a2565b005b3480156112eb57600080fd5b50611368600480360381019080803590602001908201803590602001919091929391929390803590602001908201803590602001919091929391929390803573ffffffffffffffffffffffffffffffffffffffff16906020019092919080359060200190820180359060200191909192939192939050505061394e565b6040518082815260200191505060405180910390f35b34801561138a57600080fd5b506113bf600480360381019080803573ffffffffffffffffffffffffffffffffffffffff1690602001909291905050506139f9565b604051808060200180602001838103835285818151815260200191508051906020019060200280838360005b838110156114065780820151818401526020810190506113eb565b50505050905001838103825284818151815260200191508051906020019060200280838360005b8381101561144857808201518184015260208101905061142d565b5050505090500194505050505060405180910390f35b34801561146a57600080fd5b50611473613b7b565b604051808273ffffffffffffffffffffffffffffffffffffffff1673ffffffffffffffffffffffffffffffffffffffff16815260200191505060405180910390f35b3480156114c157600080fd5b506114f6600480360381019080803573ffffffffffffffffffffffffffffffffffffffff169060200190929190505050613ba1565b005b34801561150457600080fd5b5061150d613d13565b6040518080602001828103825283818151815260200191508051906020019080838360005b8381101561154d578082015181840152602081019050611532565b50505050905090810190601f16801561157a5780820380516001836020036101000a031916815260200191505b509250505060405180910390f35b34801561159457600080fd5b506115b360048036038101908080359060200190929190505050613db5565b604051808273ffffffffffffffffffffffffffffffffffffffff1673ffffffffffffffffffffffffffffffffffffffff16815260200191505060405180910390f35b34801561160157600080fd5b50611642600480360381019080803573ffffffffffffffffffffffffffffffffffffffff169060200190929190803515159060200190929190505050613de8565b005b34801561165057600080fd5b506116796004803603810190808035906020019092919080359060200190929190505050613df6565b604051808215151515815260200191505060405180910390f35b34801561169f57600080fd5b506116de60048036038101908080359060200190929190803573ffffffffffffffffffffffffffffffffffffffff169060200190929190505050613e0a565b005b3480156116ec57600080fd5b50611763600480360381019080803573ffffffffffffffffffffffffffffffffffffffff169060200190929190803573ffffffffffffffffffffffffffffffffffffffff16906020019092919080359060200190929190803590602001908201803590602001919091929391929390505050613fc3565b005b34801561177157600080fd5b5061177a61400a565b005b34801561178857600080fd5b506117ed600480360381019080803590602001908201803590602001919091929391929390803590602001908201803590602001919091929391929390803573ffffffffffffffffffffffffffffffffffffffff169060200190929190505050614594565b6040518082815260200191505060405180910390f35b34801561180f57600080fd5b50611850600480360381019080803590602001909291908035906020019092919080359060200190820180359060200191909192939192939050505061461b565b005b34801561185e57600080fd5b5061186761465e565b604051808273ffffffffffffffffffffffffffffffffffffffff1673ffffffffffffffffffffffffffffffffffffffff16815260200191505060405180910390f35b3480156118b557600080fd5b5061190a600480360381019080803573ffffffffffffffffffffffffffffffffffffffff169060200190929190803573ffffffffffffffffffffffffffffffffffffffff169060200190929190505050614684565b604051808215151515815260200191505060405180910390f35b34801561193057600080fd5b5061194f60048036038101908080359060200190929190505050614698565b604051808273ffffffffffffffffffffffffffffffffffffffff1673ffffffffffffffffffffffffffffffffffffffff16815260200191505060405180910390f35b34801561199d57600080fd5b506119fe600480360381019080803573ffffffffffffffffffffffffffffffffffffffff169060200190929190803573ffffffffffffffffffffffffffffffffffffffff1690602001909291908035151590602001909291905050506146aa565b005b348015611a0c57600080fd5b50611a41600480360381019080803573ffffffffffffffffffffffffffffffffffffffff169060200190929190505050614941565b005b348015611a4f57600080fd5b50611a9e60048036038101908080359060200190820180359060200191909192939192939080359060200190820180359060200191909192939192939080359060200190929190505050614aa4565b005b348015611aac57600080fd5b50611adf600480360381019080803590602001909291908035906020019092919080359060200190929190505050614e19565b005b348015611aed57600080fd5b50611b22600480360381019080803573ffffffffffffffffffffffffffffffffffffffff169060200190929190505050615001565b005b600063ffffffff7c010000000000000000000000000000000000000000000000000000000002827bffffffffffffffffffffffffffffffffffffffffffffffffffffffff19161415611b795760009050611cb6565b6301ffc9a77c0100000000000000000000000000000000000000000000000000000000027bffffffffffffffffffffffffffffffffffffffffffffffffffffffff1916827bffffffffffffffffffffffffffffffffffffffffffffffffffffffff19161480611c485750637c0633c67c0100000000000000000000000000000000000000000000000000000000027bffffffffffffffffffffffffffffffffffffffffffffffffffffffff1916827bffffffffffffffffffffffffffffffffffffffffffffffffffffffff1916145b80611cb357506380ac58cd7c0100000000000000000000000000000000000000000000000000000000027bffffffffffffffffffffffffffffffffffffffffffffffffffffffff1916827bffffffffffffffffffffffffffffffffffffffffffffffffffffffff1916145b90505b919050565b600160009054906101000a900473ffffffffffffffffffffffffffffffffffffffff1681565b606060038054600181600116156101000203166002900480601f016020809104026020016040519081016040528092919081815260200182805460018160011615610100020316600290048015611d795780601f10611d4e57610100808354040283529160200191611d79565b820191906000526020600020905b815481529060010190602001808311611d5c57829003601f168201915b5050505050905090565b60126020528160005260406000206020528060005260406000206000915091509054906101000a900460ff1681565b6000611dbd82615307565b9050919050565b6000611dcf82615344565b90508073ffffffffffffffffffffffffffffffffffffffff163373ffffffffffffffffffffffffffffffffffffffff161480611e115750611e103382615381565b5b1515611e1c57600080fd5b8073ffffffffffffffffffffffffffffffffffffffff168373ffffffffffffffffffffffffffffffffffffffff1614151515611e5757600080fd5b8273ffffffffffffffffffffffffffffffffffffffff16611e7783615307565b73ffffffffffffffffffffffffffffffffffffffff16141515611f425782600c600084815260200190815260200160002060006101000a81548173ffffffffffffffffffffffffffffffffffffffff021916908373ffffffffffffffffffffffffffffffffffffffff160217905550818373ffffffffffffffffffffffffffffffffffffffff168273ffffffffffffffffffffffffffffffffffffffff167f8c5be1e5ebec7d5bd14f71427d1e84f3dd0314c0f7b2291e5b200ac8c7c3b92560405160405180910390a45b505050565b6000611f538383615415565b905092915050565b600160009054906101000a900473ffffffffffffffffffffffffffffffffffffffff1673ffffffffffffffffffffffffffffffffffffffff163373ffffffffffffffffffffffffffffffffffffffff161480611fbd5750611fbc3382615381565b5b1515612031576040517f08c379a00000000000000000000000000000000000000000000000000000000081526004018080602001828103825260118152602001807f556e617574686f72697a6564207573657200000000000000000000000000000081525060200191505060405180910390fd5b42600d60008373ffffffffffffffffffffffffffffffffffffffff1673ffffffffffffffffffffffffffffffffffffffff1681526020019081526020016000208190555050565b6000612082615431565b905090565b6000601460003373ffffffffffffffffffffffffffffffffffffffff1673ffffffffffffffffffffffffffffffffffffffff16815260200190815260200160002060009054906101000a900460ff161515612170576040517f08c379a000000000000000000000000000000000000000000000000000000000815260040180806020018281038252602b8152602001807f556e72656769737465722042616c616e63653a3a5468652075736572206e6f7481526020017f207265676973746572656400000000000000000000000000000000000000000081525060400191505060405180910390fd5b6000601460003373ffffffffffffffffffffffffffffffffffffffff1673ffffffffffffffffffffffffffffffffffffffff16815260200190815260200160002060006101000a81548160ff021916908315150217905550601360009054906101000a900473ffffffffffffffffffffffffffffffffffffffff1673ffffffffffffffffffffffffffffffffffffffff166370a08231336040518263ffffffff167c0100000000000000000000000000000000000000000000000000000000028152600401808273ffffffffffffffffffffffffffffffffffffffff1673ffffffffffffffffffffffffffffffffffffffff168152602001915050602060405180830381600087803b15801561228557600080fd5b505af1158015612299573d6000803e3d6000fd5b505050506040513d60208110156122af57600080fd5b81019080805190602001909291905050509050601360009054906101000a900473ffffffffffffffffffffffffffffffffffffffff1673ffffffffffffffffffffffffffffffffffffffff1663d3ce77fe33836040518363ffffffff167c0100000000000000000000000000000000000000000000000000000000028152600401808373ffffffffffffffffffffffffffffffffffffffff1673ffffffffffffffffffffffffffffffffffffffff16815260200182815260200192505050602060405180830381600087803b15801561238757600080fd5b505af115801561239b573d6000803e3d6000fd5b505050506040513d60208110156123b157600080fd5b8101908080519060200190929190505050151561245c576040517f08c379a000000000000000000000000000000000000000000000000000000000815260040180806020018281038252602c8152602001807f556e72656769737465722042616c616e63653a3a436f756c64206e6f7420646581526020017f7374726f7920746f6b656e73000000000000000000000000000000000000000081525060400191505060405180910390fd5b50565b600160009054906101000a900473ffffffffffffffffffffffffffffffffffffffff1673ffffffffffffffffffffffffffffffffffffffff163373ffffffffffffffffffffffffffffffffffffffff1614806125045750601160003373ffffffffffffffffffffffffffffffffffffffff1673ffffffffffffffffffffffffffffffffffffffff16815260200190815260200160002060009054906101000a900460ff165b151561259e576040517f08c379a000000000000000000000000000000000000000000000000000000000815260040180806020018281038252603a8152602001807f546869732066756e6374696f6e2063616e206f6e6c792062652063616c6c656481526020017f20627920616e20617574686f72697a6564206465706c6f79657200000000000081525060400191505060405180910390fd5b6125b16125ab848461543b565b82615553565b6125bc6000826155ff565b505050565b60608060008087879050111515612666576040517f08c379a00000000000000000000000000000000000000000000000000000000081526004018080602001828103825260298152602001807f596f752073686f756c6420737570706c79206174206c65617374206f6e65206381526020017f6f6f7264696e617465000000000000000000000000000000000000000000000081525060400191505060405180910390fd5b8484905087879050141515612709576040517f08c379a000000000000000000000000000000000000000000000000000000000815260040180806020018281038252602b8152602001807f54686520636f6f7264696e617465732073686f756c642068617665207468652081526020017f73616d65206c656e67746800000000000000000000000000000000000000000081525060400191505060405180910390fd5b8686905060405190808252806020026020018201604052801561273b5781602001602082028038833980820191505090505b509150600090505b868690508110156127d757612780878783818110151561275f57fe5b90506020020135868684818110151561277457fe5b90506020020135615415565b828281518110151561278e57fe5b9060200190602002019073ffffffffffffffffffffffffffffffffffffffff16908173ffffffffffffffffffffffffffffffffffffffff16815250508080600101915050612743565b8192505050949350505050565b600d6020528060005260406000206000915090505481565b6000808787905011151561289e576040517f08c379a00000000000000000000000000000000000000000000000000000000081526004018080602001828103825260298152602001807f596f752073686f756c6420737570706c79206174206c65617374206f6e65206381526020017f6f6f7264696e617465000000000000000000000000000000000000000000000081525060400191505060405180910390fd5b8484905087879050141515612941576040517f08c379a000000000000000000000000000000000000000000000000000000000815260040180806020018281038252602b8152602001807f54686520636f6f7264696e617465732073686f756c642068617665207468652081526020017f73616d65206c656e67746800000000000000000000000000000000000000000081525060400191505060405180910390fd5b600090505b868690508110156129c3576129b6878783818110151561296257fe5b90506020020135868684818110151561297757fe5b9050602002013585858080601f0160208091040260200160405190810160405280939291908181526020018383808284378201915050505050506158ad565b8080600101915050612946565b50505050505050565b601060009054906101000a900473ffffffffffffffffffffffffffffffffffffffff1673ffffffffffffffffffffffffffffffffffffffff168273ffffffffffffffffffffffffffffffffffffffff1614151515612ab8576040517f08c379a000000000000000000000000000000000000000000000000000000000815260040180806020018281038252602f8152602001807f457374617465526567697374727920756e73616665207472616e73666572732081526020017f617265206e6f7420616c6c6f776564000000000000000000000000000000000081525060400191505060405180910390fd5b612ad683838360206040519081016040528060008152506000615acc565b505050565b6000612ae78383615b3d565b905092915050565b60116020528060005260406000206000915054906101000a900460ff1681565b6000600760008473ffffffffffffffffffffffffffffffffffffffff1673ffffffffffffffffffffffffffffffffffffffff1681526020019081526020016000208054905082101515612b6157600080fd5b6f8000000000000000000000000000000082101515612b7f57600080fd5b600760008473ffffffffffffffffffffffffffffffffffffffff1673ffffffffffffffffffffffffffffffffffffffff16815260200190815260200160002082815481101515612bcb57fe5b9060005260206000200154905092915050565b600080905090565b600160009054906101000a900473ffffffffffffffffffffffffffffffffffffffff1673ffffffffffffffffffffffffffffffffffffffff163373ffffffffffffffffffffffffffffffffffffffff16141515612cd1576040517f08c379a00000000000000000000000000000000000000000000000000000000081526004018080602001828103825260338152602001807f546869732066756e6374696f6e2063616e206f6e6c792062652063616c6c656481526020017f206279207468652070726f7879206f776e65720000000000000000000000000081525060400191505060405180910390fd5b600073ffffffffffffffffffffffffffffffffffffffff168173ffffffffffffffffffffffffffffffffffffffff1614151515612d76576040517f08c379a000000000000000000000000000000000000000000000000000000000815260040180806020018281038252600f8152602001807f696e76616c69642061646472657373000000000000000000000000000000000081525060200191505060405180910390fd5b60001515601160008373ffffffffffffffffffffffffffffffffffffffff1673ffffffffffffffffffffffffffffffffffffffff16815260200190815260200160002060009054906101000a900460ff161515141515612e3e576040517f08c379a000000000000000000000000000000000000000000000000000000000815260040180806020018281038252601d8152602001807f6164647265737320697320616c726561647920617574686f72697a656400000081525060200191505060405180910390fd5b6001601160008373ffffffffffffffffffffffffffffffffffffffff1673ffffffffffffffffffffffffffffffffffffffff16815260200190815260200160002060006101000a81548160ff0219169083151502179055508073ffffffffffffffffffffffffffffffffffffffff163373ffffffffffffffffffffffffffffffffffffffff167f9e237638dcd1b2be1fc623ab6a47409b34dc8a62196448dd2d6b9045b2c3315760405160405180910390a350565b6000612eff848461543b565b9050612f27612f0d82615344565b838360206040519081016040528060008152506001615acc565b50505050565b612f4b83838360206040519081016040528060008152506001615acc565b505050565b6040805190810160405280601181526020017f446563656e7472616c616e64204c414e4400000000000000000000000000000081525060039080519060200190612f9b9291906172e5565b506040805190810160405280600481526020017f4c414e440000000000000000000000000000000000000000000000000000000081525060049080519060200190612fe79291906172e5565b50606060405190810160405280603381526020017f436f6e747261637420746861742073746f7265732074686520446563656e747281526020017f616c616e64204c414e44207265676973747279000000000000000000000000008152506005908051906020019061305a9291906172e5565b505050565b606061307361306e848461543b565b615c00565b905092915050565b60008060008787905011151561311f576040517f08c379a00000000000000000000000000000000000000000000000000000000081526004018080602001828103825260298152602001807f596f752073686f756c6420737570706c79206174206c65617374206f6e65206381526020017f6f6f7264696e617465000000000000000000000000000000000000000000000081525060400191505060405180910390fd5b84849050878790501415156131c2576040517f08c379a000000000000000000000000000000000000000000000000000000000815260040180806020018281038252602b8152602001807f54686520636f6f7264696e617465732073686f756c642068617665207468652081526020017f73616d65206c656e67746800000000000000000000000000000000000000000081525060400191505060405180910390fd5b600091505b868690508210156132395761320487878481811015156131e357fe5b9050602002013586868581811015156131f857fe5b9050602002013561543b565b905061322c61321282615344565b848360206040519081016040528060008152506001615acc565b81806001019250506131c7565b50505050505050565b600061324d82615f56565b9050919050565b6060600760008373ffffffffffffffffffffffffffffffffffffffff1673ffffffffffffffffffffffffffffffffffffffff1681526020019081526020016000208054806020026020016040519081016040528092919081815260200182805480156132df57602002820191906000526020600020905b8154815260200190600101908083116132cb575b50505050509050919050565b42600d60003373ffffffffffffffffffffffffffffffffffffffff1673ffffffffffffffffffffffffffffffffffffffff16815260200190815260200160002081905550565b60146020528060005260406000206000915054906101000a900460ff1681565b600160009054906101000a900473ffffffffffffffffffffffffffffffffffffffff1673ffffffffffffffffffffffffffffffffffffffff163373ffffffffffffffffffffffffffffffffffffffff1614151561343c576040517f08c379a00000000000000000000000000000000000000000000000000000000081526004018080602001828103825260338152602001807f546869732066756e6374696f6e2063616e206f6e6c792062652063616c6c656481526020017f206279207468652070726f7879206f776e65720000000000000000000000000081525060400191505060405180910390fd5b600073ffffffffffffffffffffffffffffffffffffffff168173ffffffffffffffffffffffffffffffffffffffff1614151515613507576040517f08c379a000000000000000000000000000000000000000000000000000000000815260040180806020018281038252602a8152602001807f4e6577206c616e6442616c616e63652073686f756c64206e6f74206265207a6581526020017f726f20616464726573730000000000000000000000000000000000000000000081525060400191505060405180910390fd5b8073ffffffffffffffffffffffffffffffffffffffff16601360009054906101000a900473ffffffffffffffffffffffffffffffffffffffff1673ffffffffffffffffffffffffffffffffffffffff167f72d675e4d2f5ce2deafcb203f4dacdeee8be536626817bc87833e716ef73942d60405160405180910390a380601360006101000a81548173ffffffffffffffffffffffffffffffffffffffff021916908373ffffffffffffffffffffffffffffffffffffffff16021790555050565b60006135d282615344565b9050919050565b60405180807f6765744d657461646174612875696e74323536290000000000000000000000008152506014019050604051809103902081565b600061361e8383615fac565b905092915050565b606061363182615c00565b9050919050565b6000613644838361543b565b905092915050565b6000613657826160ec565b9050919050565b6000809054906101000a900473ffffffffffffffffffffffffffffffffffffffff1681565b60008090505b82518110156136c0576136b383828151811015156136a357fe5b9060200190602002015183613e0a565b8080600101915050613689565b505050565b606060058054600181600116156101000203166002900480601f01602080910402602001604051908101604052809291908181526020018280546001816001161561010002031660029004801561375d5780601f106137325761010080835404028352916020019161375d565b820191906000526020600020905b81548152906001019060200180831161374057829003601f168201915b5050505050905090565b60008061377383616138565b91509150915091565b601360009054906101000a900473ffffffffffffffffffffffffffffffffffffffff1681565b6000600160009054906101000a900473ffffffffffffffffffffffffffffffffffffffff1673ffffffffffffffffffffffffffffffffffffffff163373ffffffffffffffffffffffffffffffffffffffff1614806138495750601160003373ffffffffffffffffffffffffffffffffffffffff1673ffffffffffffffffffffffffffffffffffffffff16815260200190815260200160002060009054906101000a900460ff165b15156138e3576040517f08c379a000000000000000000000000000000000000000000000000000000000815260040180806020018281038252603a8152602001807f546869732066756e6374696f6e2063616e206f6e6c792062652063616c6c656481526020017f20627920616e20617574686f72697a6564206465706c6f79657200000000000081525060400191505060405180910390fd5b600090505b858590508110156139465761392e613928878784818110151561390757fe5b90506020020135868685818110151561391c57fe5b9050602002013561543b565b83615553565b6139396000836155ff565b80806001019150506138e8565b505050505050565b60006139ec8888808060200260200160405190810160405280939291908181526020018383602002808284378201915050505050508787808060200260200160405190810160405280939291908181526020018383602002808284378201915050505050508686868080601f016020809104026020016040519081016040528093929190818152602001838380828437820191505050505050616255565b9050979650505050505050565b60608060006060806000806000600760008a73ffffffffffffffffffffffffffffffffffffffff1673ffffffffffffffffffffffffffffffffffffffff16815260200190815260200160002080549050955085604051908082528060200260200182016040528015613a7a5781602001602082028038833980820191505090505b50945085604051908082528060200260200182016040528015613aac5781602001602082028038833980820191505090505b509350600090505b85811015613b6a57613b1b600760008b73ffffffffffffffffffffffffffffffffffffffff1673ffffffffffffffffffffffffffffffffffffffff16815260200190815260200160002082815481101515613b0b57fe5b9060005260206000200154616138565b8093508194505050828582815181101515613b3257fe5b9060200190602002018181525050818482815181101515613b4f57fe5b90602001906020020181815250508080600101915050613ab4565b848497509750505050505050915091565b600260009054906101000a900473ffffffffffffffffffffffffffffffffffffffff1681565b600160009054906101000a900473ffffffffffffffffffffffffffffffffffffffff1673ffffffffffffffffffffffffffffffffffffffff163373ffffffffffffffffffffffffffffffffffffffff16141515613c8c576040517f08c379a00000000000000000000000000000000000000000000000000000000081526004018080602001828103825260338152602001807f546869732066756e6374696f6e2063616e206f6e6c792062652063616c6c656481526020017f206279207468652070726f7879206f776e65720000000000000000000000000081525060400191505060405180910390fd5b80601060006101000a81548173ffffffffffffffffffffffffffffffffffffffff021916908373ffffffffffffffffffffffffffffffffffffffff1602179055508073ffffffffffffffffffffffffffffffffffffffff167f5b3ad80e09ce4c88735037542891c02fdc63b85e96a579d9260a403153c2775560405160405180910390a250565b606060048054600181600116156101000203166002900480601f016020809104026020016040519081016040528092919081815260200182805460018160011615610100020316600290048015613dab5780601f10613d8057610100808354040283529160200191613dab565b820191906000526020600020905b815481529060010190602001808311613d8e57829003601f168201915b5050505050905090565b600f6020528060005260406000206000915054906101000a900473ffffffffffffffffffffffffffffffffffffffff1681565b613df28282616680565b5050565b6000613e028383616738565b905092915050565b816000613e1682615344565b9050613e223383615b3d565b80613eb35750601260008273ffffffffffffffffffffffffffffffffffffffff1673ffffffffffffffffffffffffffffffffffffffff16815260200190815260200160002060003373ffffffffffffffffffffffffffffffffffffffff1673ffffffffffffffffffffffffffffffffffffffff16815260200190815260200160002060009054906101000a900460ff165b1515613f27576040517f08c379a00000000000000000000000000000000000000000000000000000000081526004018080602001828103825260118152602001807f756e617574686f72697a6564207573657200000000000000000000000000000081525060200191505060405180910390fd5b82600f600086815260200190815260200160002060006101000a81548173ffffffffffffffffffffffffffffffffffffffff021916908373ffffffffffffffffffffffffffffffffffffffff1602179055508273ffffffffffffffffffffffffffffffffffffffff16847f9d9dd80a56a16f715df6eb40b771e24ff8cbea6eed9de28473ce0f28fe5602a960405160405180910390a350505050565b61400385858585858080601f0160208091040260200160405190810160405280939291908181526020018383808284378201915050505050506001615acc565b5050505050565b600080601460003373ffffffffffffffffffffffffffffffffffffffff1673ffffffffffffffffffffffffffffffffffffffff16815260200190815260200160002060009054906101000a900460ff161515156140f5576040517f08c379a00000000000000000000000000000000000000000000000000000000081526004018080602001828103825260308152602001807f52656769737465722042616c616e63653a3a546865207573657220697320616c81526020017f726561647920726567697374657265640000000000000000000000000000000081525060400191505060405180910390fd5b601360009054906101000a900473ffffffffffffffffffffffffffffffffffffffff1673ffffffffffffffffffffffffffffffffffffffff166370a08231336040518263ffffffff167c0100000000000000000000000000000000000000000000000000000000028152600401808273ffffffffffffffffffffffffffffffffffffffff1673ffffffffffffffffffffffffffffffffffffffff168152602001915050602060405180830381600087803b1580156141b257600080fd5b505af11580156141c6573d6000803e3d6000fd5b505050506040513d60208110156141dc57600080fd5b81019080805190602001909291905050509150600082111561439357601360009054906101000a900473ffffffffffffffffffffffffffffffffffffffff1673ffffffffffffffffffffffffffffffffffffffff1663d3ce77fe33846040518363ffffffff167c0100000000000000000000000000000000000000000000000000000000028152600401808373ffffffffffffffffffffffffffffffffffffffff1673ffffffffffffffffffffffffffffffffffffffff16815260200182815260200192505050602060405180830381600087803b1580156142bd57600080fd5b505af11580156142d1573d6000803e3d6000fd5b505050506040513d60208110156142e757600080fd5b81019080805190602001909291905050501515614392576040517f08c379a000000000000000000000000000000000000000000000000000000000815260040180806020018281038252602a8152602001807f52656769737465722042616c616e63653a3a436f756c64206e6f74206465737481526020017f726f7920746f6b656e730000000000000000000000000000000000000000000081525060400191505060405180910390fd5b5b6001601460003373ffffffffffffffffffffffffffffffffffffffff1673ffffffffffffffffffffffffffffffffffffffff16815260200190815260200160002060006101000a81548160ff0219169083151502179055506143f4336160ec565b9050601360009054906101000a900473ffffffffffffffffffffffffffffffffffffffff1673ffffffffffffffffffffffffffffffffffffffff1663827f32c033836040518363ffffffff167c0100000000000000000000000000000000000000000000000000000000028152600401808373ffffffffffffffffffffffffffffffffffffffff1673ffffffffffffffffffffffffffffffffffffffff16815260200182815260200192505050602060405180830381600087803b1580156144bb57600080fd5b505af11580156144cf573d6000803e3d6000fd5b505050506040513d60208110156144e557600080fd5b81019080805190602001909291905050501515614590576040517f08c379a000000000000000000000000000000000000000000000000000000000815260040180806020018281038252602b8152602001807f52656769737465722042616c616e63653a3a436f756c64206e6f742067656e6581526020017f7261746520746f6b656e7300000000000000000000000000000000000000000081525060400191505060405180910390fd5b5050565b6000614610868680806020026020016040519081016040528093929190818152602001838360200280828437820191505050505050858580806020026020016040519081016040528093929190818152602001838360200280828437820191505050505050846020604051908101604052806000815250616255565b905095945050505050565b614658848484848080601f0160208091040260200160405190810160405280939291908181526020018383808284378201915050505050506158ad565b50505050565b601060009054906101000a900473ffffffffffffffffffffffffffffffffffffffff1681565b60006146908383615381565b905092915050565b60006146a382615307565b9050919050565b3373ffffffffffffffffffffffffffffffffffffffff168273ffffffffffffffffffffffffffffffffffffffff1614151515614774576040517f08c379a000000000000000000000000000000000000000000000000000000000815260040180806020018281038252602b8152602001807f546865206f70657261746f722073686f756c6420626520646966666572656e7481526020017f2066726f6d206f776e657200000000000000000000000000000000000000000081525060400191505060405180910390fd5b3373ffffffffffffffffffffffffffffffffffffffff168373ffffffffffffffffffffffffffffffffffffffff1614806147b457506147b38333615381565b5b1515614828576040517f08c379a00000000000000000000000000000000000000000000000000000000081526004018080602001828103825260118152602001807f556e617574686f72697a6564207573657200000000000000000000000000000081525060200191505060405180910390fd5b80601260008573ffffffffffffffffffffffffffffffffffffffff1673ffffffffffffffffffffffffffffffffffffffff16815260200190815260200160002060008473ffffffffffffffffffffffffffffffffffffffff1673ffffffffffffffffffffffffffffffffffffffff16815260200190815260200160002060006101000a81548160ff0219169083151502179055503373ffffffffffffffffffffffffffffffffffffffff168273ffffffffffffffffffffffffffffffffffffffff168473ffffffffffffffffffffffffffffffffffffffff167fd79fbfe1644c022b9150727d871532bfcc3e27ffee86fc596a062770ac97b04284604051808215151515815260200191505060405180910390a4505050565b600260009054906101000a900473ffffffffffffffffffffffffffffffffffffffff1673ffffffffffffffffffffffffffffffffffffffff163373ffffffffffffffffffffffffffffffffffffffff1614151561499a57fe5b600260009054906101000a900473ffffffffffffffffffffffffffffffffffffffff1673ffffffffffffffffffffffffffffffffffffffff168173ffffffffffffffffffffffffffffffffffffffff1614151515614a60576040517f08c379a000000000000000000000000000000000000000000000000000000000815260040180806020018281038252601b8152602001807f43616e6e6f74207472616e7366657220746f20796f757273656c66000000000081525060200191505060405180910390fd5b80600260006101000a81548173ffffffffffffffffffffffffffffffffffffffff021916908373ffffffffffffffffffffffffffffffffffffffff16021790555050565b600080600087879050111515614b48576040517f08c379a00000000000000000000000000000000000000000000000000000000081526004018080602001828103825260298152602001807f596f752073686f756c6420737570706c79206174206c65617374206f6e65206381526020017f6f6f7264696e617465000000000000000000000000000000000000000000000081525060400191505060405180910390fd5b8484905087879050141515614beb576040517f08c379a000000000000000000000000000000000000000000000000000000000815260040180806020018281038252602b8152602001807f54686520636f6f7264696e617465732073686f756c642068617665207468652081526020017f73616d65206c656e67746800000000000000000000000000000000000000000081525060400191505060405180910390fd5b3373ffffffffffffffffffffffffffffffffffffffff16601060009054906101000a900473ffffffffffffffffffffffffffffffffffffffff1673ffffffffffffffffffffffffffffffffffffffff16636352211e856040518263ffffffff167c010000000000000000000000000000000000000000000000000000000002815260040180828152602001915050602060405180830381600087803b158015614c9357600080fd5b505af1158015614ca7573d6000803e3d6000fd5b505050506040513d6020811015614cbd57600080fd5b810190808051906020019092919050505073ffffffffffffffffffffffffffffffffffffffff16141515614d7f576040517f08c379a000000000000000000000000000000000000000000000000000000000815260040180806020018281038252602f8152602001807f596f75206d757374206f776e207468652045737461746520796f752077616e7481526020017f20746f207472616e7366657220746f000000000000000000000000000000000081525060400191505060405180910390fd5b600091505b86869050821015614e1057614dc18787848181101515614da057fe5b905060200201358686858181101515614db557fe5b9050602002013561543b565b9050614e03614dcf82615344565b601060009054906101000a900473ffffffffffffffffffffffffffffffffffffffff1683614dfc87616754565b6001615acc565b8180600101925050614d84565b50505050505050565b60003373ffffffffffffffffffffffffffffffffffffffff16601060009054906101000a900473ffffffffffffffffffffffffffffffffffffffff1673ffffffffffffffffffffffffffffffffffffffff16636352211e846040518263ffffffff167c010000000000000000000000000000000000000000000000000000000002815260040180828152602001915050602060405180830381600087803b158015614ec357600080fd5b505af1158015614ed7573d6000803e3d6000fd5b505050506040513d6020811015614eed57600080fd5b810190808051906020019092919050505073ffffffffffffffffffffffffffffffffffffffff16141515614faf576040517f08c379a000000000000000000000000000000000000000000000000000000000815260040180806020018281038252602f8152602001807f596f75206d757374206f776e207468652045737461746520796f752077616e7481526020017f20746f207472616e7366657220746f000000000000000000000000000000000081525060400191505060405180910390fd5b614fb9848461543b565b9050614ffb614fc782615344565b601060009054906101000a900473ffffffffffffffffffffffffffffffffffffffff1683614ff486616754565b6001615acc565b50505050565b600160009054906101000a900473ffffffffffffffffffffffffffffffffffffffff1673ffffffffffffffffffffffffffffffffffffffff163373ffffffffffffffffffffffffffffffffffffffff161415156150ec576040517f08c379a00000000000000000000000000000000000000000000000000000000081526004018080602001828103825260338152602001807f546869732066756e6374696f6e2063616e206f6e6c792062652063616c6c656481526020017f206279207468652070726f7879206f776e65720000000000000000000000000081525060400191505060405180910390fd5b600073ffffffffffffffffffffffffffffffffffffffff168173ffffffffffffffffffffffffffffffffffffffff1614151515615191576040517f08c379a000000000000000000000000000000000000000000000000000000000815260040180806020018281038252600f8152602001807f696e76616c69642061646472657373000000000000000000000000000000000081525060200191505060405180910390fd5b601160008273ffffffffffffffffffffffffffffffffffffffff1673ffffffffffffffffffffffffffffffffffffffff16815260200190815260200160002060009054906101000a900460ff161515615252576040517f08c379a000000000000000000000000000000000000000000000000000000000815260040180806020018281038252601c8152602001807f6164647265737320697320616c726561647920666f7262696464656e0000000081525060200191505060405180910390fd5b6000601160008373ffffffffffffffffffffffffffffffffffffffff1673ffffffffffffffffffffffffffffffffffffffff16815260200190815260200160002060006101000a81548160ff0219169083151502179055508073ffffffffffffffffffffffffffffffffffffffff163373ffffffffffffffffffffffffffffffffffffffff167f7883da318e7694f396f400092b07b701a4eccb02aee0d28266adc659cca044da60405160405180910390a350565b6000600c600083815260200190815260200160002060009054906101000a900473ffffffffffffffffffffffffffffffffffffffff169050919050565b60006008600083815260200190815260200160002060009054906101000a900473ffffffffffffffffffffffffffffffffffffffff169050919050565b6000600b60008473ffffffffffffffffffffffffffffffffffffffff1673ffffffffffffffffffffffffffffffffffffffff16815260200190815260200160002060008373ffffffffffffffffffffffffffffffffffffffff1673ffffffffffffffffffffffffffffffffffffffff16815260200190815260200160002060009054906101000a900460ff16905092915050565b6000615429615424848461543b565b615344565b905092915050565b6000600654905090565b6000827ffffffffffffffffffffffffffffffffffffffffffffffffffffffffffff0bdc012801561546e5750620f424083125b80156154995750817ffffffffffffffffffffffffffffffffffffffffffffffffffffffffffff0bdc0125b80156154a75750620f424082125b1515615541576040517f08c379a00000000000000000000000000000000000000000000000000000000081526004018080602001828103825260278152602001807f54686520636f6f7264696e617465732073686f756c6420626520696e7369646581526020017f20626f756e64730000000000000000000000000000000000000000000000000081525060400191505060405180910390fd5b61554b8383616798565b905092915050565b60006008600084815260200190815260200160002060009054906101000a900473ffffffffffffffffffffffffffffffffffffffff1673ffffffffffffffffffffffffffffffffffffffff161415156155ab57600080fd5b6155b581836167ec565b818173ffffffffffffffffffffffffffffffffffffffff1660007fddf252ad1be2c89b69c2b068fc378daa952ba7f163c4a11628f55a4df523b3ef60405160405180910390a45050565b601460008373ffffffffffffffffffffffffffffffffffffffff1673ffffffffffffffffffffffffffffffffffffffff16815260200190815260200160002060009054906101000a900460ff161561575457601360009054906101000a900473ffffffffffffffffffffffffffffffffffffffff1673ffffffffffffffffffffffffffffffffffffffff1663d3ce77fe8360016040518363ffffffff167c0100000000000000000000000000000000000000000000000000000000028152600401808373ffffffffffffffffffffffffffffffffffffffff1673ffffffffffffffffffffffffffffffffffffffff16815260200182815260200192505050602060405180830381600087803b15801561571757600080fd5b505af115801561572b573d6000803e3d6000fd5b505050506040513d602081101561574157600080fd5b8101908080519060200190929190505050505b601460008273ffffffffffffffffffffffffffffffffffffffff1673ffffffffffffffffffffffffffffffffffffffff16815260200190815260200160002060009054906101000a900460ff16156158a957601360009054906101000a900473ffffffffffffffffffffffffffffffffffffffff1673ffffffffffffffffffffffffffffffffffffffff1663827f32c08260016040518363ffffffff167c0100000000000000000000000000000000000000000000000000000000028152600401808373ffffffffffffffffffffffffffffffffffffffff1673ffffffffffffffffffffffffffffffffffffffff16815260200182815260200192505050602060405180830381600087803b15801561586c57600080fd5b505af1158015615880573d6000803e3d6000fd5b505050506040513d602081101561589657600080fd5b8101908080519060200190929190505050505b5050565b6000806158ba858561543b565b6158c381615344565b73ffffffffffffffffffffffffffffffffffffffff163373ffffffffffffffffffffffffffffffffffffffff16148061590257506159013382615b3d565b5b8061591357506159123382615fac565b5b15156159ad576040517f08c379a00000000000000000000000000000000000000000000000000000000081526004018080602001828103825260268152602001807f6d73672e73656e646572206973206e6f7420617574686f72697a656420746f2081526020017f757064617465000000000000000000000000000000000000000000000000000081525060400191505060405180910390fd5b6159b7868661543b565b92506008600084815260200190815260200160002060009054906101000a900473ffffffffffffffffffffffffffffffffffffffff1691506159f983856168ed565b3373ffffffffffffffffffffffffffffffffffffffff168273ffffffffffffffffffffffffffffffffffffffff16847f47c705b9219229ad762fca605f08fb024a3415d0ae78af5d319820c72e510414876040518080602001828103825283818151815260200191508051906020019080838360005b83811015615a8a578082015181840152602081019050615a6f565b50505050905090810190601f168015615ab75780820380516001836020036101000a031916815260200191505b509250505060405180910390a4505050505050565b6000600f600085815260200190815260200160002060006101000a81548173ffffffffffffffffffffffffffffffffffffffff021916908373ffffffffffffffffffffffffffffffffffffffff160217905550615b2985856155ff565b615b368585858585616919565b5050505050565b60008060008473ffffffffffffffffffffffffffffffffffffffff1614151515615b6657600080fd5b615b6f83615344565b90508073ffffffffffffffffffffffffffffffffffffffff168473ffffffffffffffffffffffffffffffffffffffff161415615bae5760019150615bf9565b615bb88185615381565b80615bf657508373ffffffffffffffffffffffffffffffffffffffff16615bde84615307565b73ffffffffffffffffffffffffffffffffffffffff16145b91505b5092915050565b60606000615c0d83615344565b9050615c1881616944565b8015615c725750601060009054906101000a900473ffffffffffffffffffffffffffffffffffffffff1673ffffffffffffffffffffffffffffffffffffffff168173ffffffffffffffffffffffffffffffffffffffff1614155b15615ea1578073ffffffffffffffffffffffffffffffffffffffff166301ffc9a760405180807f6765744d657461646174612875696e7432353629000000000000000000000000815250601401905060405180910390206040518263ffffffff167c010000000000000000000000000000000000000000000000000000000002815260040180827bffffffffffffffffffffffffffffffffffffffffffffffffffffffff19167bffffffffffffffffffffffffffffffffffffffffffffffffffffffff19168152602001915050602060405180830381600087803b158015615d5957600080fd5b505af1158015615d6d573d6000803e3d6000fd5b505050506040513d6020811015615d8357600080fd5b810190808051906020019092919050505015615ea0578073ffffffffffffffffffffffffffffffffffffffff1663a574cea4846040518263ffffffff167c010000000000000000000000000000000000000000000000000000000002815260040180828152602001915050600060405180830381600087803b158015615e0857600080fd5b505af1158015615e1c573d6000803e3d6000fd5b505050506040513d6000823e3d601f19601f820116820180604052506020811015615e4657600080fd5b810190808051640100000000811115615e5e57600080fd5b82810190506020810184811115615e7457600080fd5b8151856001820283011164010000000082111715615e9157600080fd5b50509291905050509150615f50565b5b600a60008481526020019081526020016000208054600181600116156101000203166002900480601f016020809104026020016040519081016040528092919081815260200182805460018160011615610100020316600290048015615f485780601f10615f1d57610100808354040283529160200191615f48565b820191906000526020600020905b815481529060010190602001808311615f2b57829003601f168201915b505050505091505b50919050565b6000806008600084815260200190815260200160002060009054906101000a900473ffffffffffffffffffffffffffffffffffffffff1673ffffffffffffffffffffffffffffffffffffffff1614159050919050565b600080615fb883615344565b90508373ffffffffffffffffffffffffffffffffffffffff168173ffffffffffffffffffffffffffffffffffffffff16148061605257508373ffffffffffffffffffffffffffffffffffffffff16600f600085815260200190815260200160002060009054906101000a900473ffffffffffffffffffffffffffffffffffffffff1673ffffffffffffffffffffffffffffffffffffffff16145b806160e35750601260008273ffffffffffffffffffffffffffffffffffffffff1673ffffffffffffffffffffffffffffffffffffffff16815260200190815260200160002060008573ffffffffffffffffffffffffffffffffffffffff1673ffffffffffffffffffffffffffffffffffffffff16815260200190815260200160002060009054906101000a900460ff165b91505092915050565b6000600760008373ffffffffffffffffffffffffffffffffffffffff1673ffffffffffffffffffffffffffffffffffffffff168152602001908152602001600020805490509050919050565b60008061614483616957565b8092508193505050817ffffffffffffffffffffffffffffffffffffffffffffffffffffffffffff0bdc012801561617d5750620f424082125b80156161a85750807ffffffffffffffffffffffffffffffffffffffffffffffffffffffffffff0bdc0125b80156161b65750620f424081125b1515616250576040517f08c379a00000000000000000000000000000000000000000000000000000000081526004018080602001828103825260278152602001807f54686520636f6f7264696e617465732073686f756c6420626520696e7369646581526020017f20626f756e64730000000000000000000000000000000000000000000000000081525060400191505060405180910390fd5b915091565b6000806060600080600089511115156162fc576040517f08c379a00000000000000000000000000000000000000000000000000000000081526004018080602001828103825260298152602001807f596f752073686f756c6420737570706c79206174206c65617374206f6e65206381526020017f6f6f7264696e617465000000000000000000000000000000000000000000000081525060400191505060405180910390fd5b8751895114151561639b576040517f08c379a000000000000000000000000000000000000000000000000000000000815260040180806020018281038252602b8152602001807f54686520636f6f7264696e617465732073686f756c642068617665207468652081526020017f73616d65206c656e67746800000000000000000000000000000000000000000081525060400191505060405180910390fd5b6000601060009054906101000a900473ffffffffffffffffffffffffffffffffffffffff1673ffffffffffffffffffffffffffffffffffffffff1614151515616472576040517f08c379a00000000000000000000000000000000000000000000000000000000081526004018080602001828103825260218152602001807f546865204573746174652072656769737472792073686f756c6420626520736581526020017f740000000000000000000000000000000000000000000000000000000000000081525060400191505060405180910390fd5b601060009054906101000a900473ffffffffffffffffffffffffffffffffffffffff1673ffffffffffffffffffffffffffffffffffffffff1663d0def52188886040518363ffffffff167c0100000000000000000000000000000000000000000000000000000000028152600401808373ffffffffffffffffffffffffffffffffffffffff1673ffffffffffffffffffffffffffffffffffffffff16815260200180602001828103825283818151815260200191508051906020019080838360005b8381101561654f578082015181840152602081019050616534565b50505050905090810190601f16801561657c5780820380516001836020036101000a031916815260200191505b509350505050602060405180830381600087803b15801561659c57600080fd5b505af11580156165b0573d6000803e3d6000fd5b505050506040513d60208110156165c657600080fd5b810190808051906020019092919050505093506165e284616754565b9250600091505b88518210156166715761662a898381518110151561660357fe5b90602001906020020151898481518110151561661b57fe5b9060200190602002015161543b565b905061666461663882615344565b601060009054906101000a900473ffffffffffffffffffffffffffffffffffffffff1683866001615acc565b81806001019250506165e9565b83945050505050949350505050565b80156166ab576166903383615381565b15151561669c57600080fd5b6166a682336169b1565b6166cb565b6166b53383615381565b15156166c057600080fd5b6166ca8233616a4a565b5b8173ffffffffffffffffffffffffffffffffffffffff163373ffffffffffffffffffffffffffffffffffffffff167f17307eab39ab6107e8899845ad3d59bd9653f200f220920489ca2b5937696c3183604051808215151515815260200191505060405180910390a35050565b600061674c616747848461543b565b615f56565b905092915050565b606060206040519080825280601f01601f19166020018201604052801561678a5781602001602082028038833980820191505090505b509050816020820152919050565b60006fffffffffffffffffffffffffffffffff82167fffffffffffffffffffffffffffffffff0000000000000000000000000000000070010000000000000000000000000000000085021617905092915050565b6000826008600084815260200190815260200160002060006101000a81548173ffffffffffffffffffffffffffffffffffffffff021916908373ffffffffffffffffffffffffffffffffffffffff160217905550616849836160ec565b9050600760008473ffffffffffffffffffffffffffffffffffffffff1673ffffffffffffffffffffffffffffffffffffffff1681526020019081526020016000208290806001815401808255809150509060018203906000526020600020016000909192909190915055508060096000848152602001908152602001600020819055506168e26001600654616ae390919063ffffffff16565b600681905550505050565b80600a600084815260200190815260200160002090805190602001906169149291906172e5565b505050565b826169243382615b3d565b151561692f57600080fd5b61693c8686868686616aff565b505050505050565b600080823b905060008111915050919050565b60008061698d60807fffffffffffffffffffffffffffffffff0000000000000000000000000000000085169060020a9004616e72565b91506169aa6fffffffffffffffffffffffffffffffff8416616e72565b9050915091565b6001600b60008373ffffffffffffffffffffffffffffffffffffffff1673ffffffffffffffffffffffffffffffffffffffff16815260200190815260200160002060008473ffffffffffffffffffffffffffffffffffffffff1673ffffffffffffffffffffffffffffffffffffffff16815260200190815260200160002060006101000a81548160ff0219169083151502179055505050565b6000600b60008373ffffffffffffffffffffffffffffffffffffffff1673ffffffffffffffffffffffffffffffffffffffff16815260200190815260200160002060008473ffffffffffffffffffffffffffffffffffffffff1673ffffffffffffffffffffffffffffffffffffffff16815260200190815260200160002060006101000a81548160ff0219169083151502179055505050565b60008183019050828110151515616af657fe5b80905092915050565b60008460008173ffffffffffffffffffffffffffffffffffffffff1614151515616b2857600080fd5b84868073ffffffffffffffffffffffffffffffffffffffff16616b4a83615344565b73ffffffffffffffffffffffffffffffffffffffff1614151515616b6d57600080fd5b88878173ffffffffffffffffffffffffffffffffffffffff16616b8f82615344565b73ffffffffffffffffffffffffffffffffffffffff16141515616bb157600080fd5b600860008a815260200190815260200160002060009054906101000a900473ffffffffffffffffffffffffffffffffffffffff169550616bf1868a616ec2565b616bfb868a616ff2565b616c058a8a6167ec565b888a73ffffffffffffffffffffffffffffffffffffffff168773ffffffffffffffffffffffffffffffffffffffff167fddf252ad1be2c89b69c2b068fc378daa952ba7f163c4a11628f55a4df523b3ef60405160405180910390a4868015616c725750616c718a616944565b5b15616e655763150b7a027c0100000000000000000000000000000000000000000000000000000000027bffffffffffffffffffffffffffffffffffffffffffffffffffffffff19168a73ffffffffffffffffffffffffffffffffffffffff1663150b7a0233898d8d6040518563ffffffff167c0100000000000000000000000000000000000000000000000000000000028152600401808573ffffffffffffffffffffffffffffffffffffffff1673ffffffffffffffffffffffffffffffffffffffff1681526020018473ffffffffffffffffffffffffffffffffffffffff1673ffffffffffffffffffffffffffffffffffffffff16815260200183815260200180602001828103825283818151815260200191508051906020019080838360005b83811015616daf578082015181840152602081019050616d94565b50505050905090810190601f168015616ddc5780820380516001836020036101000a031916815260200191505b5095505050505050602060405180830381600087803b158015616dfe57600080fd5b505af1158015616e12573d6000803e3d6000fd5b505050506040513d6020811015616e2857600080fd5b81019080805190602001909291905050507bffffffffffffffffffffffffffffffffffffffffffffffffffffffff1916141515616e6457600080fd5b5b5050505050505050505050565b6000806f800000000000000000000000000000008316141515616eb9577fffffffffffffffffffffffffffffffff0000000000000000000000000000000082179050616ebd565b8190505b919050565b8173ffffffffffffffffffffffffffffffffffffffff16616ee282615344565b73ffffffffffffffffffffffffffffffffffffffff16148015616f4f57506000600c600083815260200190815260200160002060009054906101000a900473ffffffffffffffffffffffffffffffffffffffff1673ffffffffffffffffffffffffffffffffffffffff1614155b15616fee576000600c600083815260200190815260200160002060006101000a81548173ffffffffffffffffffffffffffffffffffffffff021916908373ffffffffffffffffffffffffffffffffffffffff1602179055508060008373ffffffffffffffffffffffffffffffffffffffff167f8c5be1e5ebec7d5bd14f71427d1e84f3dd0314c0f7b2291e5b200ac8c7c3b92560405160405180910390a45b5050565b600080600060096000858152602001908152602001600020549250617029600161701b876160ec565b6172cc90919063ffffffff16565b9150600760008673ffffffffffffffffffffffffffffffffffffffff1673ffffffffffffffffffffffffffffffffffffffff1681526020019081526020016000208281548110151561707757fe5b9060005260206000200154905060006008600086815260200190815260200160002060006101000a81548173ffffffffffffffffffffffffffffffffffffffff021916908373ffffffffffffffffffffffffffffffffffffffff16021790555080600760008773ffffffffffffffffffffffffffffffffffffffff1673ffffffffffffffffffffffffffffffffffffffff1681526020019081526020016000208481548110151561712457fe5b90600052602060002001819055506000600760008773ffffffffffffffffffffffffffffffffffffffff1673ffffffffffffffffffffffffffffffffffffffff1681526020019081526020016000208381548110151561718057fe5b9060005260206000200181905550600760008673ffffffffffffffffffffffffffffffffffffffff1673ffffffffffffffffffffffffffffffffffffffff1681526020019081526020016000208054809190600190036171e09190617365565b506000600760008773ffffffffffffffffffffffffffffffffffffffff1673ffffffffffffffffffffffffffffffffffffffff16815260200190815260200160002080549050141561727857600760008673ffffffffffffffffffffffffffffffffffffffff1673ffffffffffffffffffffffffffffffffffffffff16815260200190815260200160002060006172779190617391565b5b600060096000868152602001908152602001600020819055508260096000838152602001908152602001600020819055506172bf60016006546172cc90919063ffffffff16565b6006819055505050505050565b60008282111515156172da57fe5b818303905092915050565b828054600181600116156101000203166002900490600052602060002090601f016020900481019282601f1061732657805160ff1916838001178555617354565b82800160010185558215617354579182015b82811115617353578251825591602001919060010190617338565b5b50905061736191906173b2565b5090565b81548183558181111561738c5781836000526020600020918201910161738b91906173b2565b5b505050565b50805460008255906000526020600020908101906173af91906173b2565b50565b6173d491905b808211156173d05760008160009055506001016173b8565b5090565b905600a165627a7a72305820829630034dceca5f562bec6291fcf804540264b753f175a472e54601a003e83b0029",
  "source": "pragma solidity ^0.4.23;\r\n\r\nimport \"../Storage.sol\";\r\n\r\nimport \"../upgradable/Ownable.sol\";\r\n\r\nimport \"../upgradable/IApplication.sol\";\r\n\r\nimport \"erc821/contracts/FullAssetRegistry.sol\";\r\n\r\nimport \"./ILANDRegistry.sol\";\r\n\r\nimport \"../metadata/IMetadataHolder.sol\";\r\n\r\nimport \"../estate/IEstateRegistry.sol\";\r\n\r\n\r\n/* solium-disable function-order */\r\ncontract LANDRegistry is Storage, Ownable, FullAssetRegistry, ILANDRegistry {\r\n  bytes4 constant public GET_METADATA = bytes4(keccak256(\"getMetadata(uint256)\"));\r\n\r\n  function initialize(bytes) external {\r\n    _name = \"Decentraland LAND\";\r\n    _symbol = \"LAND\";\r\n    _description = \"Contract that stores the Decentraland LAND registry\";\r\n  }\r\n\r\n  modifier onlyProxyOwner() {\r\n    require(msg.sender == proxyOwner, \"This function can only be called by the proxy owner\");\r\n    _;\r\n  }\r\n\r\n  modifier onlyDeployer() {\r\n    require(\r\n      msg.sender == proxyOwner || authorizedDeploy[msg.sender],\r\n      \"This function can only be called by an authorized deployer\"\r\n    );\r\n    _;\r\n  }\r\n\r\n  modifier onlyOwnerOf(uint256 assetId) {\r\n    require(\r\n      msg.sender == _ownerOf(assetId),\r\n      \"This function can only be called by the owner of the asset\"\r\n    );\r\n    _;\r\n  }\r\n\r\n  modifier onlyUpdateAuthorized(uint256 tokenId) {\r\n    require(\r\n      msg.sender == _ownerOf(tokenId) ||\r\n      _isAuthorized(msg.sender, tokenId) ||\r\n      _isUpdateAuthorized(msg.sender, tokenId),\r\n      \"msg.sender is not authorized to update\"\r\n    );\r\n    _;\r\n  }\r\n\r\n  modifier canSetUpdateOperator(uint256 tokenId) {\r\n    address owner = _ownerOf(tokenId);\r\n    require(\r\n      _isAuthorized(msg.sender, tokenId) || updateManager[owner][msg.sender],\r\n      \"unauthorized user\"\r\n    );\r\n    _;\r\n  }\r\n\r\n  //\r\n  // Authorization\r\n  //\r\n\r\n  function isUpdateAuthorized(address operator, uint256 assetId) external view returns (bool) {\r\n    return _isUpdateAuthorized(operator, assetId);\r\n  }\r\n\r\n  function _isUpdateAuthorized(address operator, uint256 assetId) internal view returns (bool) {\r\n    address owner = _ownerOf(assetId);\r\n\r\n    return owner == operator  ||\r\n      updateOperator[assetId] == operator ||\r\n      updateManager[owner][operator];\r\n  }\r\n\r\n  function authorizeDeploy(address beneficiary) external onlyProxyOwner {\r\n    require(beneficiary != address(0), \"invalid address\");\r\n    require(authorizedDeploy[beneficiary] == false, \"address is already authorized\");\r\n\r\n    authorizedDeploy[beneficiary] = true;\r\n    emit DeployAuthorized(msg.sender, beneficiary);\r\n  }\r\n\r\n  function forbidDeploy(address beneficiary) external onlyProxyOwner {\r\n    require(beneficiary != address(0), \"invalid address\");\r\n    require(authorizedDeploy[beneficiary], \"address is already forbidden\");\r\n\r\n    authorizedDeploy[beneficiary] = false;\r\n    emit DeployForbidden(msg.sender, beneficiary);\r\n  }\r\n\r\n  //\r\n  // LAND Create\r\n  //\r\n\r\n  function assignNewParcel(int x, int y, address beneficiary) external onlyDeployer {\r\n    _generate(_encodeTokenId(x, y), beneficiary);\r\n    _updateLandBalance(address(0), beneficiary);\r\n  }\r\n\r\n  function assignMultipleParcels(int[] x, int[] y, address beneficiary) external onlyDeployer {\r\n    for (uint i = 0; i < x.length; i++) {\r\n      _generate(_encodeTokenId(x[i], y[i]), beneficiary);\r\n      _updateLandBalance(address(0), beneficiary);\r\n    }\r\n  }\r\n\r\n  //\r\n  // Inactive keys after 1 year lose ownership\r\n  //\r\n\r\n  function ping() external {\r\n    // solium-disable-next-line security/no-block-members\r\n    latestPing[msg.sender] = block.timestamp;\r\n  }\r\n\r\n  function setLatestToNow(address user) external {\r\n    require(msg.sender == proxyOwner || _isApprovedForAll(msg.sender, user), \"Unauthorized user\");\r\n    // solium-disable-next-line security/no-block-members\r\n    latestPing[user] = block.timestamp;\r\n  }\r\n\r\n  //\r\n  // LAND Getters\r\n  //\r\n\r\n  function encodeTokenId(int x, int y) external pure returns (uint) {\r\n    return _encodeTokenId(x, y);\r\n  }\r\n\r\n  function _encodeTokenId(int x, int y) internal pure returns (uint result) {\r\n    require(\r\n      -1000000 < x && x < 1000000 && -1000000 < y && y < 1000000,\r\n      \"The coordinates should be inside bounds\"\r\n    );\r\n    return _unsafeEncodeTokenId(x, y);\r\n  }\r\n\r\n  function _unsafeEncodeTokenId(int x, int y) internal pure returns (uint) {\r\n    return ((uint(x) * factor) & clearLow) | (uint(y) & clearHigh);\r\n  }\r\n\r\n  function decodeTokenId(uint value) external pure returns (int, int) {\r\n    return _decodeTokenId(value);\r\n  }\r\n\r\n  function _unsafeDecodeTokenId(uint value) internal pure returns (int x, int y) {\r\n    x = expandNegative128BitCast((value & clearLow) >> 128);\r\n    y = expandNegative128BitCast(value & clearHigh);\r\n  }\r\n\r\n  function _decodeTokenId(uint value) internal pure returns (int x, int y) {\r\n    (x, y) = _unsafeDecodeTokenId(value);\r\n    require(\r\n      -1000000 < x && x < 1000000 && -1000000 < y && y < 1000000,\r\n      \"The coordinates should be inside bounds\"\r\n    );\r\n  }\r\n\r\n  function expandNegative128BitCast(uint value) internal pure returns (int) {\r\n    if (value & (1<<127) != 0) {\r\n      return int(value | clearLow);\r\n    }\r\n    return int(value);\r\n  }\r\n\r\n  function exists(int x, int y) external view returns (bool) {\r\n    return _exists(x, y);\r\n  }\r\n\r\n  function _exists(int x, int y) internal view returns (bool) {\r\n    return _exists(_encodeTokenId(x, y));\r\n  }\r\n\r\n  function ownerOfLand(int x, int y) external view returns (address) {\r\n    return _ownerOfLand(x, y);\r\n  }\r\n\r\n  function _ownerOfLand(int x, int y) internal view returns (address) {\r\n    return _ownerOf(_encodeTokenId(x, y));\r\n  }\r\n\r\n  function ownerOfLandMany(int[] x, int[] y) external view returns (address[]) {\r\n    require(x.length > 0, \"You should supply at least one coordinate\");\r\n    require(x.length == y.length, \"The coordinates should have the same length\");\r\n\r\n    address[] memory addrs = new address[](x.length);\r\n    for (uint i = 0; i < x.length; i++) {\r\n      addrs[i] = _ownerOfLand(x[i], y[i]);\r\n    }\r\n\r\n    return addrs;\r\n  }\r\n\r\n  function landOf(address owner) external view returns (int[], int[]) {\r\n    uint256 len = _assetsOf[owner].length;\r\n    int[] memory x = new int[](len);\r\n    int[] memory y = new int[](len);\r\n\r\n    int assetX;\r\n    int assetY;\r\n    for (uint i = 0; i < len; i++) {\r\n      (assetX, assetY) = _decodeTokenId(_assetsOf[owner][i]);\r\n      x[i] = assetX;\r\n      y[i] = assetY;\r\n    }\r\n\r\n    return (x, y);\r\n  }\r\n\r\n  function tokenMetadata(uint256 assetId) external view returns (string) {\r\n    return _tokenMetadata(assetId);\r\n  }\r\n\r\n  function _tokenMetadata(uint256 assetId) internal view returns (string) {\r\n    address _owner = _ownerOf(assetId);\r\n    if (_isContract(_owner) && _owner != address(estateRegistry)) {\r\n      if ((ERC165(_owner)).supportsInterface(GET_METADATA)) {\r\n        return IMetadataHolder(_owner).getMetadata(assetId);\r\n      }\r\n    }\r\n    return _assetData[assetId];\r\n  }\r\n\r\n  function landData(int x, int y) external view returns (string) {\r\n    return _tokenMetadata(_encodeTokenId(x, y));\r\n  }\r\n\r\n  //\r\n  // LAND Transfer\r\n  //\r\n\r\n  function transferFrom(address from, address to, uint256 assetId) external {\r\n    require(to != address(estateRegistry), \"EstateRegistry unsafe transfers are not allowed\");\r\n    return _doTransferFrom(\r\n      from,\r\n      to,\r\n      assetId,\r\n      \"\",\r\n      false\r\n    );\r\n  }\r\n\r\n  function transferLand(int x, int y, address to) external {\r\n    uint256 tokenId = _encodeTokenId(x, y);\r\n    _doTransferFrom(\r\n      _ownerOf(tokenId),\r\n      to,\r\n      tokenId,\r\n      \"\",\r\n      true\r\n    );\r\n  }\r\n\r\n  function transferManyLand(int[] x, int[] y, address to) external {\r\n    require(x.length > 0, \"You should supply at least one coordinate\");\r\n    require(x.length == y.length, \"The coordinates should have the same length\");\r\n\r\n    for (uint i = 0; i < x.length; i++) {\r\n      uint256 tokenId = _encodeTokenId(x[i], y[i]);\r\n      _doTransferFrom(\r\n        _ownerOf(tokenId),\r\n        to,\r\n        tokenId,\r\n        \"\",\r\n        true\r\n      );\r\n    }\r\n  }\r\n\r\n  function transferLandToEstate(int x, int y, uint256 estateId) external {\r\n    require(\r\n      estateRegistry.ownerOf(estateId) == msg.sender,\r\n      \"You must own the Estate you want to transfer to\"\r\n    );\r\n\r\n    uint256 tokenId = _encodeTokenId(x, y);\r\n    _doTransferFrom(\r\n      _ownerOf(tokenId),\r\n      address(estateRegistry),\r\n      tokenId,\r\n      toBytes(estateId),\r\n      true\r\n    );\r\n  }\r\n\r\n  function transferManyLandToEstate(int[] x, int[] y, uint256 estateId) external {\r\n    require(x.length > 0, \"You should supply at least one coordinate\");\r\n    require(x.length == y.length, \"The coordinates should have the same length\");\r\n    require(\r\n      estateRegistry.ownerOf(estateId) == msg.sender,\r\n      \"You must own the Estate you want to transfer to\"\r\n    );\r\n\r\n    for (uint i = 0; i < x.length; i++) {\r\n      uint256 tokenId = _encodeTokenId(x[i], y[i]);\r\n      _doTransferFrom(\r\n        _ownerOf(tokenId),\r\n        address(estateRegistry),\r\n        tokenId,\r\n        toBytes(estateId),\r\n        true\r\n      );\r\n    }\r\n  }\r\n\r\n  /**\r\n   * @notice Set LAND updateOperator\r\n   * @param assetId - LAND id\r\n   * @param operator - address of the account to be set as the updateOperator\r\n   */\r\n  function setUpdateOperator(\r\n    uint256 assetId,\r\n    address operator\r\n  )\r\n    public\r\n    canSetUpdateOperator(assetId)\r\n  {\r\n    updateOperator[assetId] = operator;\r\n    emit UpdateOperator(assetId, operator);\r\n  }\r\n\r\n  /**\r\n   * @notice Set many LAND updateOperator\r\n   * @param _assetIds - LAND ids\r\n   * @param _operator - address of the account to be set as the updateOperator\r\n   */\r\n  function setManyUpdateOperator(\r\n    uint256[] _assetIds,\r\n    address _operator\r\n  )\r\n    public\r\n  {\r\n    for (uint i = 0; i < _assetIds.length; i++) {\r\n      setUpdateOperator(_assetIds[i], _operator);\r\n    }\r\n  }\r\n\r\n  /**\r\n  * @dev Set an updateManager for an account\r\n  * @param _owner - address of the account to set the updateManager\r\n  * @param _operator - address of the account to be set as the updateManager\r\n  * @param _approved - bool whether the address will be approved or not\r\n  */\r\n  function setUpdateManager(address _owner, address _operator, bool _approved) external {\r\n    require(_operator != msg.sender, \"The operator should be different from owner\");\r\n    require(\r\n      _owner == msg.sender ||\r\n      _isApprovedForAll(_owner, msg.sender),\r\n      \"Unauthorized user\"\r\n    );\r\n\r\n    updateManager[_owner][_operator] = _approved;\r\n\r\n    emit UpdateManager(\r\n      _owner,\r\n      _operator,\r\n      msg.sender,\r\n      _approved\r\n    );\r\n  }\r\n\r\n  //\r\n  // Estate generation\r\n  //\r\n\r\n  event EstateRegistrySet(address indexed registry);\r\n\r\n  function setEstateRegistry(address registry) external onlyProxyOwner {\r\n    estateRegistry = IEstateRegistry(registry);\r\n    emit EstateRegistrySet(registry);\r\n  }\r\n\r\n  function createEstate(int[] x, int[] y, address beneficiary) external returns (uint256) {\r\n    // solium-disable-next-line arg-overflow\r\n    return _createEstate(x, y, beneficiary, \"\");\r\n  }\r\n\r\n  function createEstateWithMetadata(\r\n    int[] x,\r\n    int[] y,\r\n    address beneficiary,\r\n    string metadata\r\n  )\r\n    external\r\n    returns (uint256)\r\n  {\r\n    // solium-disable-next-line arg-overflow\r\n    return _createEstate(x, y, beneficiary, metadata);\r\n  }\r\n\r\n  function _createEstate(\r\n    int[] x,\r\n    int[] y,\r\n    address beneficiary,\r\n    string metadata\r\n  )\r\n    internal\r\n    returns (uint256)\r\n  {\r\n    require(x.length > 0, \"You should supply at least one coordinate\");\r\n    require(x.length == y.length, \"The coordinates should have the same length\");\r\n    require(address(estateRegistry) != 0, \"The Estate registry should be set\");\r\n\r\n    uint256 estateTokenId = estateRegistry.mint(beneficiary, metadata);\r\n    bytes memory estateTokenIdBytes = toBytes(estateTokenId);\r\n\r\n    for (uint i = 0; i < x.length; i++) {\r\n      uint256 tokenId = _encodeTokenId(x[i], y[i]);\r\n      _doTransferFrom(\r\n        _ownerOf(tokenId),\r\n        address(estateRegistry),\r\n        tokenId,\r\n        estateTokenIdBytes,\r\n        true\r\n      );\r\n    }\r\n\r\n    return estateTokenId;\r\n  }\r\n\r\n  function toBytes(uint256 x) internal pure returns (bytes b) {\r\n    b = new bytes(32);\r\n    // solium-disable-next-line security/no-inline-assembly\r\n    assembly { mstore(add(b, 32), x) }\r\n  }\r\n\r\n  //\r\n  // LAND Update\r\n  //\r\n\r\n  function updateLandData(\r\n    int x,\r\n    int y,\r\n    string data\r\n  )\r\n    external\r\n  {\r\n    return _updateLandData(x, y, data);\r\n  }\r\n\r\n  function _updateLandData(\r\n    int x,\r\n    int y,\r\n    string data\r\n  )\r\n    internal\r\n    onlyUpdateAuthorized(_encodeTokenId(x, y))\r\n  {\r\n    uint256 assetId = _encodeTokenId(x, y);\r\n    address owner = _holderOf[assetId];\r\n\r\n    _update(assetId, data);\r\n\r\n    emit Update(\r\n      assetId,\r\n      owner,\r\n      msg.sender,\r\n      data\r\n    );\r\n  }\r\n\r\n  function updateManyLandData(int[] x, int[] y, string data) external {\r\n    require(x.length > 0, \"You should supply at least one coordinate\");\r\n    require(x.length == y.length, \"The coordinates should have the same length\");\r\n    for (uint i = 0; i < x.length; i++) {\r\n      _updateLandData(x[i], y[i], data);\r\n    }\r\n  }\r\n\r\n  /**\r\n   * @dev Set a new land balance minime token\r\n   * @notice Set new land balance token: `_newLandBalance`\r\n   * @param _newLandBalance address of the new land balance token\r\n   */\r\n  function setLandBalanceToken(address _newLandBalance) onlyProxyOwner external {\r\n    require(_newLandBalance != address(0), \"New landBalance should not be zero address\");\r\n    emit SetLandBalanceToken(landBalance, _newLandBalance);\r\n    landBalance = IMiniMeToken(_newLandBalance);\r\n  }\r\n\r\n   /**\r\n   * @dev Register an account balance\r\n   * @notice Register land Balance\r\n   */\r\n  function registerBalance() external {\r\n    require(!registeredBalance[msg.sender], \"Register Balance::The user is already registered\");\r\n\r\n    // Get balance of the sender\r\n    uint256 currentBalance = landBalance.balanceOf(msg.sender);\r\n    if (currentBalance > 0) {\r\n      require(\r\n        landBalance.destroyTokens(msg.sender, currentBalance),\r\n        \"Register Balance::Could not destroy tokens\"\r\n      );\r\n    }\r\n\r\n    // Set balance as registered\r\n    registeredBalance[msg.sender] = true;\r\n\r\n    // Get LAND balance\r\n    uint256 newBalance = _balanceOf(msg.sender);\r\n\r\n    // Generate Tokens\r\n    require(\r\n      landBalance.generateTokens(msg.sender, newBalance),\r\n      \"Register Balance::Could not generate tokens\"\r\n    );\r\n  }\r\n\r\n  /**\r\n   * @dev Unregister an account balance\r\n   * @notice Unregister land Balance\r\n   */\r\n  function unregisterBalance() external {\r\n    require(registeredBalance[msg.sender], \"Unregister Balance::The user not registered\");\r\n\r\n    // Set balance as unregistered\r\n    registeredBalance[msg.sender] = false;\r\n\r\n    // Get balance\r\n    uint256 currentBalance = landBalance.balanceOf(msg.sender);\r\n\r\n    // Destroy Tokens\r\n    require(\r\n      landBalance.destroyTokens(msg.sender, currentBalance),\r\n      \"Unregister Balance::Could not destroy tokens\"\r\n    );\r\n  }\r\n\r\n  function _doTransferFrom(\r\n    address from,\r\n    address to,\r\n    uint256 assetId,\r\n    bytes userData,\r\n    bool doCheck\r\n  )\r\n    internal\r\n  {\r\n    updateOperator[assetId] = address(0);\r\n    _updateLandBalance(from, to);\r\n    super._doTransferFrom(\r\n      from,\r\n      to,\r\n      assetId,\r\n      userData,\r\n      doCheck\r\n    );\r\n  }\r\n\r\n  function _isContract(address addr) internal view returns (bool) {\r\n    uint size;\r\n    // solium-disable-next-line security/no-inline-assembly\r\n    assembly { size := extcodesize(addr) }\r\n    return size > 0;\r\n  }\r\n\r\n  /**\r\n   * @dev Update account balances\r\n   * @param _from account\r\n   * @param _to account\r\n   */\r\n  function _updateLandBalance(address _from, address _to) internal {\r\n    if (registeredBalance[_from]) {\r\n      landBalance.destroyTokens(_from, 1);\r\n    }\r\n\r\n    if (registeredBalance[_to]) {\r\n      landBalance.generateTokens(_to, 1);\r\n    }\r\n  }\r\n}\r\n",
  "sourcePath": "B:\\Block Chain Development\\Advanced Blockchain Technology\\Decentraland\\Truffle\\contracts\\land\\LANDRegistry.sol",
  "compiler": {
    "name": "solc",
    "version": "0.4.24+commit.e67f0147.Emscripten.clang"
  },
  "schemaVersion": "3.4.4",
  "updatedAt": "2022-02-04T19:49:00.345Z",
  "devdoc": {
    "methods": {
      "approve(address,uint256)": {
        "details": "Authorize a third party operator to manage one particular asset",
        "params": {
          "assetId": "asset to approve",
          "operator": "address to be approved"
        }
      },
      "balanceOf(address)": {
        "details": "Gets the balance of the specified address",
        "params": {
          "owner": "address to query the balance of"
        },
        "return": "uint256 representing the amount owned by the passed address"
      },
      "exists(uint256)": {
        "details": "Method to check if an asset identified by the given id exists under this DAR.",
        "return": "uint256 the assetId"
      },
      "getApproved(uint256)": {
        "details": "Query what address has been particularly authorized to move an asset",
        "params": {
          "assetId": "the asset to be queried for"
        },
        "return": "bool true if the asset has been approved by the holder"
      },
      "isApprovedForAll(address,address)": {
        "details": "Query whether an address has been authorized to move any assets on behalf of someone else",
        "params": {
          "assetHolder": "the address that provided the authorization",
          "operator": "the address that might be authorized"
        },
        "return": "bool true if the operator has been authorized to move any assets"
      },
      "isAuthorized(address,uint256)": {
        "details": "Query if an operator can move an asset.",
        "params": {
          "assetId": "the asset that has been `approved` for transfer",
          "operator": "the address that might be authorized"
        },
        "return": "bool true if the asset has been approved by the holder"
      },
      "ownerOf(uint256)": {
        "details": "Queries what address owns an asset. This method does not throw. In order to check if the asset exists, use the `exists` function or check if the return value of this call is `0`.",
        "return": "uint256 the assetId"
      },
      "registerBalance()": {
        "details": "Register an account balance\r"
      },
      "safeTransferFrom(address,address,uint256)": {
        "details": "Alias of `safeTransferFrom(from, to, assetId, '')`",
        "params": {
          "assetId": "uint256 ID of the asset to be transferred",
          "from": "address that currently owns an asset",
          "to": "address to receive the ownership of the asset"
        }
      },
      "safeTransferFrom(address,address,uint256,bytes)": {
        "details": "Securely transfers the ownership of a given asset from one address to another address, calling the method `onNFTReceived` on the target address if there's code associated with it",
        "params": {
          "assetId": "uint256 ID of the asset to be transferred",
          "from": "address that currently owns an asset",
          "to": "address to receive the ownership of the asset",
          "userData": "bytes arbitrary user information to attach to this transfer"
        }
      },
      "setApprovalForAll(address,bool)": {
        "details": "Authorize a third party operator to manage (send) msg.sender's asset",
        "params": {
          "authorized": "bool set to true to authorize, false to withdraw authorization",
          "operator": "address to be approved"
        }
      },
      "setLandBalanceToken(address)": {
        "details": "Set a new land balance minime token\r",
        "params": {
          "_newLandBalance": "address of the new land balance token\r"
        }
      },
      "setManyUpdateOperator(uint256[],address)": {
        "params": {
          "_assetIds": "- LAND ids\r",
          "_operator": "- address of the account to be set as the updateOperator\r"
        }
      },
      "setUpdateManager(address,address,bool)": {
        "details": "Set an updateManager for an account\r",
        "params": {
          "_approved": "- bool whether the address will be approved or not\r",
          "_operator": "- address of the account to be set as the updateManager\r",
          "_owner": "- address of the account to set the updateManager\r"
        }
      },
      "setUpdateOperator(uint256,address)": {
        "params": {
          "assetId": "- LAND id\r",
          "operator": "- address of the account to be set as the updateOperator\r"
        }
      },
      "supportsInterface(bytes4)": {
        "details": "Returns `true` if the contract implements `interfaceID` and `interfaceID` is not 0xffffffff, `false` otherwise",
        "params": {
          "_interfaceID": "The interface identifier, as specified in ERC-165"
        }
      },
      "tokenOfOwnerByIndex(address,uint256)": {
        "details": "Throws if `index` >= `balanceOf(owner)` or if `owner` is the zero address, representing invalid assets. Otherwise this must not throw.",
        "params": {
          "index": "A counter less than `balanceOf(owner)`",
          "owner": "An address where we are interested in assets owned by them"
        },
        "return": "The identifier for the `index`th asset assigned to `owner`,  (sort order not specified)"
      },
      "tokensOf(address)": {
        "details": "This is not intended to be used on-chain",
        "params": {
          "owner": "address of the owner to query"
        },
        "return": "a list of all assetIds of a user"
      },
      "totalSupply()": {
        "details": "Gets the total amount of assets stored by the contract",
        "return": "uint256 representing the total amount of assets"
      },
      "unregisterBalance()": {
        "details": "Unregister an account balance\r"
      }
    }
  },
  "userdoc": {
    "methods": {
      "registerBalance()": {
        "notice": "Register land Balance\r"
      },
      "setLandBalanceToken(address)": {
        "notice": "Set new land balance token: `_newLandBalance`\r"
      },
      "setManyUpdateOperator(uint256[],address)": {
        "notice": "Set many LAND updateOperator\r"
      },
      "setUpdateOperator(uint256,address)": {
        "notice": "Set LAND updateOperator\r"
      },
      "tokenOfOwnerByIndex(address,uint256)": {
        "notice": "Enumerate tokens assigned to an owner"
      },
      "tokensOf(address)": {
        "notice": "Get all tokens of a given address"
      },
      "unregisterBalance()": {
        "notice": "Unregister land Balance\r"
      }
    }
  }
}