{
  "contractName": "Migratable",
  "abi": [
    {
      "anonymous": false,
      "inputs": [
        {
          "indexed": false,
          "name": "contractName",
          "type": "string"
        },
        {
          "indexed": false,
          "name": "migrationId",
          "type": "string"
        }
      ],
      "name": "Migrated",
      "type": "event"
    },
    {
      "constant": true,
      "inputs": [
        {
          "name": "contractName",
          "type": "string"
        },
        {
          "name": "migrationId",
          "type": "string"
        }
      ],
      "name": "isMigrated",
      "outputs": [
        {
          "name": "",
          "type": "bool"
        }
      ],
      "payable": false,
      "stateMutability": "view",
      "type": "function"
    }
  ],
  "bytecode": "0x608060405234801561001057600080fd5b50610224806100206000396000f300608060405260043610610041576000357c0100000000000000000000000000000000000000000000000000000000900463ffffffff168063c0bac1a814610046575b600080fd5b34801561005257600080fd5b506100f3600480360381019080803590602001908201803590602001908080601f0160208091040260200160405190810160405280939291908181526020018383808284378201915050505050509192919290803590602001908201803590602001908080601f016020809104026020016040519081016040528093929190818152602001838380828437820191505050505050919291929050505061010d565b604051808215151515815260200191505060405180910390f35b600080836040518082805190602001908083835b6020831015156101465780518252602082019150602081019050602083039250610121565b6001836020036101000a0380198251168184511680821785525050505050509050019150509081526020016040518091039020826040518082805190602001908083835b6020831015156101af578051825260208201915060208101905060208303925061018a565b6001836020036101000a038019825116818451168082178552505050505050905001915050908152602001604051809103902060009054906101000a900460ff169050929150505600a165627a7a7230582077f2f48091fb3910a281bc12bb316e100f6989025744f91271df808db057cd900029",
  "source": "pragma solidity ^0.4.21;\n\n\n/**\n * @title Migratable\n *\n * @dev Helper contract to support migration schemes between different\n * @dev implementations of a contract in the context of upgradeability.\n *\n * @dev Beware! It is the developer's responsibility to ensure migrations are\n * @dev run in a correct order, or that they are run at all.\n *\n * @dev See Initializable for a simpler version.\n */\ncontract Migratable {\n  /**\n   * @dev Emitted when the contract performs a migration\n   * @param contractName Contract name\n   * @param migrationId migration id applied\n   */\n  event Migrated(string contractName, string migrationId);\n\n  /**\n   * @dev Stores which migrations have been applied already. \n   * @dev (contractName => (migrationId => bool))\n   */\n  mapping (string => mapping (string => bool)) internal migrated;\n\n\n  /**\n   * @dev used to decorate the initialization function of a contract version\n   * @param contractName Contract name\n   * @param migrationId migration id to be applied\n   */\n  modifier isInitializer(string contractName, string migrationId) {\n    require(!isMigrated(contractName, migrationId));\n    _;\n    emit Migrated(contractName, migrationId);\n    migrated[contractName][migrationId] = true;\n  }\n\n  /**\n   * @dev used to decorate a migration function of a contract\n   * @param contractName Contract name\n   * @param requiredMigrationId previous migration required to run new one\n   * @param newMigrationId new migration id to be applied\n   */\n  modifier isMigration(string contractName, string requiredMigrationId, string newMigrationId) {\n    require(isMigrated(contractName, requiredMigrationId) && !isMigrated(contractName, newMigrationId));\n    _;\n    emit Migrated(contractName, newMigrationId);\n    migrated[contractName][newMigrationId] = true;\n  }\n\n  /**\n   * @param contractName Contract name\n   * @param migrationId migration id\n   * @return if the contract was already migrated with given migration\n   */\n  function isMigrated(string contractName, string migrationId) public view returns(bool) {\n    return migrated[contractName][migrationId];\n  }\n}\n",
  "sourcePath": "zos-lib\\contracts\\migrations\\Migratable.sol",
  "compiler": {
    "name": "solc",
    "version": "0.4.24+commit.e67f0147.Emscripten.clang"
  },
  "schemaVersion": "3.4.4",
  "updatedAt": "2022-02-04T19:49:00.424Z",
  "devdoc": {
    "methods": {
      "isMigrated(string,string)": {
        "params": {
          "contractName": "Contract name",
          "migrationId": "migration id"
        },
        "return": "if the contract was already migrated with given migration"
      }
    },
    "title": "Migratable"
  },
  "userdoc": {
    "methods": {}
  }
}