{
  "contractName": "ProxyStorage",
  "abi": [
    {
      "constant": true,
      "inputs": [],
      "name": "proxyOwner",
      "outputs": [
        {
          "name": "",
          "type": "address"
        }
      ],
      "payable": false,
      "stateMutability": "view",
      "type": "function"
    },
    {
      "constant": true,
      "inputs": [],
      "name": "currentContract",
      "outputs": [
        {
          "name": "",
          "type": "address"
        }
      ],
      "payable": false,
      "stateMutability": "view",
      "type": "function"
    }
  ],
  "bytecode": "0x608060405234801561001057600080fd5b50610176806100206000396000f30060806040526004361061004c576000357c0100000000000000000000000000000000000000000000000000000000900463ffffffff168063025313a214610051578063721d7d8e146100a8575b600080fd5b34801561005d57600080fd5b506100666100ff565b604051808273ffffffffffffffffffffffffffffffffffffffff1673ffffffffffffffffffffffffffffffffffffffff16815260200191505060405180910390f35b3480156100b457600080fd5b506100bd610125565b604051808273ffffffffffffffffffffffffffffffffffffffff1673ffffffffffffffffffffffffffffffffffffffff16815260200191505060405180910390f35b600160009054906101000a900473ffffffffffffffffffffffffffffffffffffffff1681565b6000809054906101000a900473ffffffffffffffffffffffffffffffffffffffff16815600a165627a7a7230582023d5c4372981dd9a56727c000ef30fd0780566f4478a46c83af0a32216ef876c0029",
  "source": "pragma solidity ^0.4.18;\r\n\r\n\r\ncontract ProxyStorage {\r\n\r\n  /**\r\n   * Current contract to which we are proxing\r\n   */\r\n  address public currentContract;\r\n  address public proxyOwner;\r\n}\r\n",
  "sourcePath": "B:\\Block Chain Development\\Advanced Blockchain Technology\\Decentraland\\Truffle\\contracts\\upgradable\\ProxyStorage.sol",
  "compiler": {
    "name": "solc",
    "version": "0.4.24+commit.e67f0147.Emscripten.clang"
  },
  "schemaVersion": "3.4.4",
  "updatedAt": "2022-02-03T17:24:10.888Z",
  "devdoc": {
    "methods": {}
  },
  "userdoc": {
    "methods": {}
  }
}